:020000022000DC
:1070000000000420658A02008D8A02008F8A020037
:10701000918A0200938A0200958A02000000000013
:10702000000000000000000000000000978A02003D
:10703000998A0200000000009B8A02009D8A0200DB
:107040009F8A02009F8A020015AF0200E5AE02008F
:10705000F1AE0200C9AC020011A602009F8A020034
:1070600091B80200E9B8020041B902009F8A02000B
:107070009F8A02009F8A02009F8A02009F8A020064
:107080009F8A02003DD302009F8A020009AF0200DE
:107090009F8A02009F8A0200FDF002009F8A020080
:1070A0009F8A02009F8A020099B90200F1B902008A
:1070B0009F8A02009F8A020000000000000000007A
:1070C0009F8A02009F8A02009F8A0200FDAE020092
:1070D0009F8A02009F8A02009F8A02009F8A020004
:1070E000D9BF02009F8A02009F8A020000000000B0
:1070F000000000009F8A02000000000015B102009D
:10710000000000000000000000000000000000007F
:10711000000000000000000000000000000000006F
:10712000000000000000000000000000000000005F
:10713000000000000000000000000000000000004F
:10714000000000000000000000000000000000003F
:10715000000000000000000000000000000000002F
:10716000000000000000000000000000000000001F
:10717000000000000000000000000000000000000F
:1071800000000000000000000000000000000000FF
:1071900000000000000000000000000000000000EF
:1071A00000000000000000000000000000000000DF
:1071B00000000000000000000000000000000000CF
:1071C00000000000000000000000000000000000BF
:1071D00000000000000000000000000000000000AF
:1071E000000000000000000000000000000000009F
:1071F000000000000000000000000000000000008F
:1072000010B5054C237833B9044B13B10448AFF3E0
:1072100000800123237010BDE02300200000000047
:107220009C31030008B5034B1BB103490348AFF37E
:10723000008008BD00000000E42300209C31030012
:10724000154B002B08BF134B9D46A3F5803A002138
:107250008B460F461348144A121A08F00FFC0F4BC6
:10726000002B00D098470E4B002B00D098470020F1
:10727000002104000D000D48002802D00C48AFF397
:10728000008008F0B9FB2000290000F0CFFB08F0D7
:107290009FFB00BF00000800000004200000000069
:1072A00000000000E0230020283000200000000043
:1072B0000000000072DF704773DF704776DF7047B1
:1072C0007ADF70477CDF70477FDF70478FDF704762
:1072D000B1DF70474FF0A0430C22C3F80C27D3F85E
:1072E0001005C0F3C00070474FF0A0430C22C3F854
:1072F0001027D3F81005C0F300107047044B0C2280
:10730000C3F80C27D3F81005C0F3C000704700BFC6
:1073100000030050002001F023BB00BF012001F05A
:107320001FBB00BF022001F01BBB00BF002001F00B
:1073300029BB00BF012001F025BB00BF022001F0E6
:1073400021BB00BF012905D0022902D10D2001F087
:1073500019BB70470D2001F003BB00BF05F0CEBB89
:1073600008B5037803B108BD054B3B211888FFF72A
:10737000A5FF0028F7D0BDE8084005F0BFBB00BF5F
:107380001A2300200B2801D005F0B8BB104B114880
:10739000C01AC008000410B540F003000C460E49A6
:1073A00007F038F90D4B0E491888224602F0D2FC3E
:1073B00030F0080207D043F20202904203D043F2B9
:1073C0000142904200D110BDBDE8104005F096BBCF
:1073D000043203000432030064FC02001A2300207C
:1073E0005024002005F08ABB70B51C4D1C4982B0AA
:1073F00022234FF480648DF807300DF1070001223D
:10740000C5F80C4500F0D6FDF7238DF80730144978
:10741000C5F808450DF10700012200F0CBFD20233F
:107420008DF8073001220E49C5F80C450DF1070013
:1074300000F0C0FDD5F81035DA060CD5094E46F03F
:10744000010664244FF47A40B047013CFAD1D5F8E4
:107450001035DB06F5D402B070BD00BF000300504C
:107460007424002000FD020010B50388212B82B097
:10747000044630D80F2B2CD9103B112B29D8DFE82C
:1074800003F04609286228282828282828282828A0
:107490002828283C3A4B3B483B49C01AC008000406
:1074A00040F0030007F0B6F80E2001F06BFA374BFE
:1074B0004FF6FF721A8005F0F3FA00285DD1344BC5
:1074C00001211878FFF7F8FE002853D10D2001F0B4
:1074D00047FA02B010BD522B3FD0562B09D1A088DD
:1074E0001321FFF7EBFE0028F3D005F007FB02B0F5
:1074F00010BD3B2BF3D002B010BD00238088ADF847
:10750000043001A9FFF7E2FE0028E2D0EDE71C4BB2
:107510001C482049C01AC008000440F0030007F0CE
:1075200079F80E2001F01CFA0D2001F02BFA174B10
:10753000A1881948198002F003FBC0B905F09AFA36
:107540000028C6D0D1E7114A0023108885211A46A9
:10755000FFF7BAFE0028BCD0C7E70C4A002310880A
:1075600019461A46FFF7B4FE0028B2D0BDE705F071
:10757000C5FAE3E705F0C2FAA8E705F0BFFA9EE70F
:1075800004320300043203008CFC02001A230020A2
:107590001823002080FC0200682400202DE9F04719
:1075A00041F2883084B0144608F04AFA00284BD0E3
:1075B000C822FF26114605460023009600F050FE23
:1075C000284600F06FFE304600F072FE002322468F
:1075D00001961F4C00932D211E4BDFF88080642004
:1075E00000F0B6FE4FF4806724228DF80F200DF1D5
:1075F0000F00C4F80C750122414600F0DBFC05F5D4
:107600009C56A14607366C1E04F1190A14F8013F76
:107610008DF80F300122C9F8087541460DF10F00B1
:1076200000F0C8FC5445F1D1A642EDD10A4EFFF757
:10763000DBFEC82446F001064FF47A40B047013C17
:10764000FAD1284608F004FA04B0BDE8F08700BF7C
:10765000000300506023002000FD0200742400207D
:107660002DE9F047BA4BBB4C402282B0C3F8082545
:1076700044F00104C8254FF47A40A047013DFAD1F7
:10768000B34B4022C3F80C250A254FF47A40A0479B
:10769000013DFAD1AE4B4022C3F80825C8254FF46E
:1076A0007A40A047013DFAD1A94ED6F81035DD0643
:1076B00009D564254FF47A40A047013DFAD1D6F8A8
:1076C0001035DD06F5D4A24EA3494FF48063122293
:1076D0008DF807200DF10700C6F80C35012200F0E7
:1076E00069FCD6F81035D80609D564254FF47A40E0
:1076F000A047013DFAD1D6F81035DA06F5D4944DFD
:10770000954901264FF480674FF0C7098DF807604F
:1077100032460DF10700C5F80C7500F04BFC4FF038
:1077200000088D498DF8079032460DF10700C5F825
:10773000087500F03FFC88498DF8078032460DF14E
:107740000700C5F8087500F035FC83498DF807601F
:1077500032460DF10700C5F8087500F02BFC112327
:107760008DF807307C49C5F80C7532460DF10700DD
:1077700000F020FC78498DF8076032460DF10700D3
:10778000C5F8087500F016FC44238DF807307249DF
:10779000C5F80C7532460DF1070000F00BFC4FF0F8
:1077A000180A6D498DF8078032460DF10700C5F8BB
:1077B000087500F0FFFB68498DF807A032460DF10F
:1077C0000700C5F8087500F0F5FB45238DF8073074
:1077D0006149C5F80C7532460DF1070000F0EAFB6F
:1077E0005D498DF8079032460DF10700C5F8087520
:1077F00000F0E0FB58498DF8078032460DF1070094
:10780000C5F8087500F0D6FB53498DF8078032465D
:107810000DF10700C5F8087500F0CCFB4E498DF856
:10782000078032460DF10700C5F8087500F0C2FB6D
:107830003C238DF807304849C5F80C7532460DF1E8
:10784000070000F0B7FB44498DF8076032460DF1A0
:107850000700C5F8087500F0ADFB3F498DF807A09B
:1078600032460DF10700C5F80C7500F0A3FB80232C
:107870008DF807303849C5F8087532460DF1070014
:1078800000F098FB22238DF807303349C5F80C75BA
:1078900032460DF1070000F08DFBB1238DF8073063
:1078A0002D49C5F8087532460DF1070000F082FB3E
:1078B00020238DF807302849C5F80C7532460DF1A4
:1078C000070000F077FB4E238DF807302249C5F8FA
:1078D0000C7532460DF1070000F06CFB1E498DF867
:1078E000078032460DF10700C5F8087500F062FB0D
:1078F0004F238DF807301849C5F80C7532460DF145
:10790000070000F057FB14498DF8079032460DF13F
:107910000700C5F8087500F04DFB0F498DF807808A
:107920003246C5F808750DF1070000F043FBD5F8A5
:107930001035D90609D564264FF47A40A047013E98
:10794000FAD1D5F81035DB06F5D402B0BDE8F087E2
:107950000003005000FD0200742400202DE9F043D4
:10796000164F174983B024234FF4806681468DF863
:1079700007300DF10700C7F80C65012209F1180561
:10798000884609F59D5900F015FBA5F1190414F876
:10799000013F8DF807300122C7F8086541460DF117
:1079A000070000F007FBAC42F1D104F119054D4589
:1079B000EBD1FFF719FD03B0BDE8F08300030050E1
:1079C000742400202DE9F043164F174983B0242377
:1079D0004FF480668DF807300DF10700C7F80C658D
:1079E0000122884600F0E6FA4FF0C8091924002564
:1079F000013C8DF807500122C7F8086541460DF19A
:107A00000700A4B200F0D6FA002CF1D109F1FF3939
:107A10001FFA89F9B9F1000FE8D1FFF7E5FC03B0CF
:107A2000BDE8F08300030050742400202DE9F047E6
:107A30000120DAB000F0E8FFC74B00240322C3F8AE
:107A40001827C3F82827C3F82C27C3F8104700F0DD
:107A5000ABFFC24922461EA800F06EFEC049224676
:107A600028A800F069FEBF49224632A800F064FE53
:107A7000BD4A21461EA800F079FEBC4A1EA801217D
:107A800000F074FEBA4A214628A800F06FFEB94AF9
:107A900028A8012100F06AFEB74A214632A800F06A
:107AA00065FEB64A012132A800F060FE1EA800F073
:107AB00061FE28A800F05EFE32A800F05BFE05F033
:107AC000FDF9002840F0E481AD4840F23332012155
:107AD00004F070FF002840F01F8206F041FA0028F1
:107AE00040F0178207F078FA002840F00F82002358
:107AF0004BA901204B9307F04BFB002840F0038279
:107B00004BA807F0AFFB002840F0FA8111239D48F5
:107B10008DF8F03008F074F89A4982B23CA8FFF76B
:107B2000D1FB002840F0E981082200214BA807F092
:107B3000A5FF954B4B934BA84FF0C8734C93FFF7A1
:107B4000BFFB002840F0D6819048002101F0E6FEFE
:107B5000002840F0CC818E4B8E484B9300224BA9DD
:107B60003C9201F0DBFF002840F0BE818A4B8B483D
:107B70003C933CA902F086F8002840F0B281874B84
:107B8000874C987C8DF84E0041F223533C22002113
:107B9000ADF84C303CA807F071FF022040F20163C1
:107BA0003C2200218DF8F0004BA8ADF8F23007F030
:107BB00065FF224613AE012352F8041B50963CA8E1
:107BC000ADF83C3101F0FCF8002840F08781A16855
:107BD000744A4BA801F0F4F8002840F07C81182288
:107BE000002118A807F04AFF01234FF480714020BC
:107BF0008DF86030ADF8741000231A9068496A4817
:107C0000ADF86C3018AA1993FFF754FB002840F028
:107C10005F811C2200214BA807F030FF00234FF4A6
:107C2000A030624A4B93ADF83A318DF83C31604B4D
:107C30004D904FF4A02403214BA8CDE950234C9440
:107C40008DF8381101F0F0FB002840F03E81564BD2
:107C500001211878FFF730FB002840F033810D2018
:107C600000F07EFE4FF480734FF4804100200293B9
:107C700006F05AFB002840F022814E4DDFF8448187
:107C800006F042FB00214C4807F0BEFC0FCD2F460A
:107C900009AC57F8049B1D940FC40FCF0DF1380A9F
:107CA000D446ACE80F00DFF820E13B68C4F8009050
:107CB00001274FF000091835CDF86C80CDF804A1EC
:107CC000CCF80030ADF860708DF86870ADF8F070E9
:107CD0008DF8F870CDF86490CDF8F490CDF8FC8074
:107CE000CDF870E0CDF800E10FCD34460FC42B681D
:107CF000ADF82C7103AD032218A906A8CDE94E8E6C
:107D0000CDE90652CDF830918DF83471509623604C
:107D1000CDF8209007F09EF8002800F0BC80029972
:107D20002648274D07F0A2FC07F034FD00F012F9B9
:107D300000F08AF900F05EF9074B4FF480604FF4D1
:107D400000614022C3F80C05C3F80C15C3F80825E0
:107D5000FFF786FC3AE000BF00030050D572020036
:107D6000E9720200FD720200157302002D73020019
:107D70001D73020035730200257302003D7302007B
:107D8000002300209CFC02005000A0003C240020A6
:107D90005D730200682400209D75020050240020BD
:107DA0000823002014230020182300206173020000
:107DB000E5730200C4FC020045730200F02E0020AF
:107DC00000FD02002806030075EF0200FFF7FAFD30
:107DD000642445F001054FF47A40A847013CFAD1EC
:107DE00041F2883007F02CFE0746002800F097800B
:107DF000FF26C82211462346009600F031FA384685
:107E000000F050FA304600F053FACDE90046464BF8
:107E1000464A2D21052000F09BFACDE90046424B51
:107E2000434A4621052000F001FCCDE90064414BA6
:107E3000414A5F21052000F0D3FACDE900463F4BCF
:107E40003F4A7321052000F0CBFA3846FFF786FD44
:107E50004FF4FA744FF47A40A847013CFAD100F08D
:107E60009FFC06F0AFFA80B1002000F0B3FD20BF08
:107E700040F6B8344FF47A40A847013CFAD100F0FC
:107E80008FFC06F09FFA0028EED106F07FF8EBE7B2
:107E900004F034FE18E63CA906A806F0DBFF002833
:107EA0007FF43DAF4BA906A806F0D4FF00287FF46D
:107EB00036AF244906A802AA06F08EFF2FE704F089
:107EC0001DFEDAE604F01AFEC9E604F017FEBEE66F
:107ED00004F014FE9DE604F011FE80E604F00EFEB0
:107EE00075E604F00BFE4AE604F008FE3EE604F0F8
:107EF00005FE30E604F002FE26E604F0FFFD13E680
:107F000004F0FCFD02E604F0F9FDF9E504F0F6FDED
:107F1000EDE504F0F3FDE5E504F0F0FDDDE54FF0FF
:107F2000FF305AB0BDE8F08760230020ACFC0200AF
:107F3000A25D4F0054230020B4FC020068230020FF
:107F4000BCFC0200F02E0020014B01221A70704789
:107F50001C23002070B5134B0FCB84B06C4684E813
:107F60000F00002542F62F52FF2021464FF0806679
:107F70000424ADF800208DF802000B4A0B488DF860
:107F80000C502B4602968DF8044002F04FF828B9A9
:107F9000074B0322C3F82C2704B070BD04F0AEFDDC
:107FA000F6E700BF40FD0200497F020050FD0200DD
:107FB0000003005070B584B000250C4C00901346AF
:107FC0000E460B4801932A46694603930296257094
:107FD00003F0C4FA08B105E020BF2378002BFBD0E2
:107FE00004B070BD04F08AFDF7E700BF1C23002039
:107FF00054FD020070B5114B0FCB84B06C4684E881
:108000000F00002542F62F52FF2021464FF0004678
:108010000424ADF800208DF80200094A09488DF8C3
:108020000C502B4602968DF8044001F0FFFF08B972
:1080300004B070BD04F062FD04B070BD40FD0200EC
:10804000497F020050FD0200014803F01BBA00BF47
:1080500054FD020070B4424CE389B42B4ED00ED8CC
:1080600033B15A2B3BD12389013B5B1A014698B2AD
:10807000238A032B33D8DFE803F034363B0BB3F508
:10808000877F2CD16389013B1B1A084699B2EFE721
:10809000238965895E1E013D301A691A80B289B252
:1080A00083421CD363898B4219D3E38A022B2ED0DF
:1080B000042B3CD0072B12D1638A2568C0F34F04F0
:1080C00001FB034100F001006B5C8000F0240441DF
:1080D000120142FA00F023EA04031843685470BC0A
:1080E00070472389DCE723895D1E281A80B2D7E711
:1080F00065892389013D691A89B2D1E72589638998
:10810000013D013B281A591A80B289B2B0E7638A4F
:108110002468C0F3CF0501FB035100F00700802362
:10812000655C0341C2B925EA03036354D7E7638A58
:108130002468C0F38F0501FB035100F00300635C6A
:10814000400002F00302C02592010541024123EAEA
:10815000050313436354C2E72B436354BFE700BFD7
:10816000F02F00202DE9F04FB3F804C0DD881C6823
:108170001CF0070683B0A2F1200218BF012606EB0F
:10818000DC0605FB02F20093BDF83480BDF8303008
:1081900002FB0646002D5ED007EE903A2F4F0023DB
:1081A00083468A4601934FF080096246002A48D0F0
:1081B00053460024DA4620469B461AE050441EEA05
:1081C0000C0F80B2B7F804C026D084450AD3B7F8A4
:1081D00006C0DC4506D317EE902A5946FFF73AFF52
:1081E000009B9A880134072DA0B208BF0136904247
:1081F0001FD200F00705B8F1FF0F96F800E049FA2A
:1082000005FCDBD11EEA0C0FECD0B7F804C05044DB
:1082100080B28445DBD2E5E78445E3D3B7F806C0F6
:10822000DC45DFD342465946FFF714FF009B9A888E
:10823000D8E75B46D3469A46009BDD88530718BFB4
:108240000136019B013398B20AF10101A842019362
:108250001FFA81FAAAD303B0BDE8F08FF02F0020F7
:1082600030B40F4CBDF80850A5810225E58220608E
:108270004D074FEAD1001CBF013080B2002521819B
:1082800062816082A282E381258223B1B42B02D075
:108290000B4611461A46E280A18030BC704700BFF1
:1082A000F02F0020014B1860704700BFF02F002016
:1082B00070B4264CE38A022B05D0042B03D0072B85
:1082C00021D070BC7047A28A002AFAD0638AC0B25B
:1082D00000269BB1B5B20022216805FB03F311FA19
:1082E00082F10132C854638A91B28B42F4D8A28AD7
:1082F0000136B1B29142ECD370BC70470136B1B2D5
:108300009142F5D3DDE7A18A0029DAD040EA0010D6
:10831000628AC3B200269AB1B5B20021206805FB7B
:1083200002F210FA81F001318354628A88B28242EB
:10833000F4D8A18A0136B0B28842ECD370BC704741
:108340000136B0B28842F5D3BBE700BFF02F002062
:108350002DE9F04FDFF8848085B0B8F804C0BDF88F
:108360003840BDF83CB00394844533D3B8F806E0F8
:108370008E4589462ED3164612785AB399880746F9
:108380009A464D46044603E0B8F804C0B8F806E043
:1083900060186045BAF80600C4BF2D18ADB2284475
:1083A000C8BF3C467045C4BF3C464D4664450BD8EB
:1083B000754509D8039B2946CDE900B320465346AD
:1083C000FFF7D0FEBAF8041016F8012F0C44A4B23F
:1083D000002AD9D105B0BDE8F08F00BFF02F0020F2
:1083E0002DE9F04F85B002921278BDF83840BDF803
:1083F0003C800391002A00F0828007EE904A8A4F69
:10840000824699461406B9F8040000F188800028D5
:108410006BD0D9F80060002303E0834206F1A80680
:1084200063D03178914203F10103F6D1B9F80A0023
:108430000236002859D00399B9F80820CDF80090E9
:10844000002301934FF0800B8946002A42D04B460F
:108450000024D1469A461BE01CEA000F09EB0400F9
:10846000B7F804C080B24DD084450AD3B7F806C02F
:10847000D44506D317EE902A5146FFF7EBFD009B3B
:108480001A89072D04F1010408BF0136A24219DD43
:1084900004F00705B8F1FF0F96F800C04BFA05F09D
:1084A000DAD11CEA000FECD0B7F804C009EB0400E5
:1084B00080B28445DAD2072D04F1010408BF0136E9
:1084C000A242E5DC5346CA469946009B51075889AB
:1084D00018BF0136019B013309F101019842019354
:1084E0001FFA81F9B1DCDDF80090029AB9F8063084
:1084F00001329A44029213461A78002A82D105B0BA
:10850000BDE8F08F8445BCD3B7F806C0D445B8D3D6
:1085100042465146FFF79EFD009B1A89B1E70028AD
:108520007FD0D9F80050029E002303E0834205F17A
:10853000A80576D02978914203F10103F6D1747829
:1085400069788C42F2D1B9F80A000235002868D067
:108550000399B9F808200023CDE90093894616460F
:10856000002A4CD04B460024D1464FF0800B9A464F
:108570001CE01CEA000F09EB0400B7F804C080B24D
:1085800028D084450AD3B7F806C0D44506D317EEE1
:10859000902A5146FFF75EFD009B1A89072E04F1D1
:1085A000010408BF0135A242164620DD04F007068B
:1085B000B8F1FF0F95F800C04BFA06F0D9D11CEACC
:1085C000000FEBD0B7F804C009EB040080B284457B
:1085D000D9D2E3E78445E1D3B7F806C0D445DDD36B
:1085E00042465146FFF736FD009B1A89D6E75346AF
:1085F000CA469946009B5889530718BF0135019B0D
:10860000013309F10101984201931FFA81F9A6DCB7
:10861000DDF800903346029A02329A4402921346E1
:108620006AE7B9F80830F6E7F02F00202DE9F04F9F
:10863000ADF5057D002506463D4FBDF83C920495FD
:10864000884614462946FB2205A80DF5887B9A46E4
:10865000BDF83832039307F011FA2946FB2245A8EA
:10866000CBF8005007F00AFABB88B3425BD3F88816
:10867000404558D3002C56D0DFF8B8C08CFB0421FD
:10868000E217C2EBA10202EB8201A4EB4104A9B202
:10869000303401F1010E0BF8054014460FFA8EF547
:1086A000002AEBD1002D3EDD0DF1110211445D4495
:1086B00004AA15F8014D02F8014B9142F9D19DF839
:1086C000102082B319464B46BAF804E0D1460DF1AA
:1086D000100B454634469A4601E0B988F88804EB09
:1086E0000E0C8C45B9F806C0C4BF6544ADB2AC44AD
:1086F000C8BF34468445C4BF344645468C420CD876
:1087000085420AD8039B0093CDF804A02946204651
:108710004B46FFF727FDB9F804E01BF8012F74441E
:10872000A4B2002AD9D10DF5057DBDE8F08F00BFB8
:10873000F02F00206766666670B505460E46144643
:108740000021282207F09AF9AB786E60082262F3C4
:108750000713AB70B047A401EB7804F0400444EA7F
:10876000C01403F03F031C43EC7070BD023140F8AD
:108770002120704709490A6842B182420AD0134653
:1087800001E0984206D05B6A002BFAD14262086091
:10879000002070474FF0FF30704700BF7C2400205E
:1087A000F8B56B4B1F68002F3FD06A4C6A4E6B4D7B
:1087B0007B689847FB785A0702D03A8801323A80A2
:1087C000B0EBD31F4FEAD31174D0C3F3C20201320E
:1087D00002F0070262F3C503022AFB7007D9DBB27D
:1087E00000F0010161F3C7136FF3C503FB70FB7861
:1087F00003F00702052A15D8DFE802F029493318EB
:108800001403C3F380138B42BB787CD00121FA6838
:1088100061F30713BB700AB138469047FB786FF3DA
:108820000203FB707F6A002FC2D1F8BDC3F380132F
:108830008B42F7D0BB78FA68012161F30713BB7054
:108840000AB1384690473B883B2BE7D82CE0C3F36E
:1088500080138B42BB784AD0082262F30713BB70A7
:10886000E0E7C3F380138B4228D03B883C2BD9D957
:10887000BB7803F00F02012A61D0022ACED1042175
:10888000BA6961F30713BB70002AC5D1C6E7C3F309
:1088900080138B4241D0BB78FA68012161F3071342
:1088A000BB700AB1384690473B68234043F00073E1
:1088B0003B60B7E76FF3C503FB7098E7BB78BA6816
:1088C0006FF30713BB700AB138469047BB783A691B
:1088D000013303F00F0343F02003BB700AB13846A5
:1088E00090473B68234043F040733B609AE7BA6887
:1088F0006FF30713BB700AB1384690473B683340AB
:108900002B433B608EE706213A6A61F30713BB7085
:10891000002A87D03846904784E73B88C82B81D906
:10892000BB78FA69052161F30713BB700AB13846B9
:108930009047FB78052262F30203FB7072E7032184
:108940007A6961F30713BB70002A7FF465AF65E7AE
:108950007C2400200000FFF80000F0F80000010176
:10896000064B1A5C1F2A86BF054902F01F024FF012
:10897000A04101239340C1F80C35704760FD02000F
:1089800000030050064B1A5C1F2A86BF054902F0FF
:108990001F024FF0A04101239340C1F808357047F2
:1089A00060FD0200000300504FF0A04310B44FF0F0
:1089B00000504FF080544FF080414FF00042C3F818
:1089C0000C45C3F80C05C3F80C15C3F80C255DF86D
:1089D000044B70470A4B185C1F288ABF09494FF0A7
:1089E000A04100F01F00D1F804350122824022EAA4
:1089F00003001340C1F80805C1F80C35704700BFEB
:108A000060FD020000030050C20730B40ED483079B
:108A10000AD54FF0A0430C22C3F82C27C3F8302707
:108A2000C3F86027C3F8642730BC70474FF0A043F9
:108A30000322C3F870274FF08055C3F874274FF016
:108A40000054C3F878274FF08041C3F87C274FF0DB
:108A50000042C3F80855C3F80845C3F80815C3F821
:108A60000825D4E70649074A074B9B1A03DD043B58
:108A7000C858D050FBDC00F013F8FEF7E1FB000013
:108A80006C32030000230020E0230020FEE7FEE715
:108A9000FEE7FEE7FEE7FEE7FEE7FEE7FEE7FEE7AE
:108AA00010B4754B1B68082B1CD0744AD2F8883060
:108AB00043F47003C2F88830BFF34F8FBFF36F8F5A
:108AC0004FF01023D3F80022002AC0F2A380D3F87D
:108AD0000432002BC0F29E80694B6A4A1A605DF82E
:108AE000044B70474FF080414FF080520020C1F896
:108AF0000C01654BC1F81001C1F83805D2F8041417
:108B0000C3F82015D2F80814C3F82415D2F80C14B1
:108B1000C3F82815D2F81014C3F82C15D2F8141481
:108B2000C3F83015D2F81814C3F83415D2F81C1451
:108B3000C3F84015D2F82014C3F84415D2F8241411
:108B4000C3F84815D2F82814C3F84C15D2F82C14E1
:108B5000C3F85015D2F83014C3F85415D2F83414B1
:108B6000C3F86015D2F83814C3F86415D2F83C0481
:108B7000C3F868054549D2F84004C3F86C05096894
:108B8000D2F84424C3F87025032937D8404B5B5CE6
:108B900013B1404B404A1A60404B5B5C63B1364BAB
:108BA0003F491B68394AFB20C1F81805082B11689A
:108BB0007FF47BAF032921D83A4B5B5C93B13A48F1
:108BC0003A4B2D4C02681B682468304922F00F0292
:108BD00003F00F031343082C096803607FF465AFAB
:108BE00003290BD8324B5B5C43B1234B314A1B68E2
:108BF0004FF40071082B11607FF457AF4FF08043A2
:108C0000D3F80024D2077FF550AF6FF00102C3F80C
:108C100000244AE7284A0123C2F80435D2F8003478
:108C2000002BFBD04FF010231221234AC3F800126F
:108C3000D2F80034002BFBD04FF0102312211E4A33
:108C4000C3F80412D2F80034002BFBD000231A49D9
:108C5000C2F80435D1F80034002BFBD0BFF34F8F9E
:108C60000649164BCA6802F4E0621343CB60BFF3B7
:108C70004F8F00BFFDE700BF3001001000ED00E0A6
:108C8000202300200090D00300C0004034010010D9
:108C900064FD02008C5600404881030064FD020020
:108CA00000F0004064FD0200E40E00405802001095
:108CB00064FD02004096024000E001400400FA0515
:108CC0006DDF704779DF70477DDF704764DF704785
:108CD0002DE9F04F87B00746119D00882C8803943A
:108CE000BDF84840DDF840A0CDE90142002858D049
:108CF0004FF0000988461E46CB4604E03A880BF147
:108D0000010B93452CDAD8F8002052F82B0005907F
:108D100000220DF1130105A8FFF7D8FF044658BB48
:108D20009DF81320B242E9D1B9F1000F28D02A886A
:108D3000019B9119994239DC52440DF1130105A8A8
:108D40004FF00109FFF7C2FF002834D129889DF8B0
:108D500013200A442A803A880BF1010B9345D2DB99
:108D6000B9F1000F1DD02B88039A013B9B1A9BB2CF
:108D7000FF2B1BD80AF80230204607B0BDE8F08F61
:108D80002A88019B511C324402329A4289B20DDC7E
:108D9000029B29800AF801302A88013292B22A8087
:108DA000CAE70024204607B0BDE8F08F0C24204617
:108DB00007B0BDE8F08F0446204607B0BDE8F08F4D
:108DC0002DE9F04700231788138090F82D3088B0E4
:108DD000144605460E46002B40F00081AA78002A72
:108DE00040F0F580E978A1B1DA1CBA4200F2F280D5
:108DF0000222F254238801339BB201222380F254D1
:108E0000238813449BB22380F154238813449BB2DC
:108E100023806A68AAB1D91CB94200F2DB80022122
:108E200092F90020F154238801339BB20A21238058
:108E3000F154238801339BB22380F25423880133F9
:108E400023802B89002B40F0F3802B8A002B40F0ED
:108E50002B812B8B002B40F046812B6A002B44D0BA
:108E60002088821DBA4200F2B5801A88052A40F295
:108E700099816FF4486802EB080189B24FF27D3C9A
:108E8000614540F28F815988052940F28B816FF44A
:108E9000486E8E441FFA8EFEE64540F283814FF6FF
:108EA000FF7C624504D0614502D08A4200F27A819B
:108EB000052232542288013292B212212280B1540A
:108EC0002288013292B222801988B1543244090AB0
:108ED00051702288023292B222805B88B3543244AD
:108EE0001B0A53702388023323806B6A002B2FD018
:108EF0009988B4F800C0881C0CF102020244BA42FE
:108F000068D8FE2866D8033106F80C102288013292
:108F100092B2FF212280B1542288013292B2228083
:108F20001988B1543244090A51702088023080B245
:108F300020809A8862B199680593002900F03281F7
:108F4000304406F08DFD059B9A88238813442380C6
:108F500095F82C30002B40F0E380287800283AD098
:108F60002B88012B00F01E8123889A1CBA4231D82D
:108F7000012804D16978023119448F422AD3023F73
:108F8000FF1ABFB2B01806A9ADF81870FFF79CFE23
:108F900008BB2B78022B00F00D816978BDF81820F2
:108FA0009142C0F003819742C0F000811746092228
:108FB000FE2F0FD82388791CF154238801339BB2EC
:108FC0002380F254238801331F44278003E00433B5
:108FD000BB424CD90C2008B0BDE8F087082FF9D966
:108FE00006A8FFF76DFE0028F5D123880822F25469
:108FF000238801339BB21B222380F2542088013046
:1090000080B22080062230440DF1190106F028FDBF
:1090100023889DF8182006339BB212F0FE0218BF79
:1090200001222380F254238801339BB22380D5E6AA
:1090300005F10808022305F10C01CDE9014700966E
:1090400040461A460591FFF743FE0028C3D1CDE9FB
:10905000014705990096404610230622FFF738FE87
:109060000028B8D12B8A002B3FF4F3AE1CE006A8F1
:10907000FFF728FE0028AED12388BDF81820032171
:10908000F154238801339BB219212380F1542388A2
:1090900001339BB2F1182380F254130A4B702388DA
:1090A00002339BB223809DE605F1100805F11401FF
:1090B000CDE9014700964046022303220591FFF7C0
:1090C00007FE002887D1CDE9014705990096404663
:1090D00010230722FFF7FCFD00287FF47CAF2B8BC9
:1090E000002B3FF4BAAE05F1180805F11C01CDE9DB
:1090F000014700964046022314220591FFF7E8FD40
:1091000000287FF468AFCDE90147059900964046F5
:1091100010231522FFF7DCFD00283FF49EAE5AE72E
:10912000A96A00293ED04FF000094B464FF0160ABD
:109130002BE02388F054238801339BB2238006F868
:1091400003A0238801339BB2238031F82220F254FC
:109150003344120A5A702088023080B22080B8F856
:10916000042030444AB1D8F80810D9B106F078FC90
:10917000B8F8042023881344238095F82C205FFA44
:1091800089F39A427FF6E9AEA96A03EB430201EB49
:10919000820809F10109B8F80430D81C0233FE2B0B
:1091A000C7D917E7072008B0BDE8F087012B08D022
:1091B0000822FDE6BDF818309F42F9D31F46092268
:1091C000F6E68F42F4D30F460822F1E675DF7047CA
:1091D00076DF70477ADF70477BDF704770B51B4DD5
:1091E0002B8884B2A34282B011D1194E297A327BE6
:1091F00091420ED3337C00222A72DBB9736933B1FA
:109200000022ADF806408DF8042001A8984702B06E
:1092100070BD184605F10A01FFF7D8FF28B11128E3
:10922000F5D0B369002BF1D1F1E72B7A01332B7222
:1092300002B070BD3B212046FFF7CAFF30F00803A3
:10924000DCD0B369002BD9D09847D7E79C24002005
:1092500080240020F0B50288122A83B003463ED055
:1092600015D8102A73D0112A0FD16C4C828823880C
:109270009A420AD1606803F0ABFE18B1684B9B6953
:1092800003B198474FF6FF73238003B0F0BD502A17
:10929000FBD1634DC188EA899142F6D1028A022A44
:1092A000F3D15E4C828826889642EED1123000F0CF
:1092B000A9F9002800F09C80637A002B40F09F8081
:1092C000D5E90113277A60683246002F18BF194686
:1092D00003F038FE0028D8D0AB693BBBD5E74F4C34
:1092E000828821889142D0D14089658985421FD8E2
:1092F000A58985421CD3E0899D8940F2F3139842E9
:1093000094BF031AC31AAB4212D800F2F310A8425A
:109310000ED3434B5B694FF480722281002BB4D093
:109320000122ADF806108DF8042001A89847ACE79B
:109330003B4D267A6068D5E90113002E18BF194607
:109340000023637203F0FEFD0028C5D19DE7C67BB4
:10935000012E9AD1314C21884FF6FF7291423FD1B4
:10936000304D8288228003CDC4F80A00C4F80E1064
:10937000598A608900258842257222D8A0898842AE
:109380001FD3E189988A40F2F313994294BF4B1A94
:10939000CB1A834215D801F2F311814211D3204D2B
:1093A0006672EB89002B7FF470AF6B69002B3FF482
:1093B0006CAF0121ADF806208DF8041001A8984784
:1093C00063E7174DEB8900216172002B7FF45DAFDD
:1093D0006068696803F0B6FD00283FF456AF7BE78C
:1093E0000F4B9B69002B3FF450AF042098474CE78C
:1093F000606803F0EDFD00283FF447AF6CE76B6950
:1094000000222272002B3FF440AF0122ADF806602B
:109410008DF8042001A8984737E700BF9C2400205E
:1094200080240020B024002070B3F8B5054606461D
:109430000FCD164F3C460FC4844695E80700144DE7
:109440003D6084E80700BCF1000F17D06046FFF7CD
:10945000C1FE90B933681868596803C50D4B0E49B1
:109460000E4A18464FF6FF7440F8041F1C80002176
:1094700003F05AFD002818BF0320F8BD2846FFF767
:10948000ABFE0028EAD0F8BD0E20704780240020F3
:10949000B02400209C240020B8240020DD9102008C
:1094A0002DE9F04703888788103B98B004460A2BC3
:1094B0001CD8DFE803F030291B1B1B1B1B1B1B1ECA
:1094C0000600037A46483F2B4FEA1314394667D803
:1094D00003F0DEFF032C65D04248394603F0D8FF85
:1094E000022C63D04048394603F0D2FF18B0BDE8E3
:1094F000F087037A002BF9D1437A39481B073946A4
:109500006BD503F0BBFFF1E73848394603F0C0FFE5
:1095100018B0BDE8F087364A9368DB430093516882
:10952000684603F0E5FF009B0193019B83B300268F
:109530003546294601A803F0B5FF28B118AB03EB67
:109540004603013623F8285C0135142DF1D10D9620
:109550000DF1340CBCE80F0002AD0FC5BCE80F00E4
:109560000FC59CE8070085E807008EB10DF10A08D9
:10957000DFF888A008EB460638F8029F1D4D284604
:109580004946043503F084FFAA45F8D1B045F3D12C
:10959000132F12D9042003F0B1FA18B0BDE8F087F8
:1095A00003F06CFF0F48394603F068FF0E48394658
:1095B00003F064FF18B0BDE8F0870C48394603F0AB
:1095C0005DFF0C48394603F059FFE37B022B8DD138
:1095D0000948394603F052FF88E703F059FF85E751
:1095E000F0240020EC240020E8240020E0240020C7
:1095F000D8240020DC240020E4240020542500206E
:10960000AADF7047007800F001007047F0B58B7852
:1096100091B0012B0C460988ADF80C1038BF01231E
:10962000054616466846032200218DF80E3006F0E6
:1096300025FA637C0022013B8DF80020042B09D819
:10964000DFE813F0CF00D300D700DB0005002223B2
:109650008DF80030A37C0022013B8DF80120042B03
:1096600009D8DFE813F0CE00D200D600DA000500FA
:1096700022238DF80130E77B237B207C217D9DF820
:10968000022043EAC70343EA001322F0190200292B
:1096900003F0190343EA020314BF0222012262F31A
:1096A000420309A81C2200218DF8023006F0E6F9D9
:1096B000637B13F0300F73D1627BA37B8DF8242082
:1096C0000021142204A88DF8253006F0D7F9A368EC
:1096D000A288CDF814D003A90491ADF81C201BB1C9
:1096E000E2880893ADF81820A369002B36D001AFAB
:1096F00003220021384606F0C1F9A2691388ADF8AB
:109700002C305388ADF82E3051680D97137B0A9199
:10971000013B00218DF80410042B2DD8DFE803F065
:1097200095999D89290022238DF80530977A137A1F
:10973000D07A917B9DF8062043EAC70343EA0013E1
:1097400022F01902002903F0190343EA020314BFAF
:109750000222012262F342038DF80630E36903B16D
:109760000C93334604AA09A92846FFF749FF11B014
:10977000F0BD22238DF80430537B0021013B8DF88E
:109780000510042BD2D801A151F823F03B98020018
:1097900043980200239802002B98020027970200AA
:1097A00002AF03223846002106F068F9E37C00226C
:1097B000013B8DF80920042B07D8DFE803F0525E47
:1097C0005A56030022238DF809309DF80A300E976F
:1097D000012262F3420311228DF80A308DF808202D
:1097E0006AE711238DF8003034E721238DF800302B
:1097F00030E731238DF800302CE712238DF800304C
:1098000028E711238DF8013035E721238DF8013049
:1098100031E731238DF801302DE712238DF8013027
:1098200029E731238DF8053080E712238DF80530C4
:109830007CE712238DF804309EE711238DF8053064
:1098400074E721238DF8053070E711238DF804307B
:1098500092E721238DF804308EE731238DF8043010
:109860008AE711238DF80930AFE712238DF809300C
:10987000ABE731238DF80930A7E721238DF80930B4
:10988000A3E700BF90DF7047A5DF7047B5DF7047E3
:1098900070B5002384B0002460F30F0360F31F430E
:1098A0006A46204602A9CDE902340094ADF804408E
:1098B000FFF7E8FF054610B9284604B070BD124B0B
:1098C000124EF61AF60804F0DBFB360446F00106E9
:1098D00003460F492246304605F02EF8BDF8002019
:1098E000BDF8023052EA030103D00A49304605F0C0
:1098F00023F8BDF80420002ADED03046064904F0E3
:109900004DFF284604B070BD04320300243203002A
:1099100068FD0200B4FD0200F4FD020008B90E204B
:10992000704770B403460161074CC3F806404FF01E
:1099300016161B25002041F61B321E601D71588132
:109940009A8170BC704700BF160017008288002AF9
:1099500059D110B50388242B82B00C4611D80F2B97
:109960004FD9103B142B4CD8DFE803F060744B4BFD
:109970004B4B4B4B4B4B4B4B4B4B4B4B4B4B4B443E
:109980004E003A2B6FD0552B3BD1C388C988A272A9
:10999000172B38BF17238B4228BF0B461046238155
:1099A000FFF774FF00287DD1E37A53BB236943B3EB
:1099B0002289ADF8042040F67721009120466946BF
:1099C0009847A37AA3B1E1880020FFF75DFF002844
:1099D00061D011280CD004F053FB494B4949024691
:1099E00049481B1ADB081B0443F0010004F0D6FEB3
:1099F00002B010BD007A0B7B984228BF1846FFF7D3
:109A000047FFA37ADEE770470B69027A4A73002B9F
:109A1000F7D000204DF67A218DF8050000918DF8E1
:109A20000420694620469847A37ACBE70B790B734D
:109A3000C27B012A44D0022A32D14988E18022899E
:109A40008A4240D3627B9A42DBD21846FFF720FF5E
:109A5000A37AB7E72D4BC1F80630002241F61B333D
:109A60004A818B81C4E74389C98822698B4228BF18
:109A70000B46172B38BF172323814AB1E17A39B13E
:109A800040F677210091ADF80430694620469047B2
:109A900000236381ACE74FF48073638102B010BD93
:109AA000C988CCE704F0ECFA154B19490246164870
:109AB0001B1ADB081B0443F0010004F06FFE73E780
:109AC0000988E180BBE70020FFF7DEFE18B901231B
:109AD000E372237BB6E7112803D10123A372237B12
:109AE000B0E704F0CDFA064B0649024606481B1AB9
:109AF000DB081B0443F0010004F050FE237BA1E7C8
:109B0000243203004CFE020004320300160017004A
:109B100080FE0200B0DF704766DF704760B159B168
:109B20000378DE2B0AD00B684360DE224FF6FF730A
:109B300002704380002070470E2070470820704755
:109B400038B10378DE2B02D1418000207047082015
:109B500070470E20704700BF19B330B5054685B079
:109B600018B10B78DE2B0C4601D005B030BD8088D3
:109B70004B889842F9D10B7A002B32D12B88112BCC
:109B80004BD0512B12D0012BEFD12B7A012BECD1E2
:109B9000012525720021FFF7BFFF002851D1207257
:109BA000E3E77047A88863888342DED1AB79022B54
:109BB000DBD1AA7B02F0FD01042935D0052AD4D1DE
:109BC00000226946C1E902224A600092ADF80420F1
:109BD0008DF80030FFF79EFF0028C6D063689847D5
:109BE000C3E70021FFF798FF0346D8B1112818D02A
:109BF000636898472B88112B0BD0512BD2D0012BA7
:109C0000B3D12B7AAA88012BAFD160889042ACD116
:109C1000BEE7AA8863889A42A7D14FF6FF73638094
:109C2000A3E701232372E5E7694600224FF4C075DC
:109C30004A600092C1E902228DF80030ADF804506C
:109C4000C8E71128CAD125728FE700BFA8DF704787
:109C5000AEDF704762DF70470288502A00D070473D
:109C600010B44A88C488944202D05DF8044B70470F
:109C70004B69002BF9D000F112025DF8044B80888B
:109C8000184700BFF0B5324B04460D460FCB2D6888
:109C900065618FB002AD85E80F00284604F112011E
:109CA000FFF7D8FF08B10FB0F0BDA37C8DF80630E8
:109CB000224641F2235301A90120ADF80430FFF7F9
:109CC000C5FF0028EFD10146202206A805F0D6FEE8
:109CD0009DF82530A17C8DF81A10224623F012033E
:109CE000012543F0120341F224574FF0141632F8C5
:109CF0000A0B8DF8253006A9ADF8187007968DF877
:109D000029508DF82B50FFF781FC0028CBD101465C
:109D1000202206A805F0B2FE9DF82530A77C079604
:109D2000224623F00A0343F00A0332F8020B8DF8AF
:109D3000295006A941F225548DF82A508DF8253076
:109D40008DF81A70ADF81840FFF760FC0FB0F0BD49
:109D5000C0FE020070B50D4688B0134604460126C9
:109D600004A8102200218DF80730ADF80E6005F030
:109D700085FE6B89ADF810300DF107020DF10E0371
:109D8000204604A9CDE906328DF81260FFF760FF86
:109D900008B070BD42DF704743DF704710B568B947
:109DA0000E4CA368012262703BB1D3E9002300206E
:109DB000A2609847A368002BF7D110BD0128FCD101
:109DC000064C2369A070002BF7D0D3E900230120B3
:109DD000226198472369002BF7D110BD542500203C
:109DE00070B910B5074CA368012262703BB1D3E98A
:109DF00000230020A2609847A368002BF7D110BD74
:109E0000704700BF5425002030B5012883B004D02E
:109E1000032821D0B0B103B030BD294C00230DF18F
:109E200007008DF8073003F0F5F823786BB3E3688B
:109E30009DF8070001330122E360A27003F010F9DE
:109E400003B030BD1F4B0122C3F88020BFF34F8FFA
:109E5000BFF36F8F03B030BD194C00F0ABF9002396
:109E60000DF107008DF8073003F0D4F8E368013BEB
:109E7000E360E3681BB9144BD3F80054C5B19DF8F7
:109E8000070003F0EDF803B030BD10486360A36035
:109E90002361E36000F082F905F02AF960B10A4A13
:109EA00001232370D2F80024002AC0D0A370BEE79B
:109EB00000F096F9A570E2E700F07CF9EFE700BF4B
:109EC0005425002000E100E0000001409D9D0200BB
:109ED00038B50E4C237843B185250D4BD3F80034AB
:109EE0000BB10123A370284638BD0A486360A36004
:109EF0002361E36000F052F9054605F0F9F810B16E
:109F000001232370E9E700F055F9F9E75425002013
:109F1000000001409D9D020030B51D4D6B7883B05F
:109F200004469BB110B143680020984700230DF10F
:109F300007008DF8073003F06DF86B689DF8070097
:109F400001336B6003F08CF803B030BD03F0FF0207
:109F50000DF107008DF8072003F05CF864B1AA68E2
:109F600042B1944208D0134601E09C4204D01B68E1
:109F7000002BFAD12260AC606B68002BDDD105F0BC
:109F8000B7F810B900F048F9D7E7FFF703FFD4E7B7
:109F90005425002070B5154C82B000230DF1070048
:109FA0008DF8073003F036F86368013B636065683D
:109FB0002DB19DF8070003F053F802B070BD05F015
:109FC00097F8064640B900F039F99DF80700667029
:109FD00003F046F802B070BDFFF7DEFE9DF8070003
:109FE000657003F03DF802B070BD00BF542500203D
:109FF00030B587B0057844688DF8045002948568C0
:10A00000084A094B8DF80C50D0E9034053F8213031
:10A010008DF8140052F82110049401A8984707B055
:10A0200030BD00BF68250020782500202DE9F04FC5
:10A030001A4EDFF86CE0DFF86C90DFF86CA00C468D
:10A04000154607469B4696E80F0087B002AE86E8A5
:10A050000F0017F804CB23680193002D4EF82C5005
:10A0600094F8058094F804E04AF82CB0314608BF13
:10A070002A46019EA568A4890296384618BF4A461A
:10A0800063468DF80DE08DF80E800495ADF8144010
:10A0900001F0C0F807B0BDE8F08F00BFD8FE0200A5
:10A0A00078250020F19F02006825002030B585B09A
:10A0B000047845688DF80040D0E90240064A074B15
:10A0C000039053F82130019552F821108DF8084083
:10A0D0006846984705B030BD8825002090250020AF
:10A0E00030B585B0047845688DF80040D0E902406D
:10A0F000064A074B039053F82130019552F821107E
:10A100008DF808406846984705B030BD8825002086
:10A11000902500202DE9F047DFF8748090F800E0EA
:10A120004B7F08F80E300D46074616460FCD88B017
:10A130006C460FC495E80F003D78DFF85890DFF8C3
:10A1400058C018F8055049F82E6084E80F004CF804
:10A150002E00CDF810E05DB1002E0B4A694607F1E4
:10A16000040008BF324602F091F808B0BDE8F0875D
:10A17000002E064A694607F10C0008BF324601F07E
:10A1800045FD08B0BDE8F087ADA00200E1A00200E7
:10A19000083000209025002088250020044A1379EB
:10A1A00023B90121106091801846704785207047BF
:10A1B00098250020084B1A68D20704D4E02283F8BF
:10A1C000002301221A60054A4FF080410123C1F8A3
:10A1D00018351370704700BF00E100E00A3000201E
:10A1E00010B40B4B0B494FF0804200200224C2F800
:10A1F000084383B018601B680193012301980B602A
:10A20000D2F81834DB03FBD403B05DF8044B70477D
:10A21000040100400C000040074B00221A6082B08D
:10A220001B68019301994FF080430122C3F8042376
:10A230001A6002B0704700BF0001004010B40E4920
:10A240000E484FF0804201230024C2F8083383B047
:10A250000C600968019101990360D2F80C3403F095
:10A260000113B3F1011FF8D0054B00225A7103B05E
:10A270005DF8044B704700BF00010040040000403F
:10A2800098250020F0B5254C94F85B3083B0002B66
:10A2900041D14FF6FF70FF255A09012A0CBF024633
:10A2A0004FF0FF3203F01F01CA40D20748BFE21847
:10A2B00003F1010348BF82F82450302BECD14FF05A
:10A2C000FF334FF0FF364FF0FF37062200211448CE
:10A2D0002362C4E9003384F85430C4E90267C4E956
:10A2E0000467C4E9066705F0C9FB0E4BE02283F85A
:10A2F000062340221A600C4B0C4A002018601B6891
:10A300000193019D01214FF0004384F85B10C2F8D6
:10A31000043303B0F0BD082003B0F0BDA025002039
:10A32000F525002000E100E07C6100400060004075
:10A33000034B93F85B00003818BF0120704700BF43
:10A34000A0250020F0B4544B1C1894F92450002D83
:10A3500068DA8D78AF071DD51D68013500F096804D
:10A360005C6801347ED09C68013400F08380DC6836
:10A37000013400F081801C6901347FD05C690134B4
:10A380007ED09C6901347DD0DC6901347CD004200E
:10A39000F0BC70471D6A0135F9D1082584F82450B6
:10A3A0001A6283F854002C468A7855071AD4D607C7
:10A3B00047D41F284D7887BF384E00F01F02024651
:10A3C0004FF0A04602F5E072AD0046F82250344E40
:10A3D000C50800F0070C775D012202FA0CF23A433F
:10A3E00072558A7812F002021FD0A30003F1804355
:10A3F00003F5C0430978D3F8104524F44F3424F40E
:10A400004074C3F8104502020904D3F8100501F4A2
:10A41000403102F47C520A430243C3F81025002065
:10A42000F0BC70470820F0BC7047083C2344087813
:10A4300093F8541041EA801183F854101046F0BC90
:10A4400070471F2887BF154A00F01F0505464FF0CB
:10A45000A04202EB8502D2F8005725F00205C2F8AF
:10A460000057B4E701241D1843F8242064B285F88E
:10A47000244099E70224F6E70324F4E70424F2E7F2
:10A480000524F0E70624EEE70724ECE7002584F82E
:10A4900024501A602C4687E7A025002000030050B6
:10A4A000F525002070B4324C251883B095F924307E
:10A4B000072B22DD234493F84C309B09032B46D015
:10A4C000012B0CBF4FF400324FF440321F288ABFDB
:10A4D000284B4FF0A04300F01F0003EB8000D0F8A2
:10A4E000003723F44033C0F80037D0F800371A4360
:10A4F000C0F8002703B070BC7047DAB2072AF9D859
:10A50000980000F1804000F5C04003F14002920045
:10A51000D0F8106592B202F1804202F5C04246F0D6
:10A520000106C0F810650020106012680192019ABF
:10A530000029DFD095F9242054F82220002AD9D010
:10A540000D49012202FA03F3C1F80433D2E71F28B0
:10A550008ABF084A4FF0A04200F01F03D2F810252E
:10A5600098BF0346DA4002F0010202321204ADE75E
:10A57000A02500200003005000600040194B034458
:10A5800093F92430072B13DD1F288ABF164B4FF099
:10A59000A04300F01F0003EB8000D0F8003723F445
:10A5A0004033C0F80037D0F80037C0F800377047A4
:10A5B000DAB2072A14D810B49A0002F1804202F5E8
:10A5C000C0420A4CD2F81005012120F0010001FA26
:10A5D00003F3C2F81005C4F808335DF8044B704764
:10A5E000704700BFA025002000030050006000401D
:10A5F0001F288ABF054B4FF0A04300F01F00D3F87F
:10A60000103523FA00F000F00100704700030050FD
:10A610002DE9F047002384B0CDE902339B4A11684D
:10A62000012900F027811E46994B1A68012A00F083
:10A630001381984B1A68012A00F00081964B1A6822
:10A64000012A00F0ED80954B1A68012A00F0DA80AB
:10A65000934B1A68012A00F0C780924B1A68012AAE
:10A6600000F0B480904B1A68012A00F0A1808F4B53
:10A670001A68012A03D0C6B904B0BDE8F0870022E9
:10A680001A601B6801934FF0A042019BD2F820157D
:10A69000874B0291C2F82015D3F82025039246F08B
:10A6A0000041C3F82025EEB10E46824F012500245B
:10A6B000A30003F18043354203F5C0434FEA45054B
:10A6C0000BD0D3F8100557F82420D3F81015C0F399
:10A6D0000520C1F3014102B190470134082CE7D1B4
:10A6E000002EC9DA734E724C01274FF0A04596F93F
:10A6F0005400431C45D0C0F3C20204AB1A4400F01E
:10A70000070312F8082C07FA03F31A42C1B200F04B
:10A710003F0036D01F2887BF01F01F02A146024626
:10A720004FF0A04909EB820306EB000ED3F800C7F7
:10A73000D3F8008728F44038C3F80087CCF3014CE5
:10A740009EF92480D3F800E756F82880BCF1020F68
:10A750000CBF4FF4403A4FF4003A07FA02F24EEAC7
:10A760000A0EC3F800E7C9F82025B8F1000F08D099
:10A770008909032916D0BCF1020F15D0BCF1030FD3
:10A780000ED0D5F820250292C5F82025D4F8203522
:10A790000393C4F820351343A9D104B0BDE8F08772
:10A7A0000229EED1C047ECE70129EAD1C047E8E72A
:10A7B000414AD2F8042312067FF559AF00221A60ED
:10A7C0001B680093009B46F0800650E73A4AD2F897
:10A7D000042351067FF546AF00221A601B680093E0
:10A7E000009B46F040063DE7334AD2F8042390062A
:10A7F0007FF533AF00221A601B680093009B46F080
:10A8000020062AE72C4AD2F80423D4067FF520AF8D
:10A8100000221A601B680093009B46F0100617E7A1
:10A82000254AD2F8042315077FF50DAF00221A60E0
:10A830001B680093009B46F0080604E71E4AD2F806
:10A84000042357077FF5FAAE00221A601B680093B5
:10A85000009B46F00406F1E6174AD2F8042392075B
:10A860007FF5E7AE00221A601B680093009B46F05C
:10A870000206DEE61049D1F8046316F001063FF443
:10A88000D3AE136013680093009BCDE600610040D7
:10A8900004610040086100400C610040106100400C
:10A8A00014610040186100401C6100407C61004060
:10A8B00000030050A02500200060004070B5294B27
:10A8C00086B01A7A8DF8070052B99DF80720032A3E
:10A8D0001FD09DF80720012AD4B229D0022C01D024
:10A8E00006B070BD204D6A7A02F0FF01002AF7D150
:10A8F00001261E811B48997200F096FF194800F04E
:10A9000077FF6B686E720294002BE9D002A898471B
:10A91000E6E7164AD2F83C2412F0030F14BF0222D5
:10A9200001228DF807209DF80720012AD4B2D5D145
:10A930000D4B5A7A002AD3D00D480C4A596804604E
:10A940004FF48F60C2F80803002504244FF48050B0
:10A950005D720294C2F808050029C1D002A8884798
:10A96000BEE700BF24230020002600200050004046
:10A9700008500040B0F5A07F00D0704738B5104CAB
:10A9800001252046A57200F041FF0E4B1A7822B92E
:10A99000627A0AB1A27A42B938BD00221A702272D4
:10A9A0000320BDE83840FFF789BF074A20461560FD
:10A9B0001D7000F039FF2046BDE8384000F018BF98
:10A9C00024230020FC25002000500040F0B5404C1E
:10A9D000257A85B0002D76D103C83E4E3E4A84E8E4
:10A9E00003000323C6F80C35D6F8A03523F01F0367
:10A9F00043F00403C6F8A0352021E023C2F88011FB
:10AA000082F805331160354E0295042007238DF836
:10AA10000800334A039502A930468DF80B3000F048
:10AA200069FE054610B1284605B0F0BD3368D3F87D
:10AA300010254FF47A510123D2B2304621FA02F2A6
:10AA40000093294600F0F4FE4FF08053D3F85024D1
:10AA5000D3F85414D3F858340E0C0B0A1B043602E6
:10AA60005FFA81FE100A4FEA124CB6B203F47F037C
:10AA700012040F0EBEF1880F43EA06035FFA8CFC46
:10AA800002F47F024FEA0020124E14BF09064FF075
:10AA900019413B4342EA0C0280B20B430243C6F821
:10AAA0009425C6F89035D6F8A03523F0C00343F0BE
:10AAB000400301214FF480522846C6F8A035217288
:10AAC000E26005B0F0BD0825284605B0F0BD00BF26
:10AAD000002600200050004000E100E02423002078
:10AAE00075A9020010B4074B074C08480122042145
:10AAF000C3F804242260C3F80403C3F804135DF808
:10AB0000044B70470050004008500040820008008D
:10AB10000288094B40680949C3F81005C2F30802CE
:10AB2000C3F814250A68064902F48C620120C3F8B0
:10AB300004230860704700BF00500040002600203A
:10AB40001C5000400368F3B110B4104A4468C2F8C6
:10AB50001045C3F30803C2F8143503680C480D4CC4
:10AB6000DB00C3F30B039BB2C2F81C35C2F80C1513
:10AB70000368012103F01803C2F8043321600020A8
:10AB80005DF8044B70470920704700BF005000403B
:10AB9000002600200C500040034630B100F18040F8
:10ABA00000F5A04001230360704710B50D4A0E4C1C
:10ABB00010780121617210B9A37A3BB910BD1370EE
:10ABC00023720320BDE81040FFF778BE074B2046F4
:10ABD0001960117000F028FE2046BDE8104000F01A
:10ABE00007BE00BFFC2500202423002000500040A9
:10ABF00029280FD000F1804000F5A0400123036018
:10AC0000094B4FF480514FF48F62C3F80815C3F815
:10AC100008237047044BD3F82034DB074CBF034BA9
:10AC2000034B01221A60EBE700500040285000401F
:10AC300024500040042970B4034624D0072901D0D1
:10AC40000A2939D14FF080540A29D4F85004D4F895
:10AC50005424D4F8585418704FEA10264FEA104084
:10AC6000D4B25E7098704FEA12264FEA12404FEA53
:10AC70001262DC701E7158719A7115D0882C1ED02A
:10AC8000002070BC70474FF080510020D1F8502454
:10AC9000D1F85444D1F858141A70110A120C597092
:10ACA0009A70DC7070BC7047290A2A0CDD71197229
:10ACB0005A72002070BC7047092070BC70479922FE
:10ACC000DA70002070BC704730B57C4B1A6885B0D4
:10ACD000BAB17B4AD2F804138C0712D5002119604F
:10ACE000BFF34F8F58680433002800F0E480D2F897
:10ACF0000423500740F1DF801960BFF34F8F03201A
:10AD00004BE0704B1A68002A3DD16F4B1A6822B194
:10AD10006B4AD2F804134D0671D46C4B1A6822B1F9
:10AD2000674AD2F80413C90656D4694B1A682AB187
:10AD3000634AD2F804130D0300F19180654B1A6841
:10AD400022B15F49D1F80423140629D4624B1A6852
:10AD5000BAB15B4AD2F80413090712D50021196071
:10AD6000BFF34F8F5D4B596859B108230093D2F858
:10AD700010350293D2F81C35C3F3C803019368461B
:10AD8000884705B030BD4E4AD2F804235207BCD5DF
:10AD900000221A60BFF34F8F0120FFF78FFDB4E749
:10ADA0000022D1F804041A60BFF34F8F8023C0073C
:10ADB000CDE90032CDE9022209D5484B5B6801207C
:10ADC000C1F804048DF804200BB1684698473C4B49
:10ADD0000122C3F80424B9E700211960BFF34F8FA3
:10ADE0003E4B01915B68029110241820009403915E
:10ADF000C2F80803002B98D06846984795E70020D2
:10AE00001860BFF34F8F40240025CDE90045D2F8EC
:10AE100010350393D2F824353149C3F30B03103BAB
:10AE2000C3F3CC0302930B6873B1D2F804335C050F
:10AE30000AD5D2F80C3403F00D0301930860BFF378
:10AE40004F8F0D23C2F80C34244B5B680BB168465E
:10AE50009847214B00221A60BFF34F8F5DE7002116
:10AE60001960BFF34F8F343B1960BFF34F8F10331E
:10AE70001960BFF34F8F1C3B1960BFF34F8F5960B0
:10AE8000BFF34F8F1548C3684468C3F31303C2F878
:10AE900008350D2501204FF40023C2F80C54C2F8E8
:10AEA0000404CDE90031CDE90211002C3FF446AF96
:10AEB0006846A04742E702206FE700BF0451004008
:10AEC000005000400851004018510040105100400F
:10AED0004C5100401C5100400C5100400026002005
:10AEE00028510040014B1B68184700BF1026002066
:10AEF000014B1B68184700BF18260020014B1B6838
:10AF0000184700BF20260020014B1B68184700BFD0
:10AF100028260020014B1B68184700BF3026002060
:10AF200070B51D4B984282B00C462ED0B0F1402F28
:10AF30002DD003F5003398422BD0A3F580339842EF
:10AF400021D0A3F58833984202D0002002B070BD12
:10AF5000124E00230DF107008DF8073002F05AF869
:10AF6000357935B19DF8070002F07AF8112002B06A
:10AF700070BD01239DF807003460337102F070F852
:10AF8000284602B070BD064EE3E7064EE1E7064EE6
:10AF9000DFE7064EDDE700BF00300040302600202E
:10AFA0002826002010260020182600202026002019
:10AFB000144B984216D0B0F1402F18D003F500334F
:10AFC000984219D0A3F58033984209D0A3F588336D
:10AFD000984200D070470C4B00221A601A717047DB
:10AFE0000A4BF9E70A4B00221A601A717047094BA5
:10AFF00000221A601A717047074B00221A601A71FA
:10B00000704700BF00300040302600202826002076
:10B01000102600201826002020260020194BD3F8E7
:10B02000182102B970470021174AC3F81811D3F844
:10B030001811D37F82B0FF2B019101990DD0917F20
:10B0400099B11F2B8ABF11484FF0A04003F01F0396
:10B05000012101FA03F3C0F80C3500235377137272
:10B06000D2E900310A4802B018471F2B8ABF0748AF
:10B070004FF0A04003F01F03012101FA03F3C0F8D1
:10B080000835EAE700300040382600200003005071
:10B09000402600204FF04023D3F8182102B9704712
:10B0A0000021194AC3F81811D3F8181192F8433047
:10B0B00082B0FF2B019101990ED092F84210A9B1F4
:10B0C0001F2B8ABF11484FF0A04003F01F0301213E
:10B0D00001FA03F3C0F80C35002382F8413082F8FE
:10B0E0002C30D2E909310A4802B018471F2B8ABF19
:10B0F00006484FF0A04003F01F03012101FA03F3BB
:10B10000C0F80835E8E700BF3826002000030050EB
:10B11000642600201B4BD3F8182102B97047002188
:10B12000194AC3F81811D3F8181192F88B3082B06D
:10B13000FF2B019101990ED092F88A10A9B11F2B13
:10B140008ABF12484FF0A04003F01F03012101FA0B
:10B1500003F3C0F80C35002382F8893082F874308C
:10B16000D2E91B310A4802B018471F2B8ABF074893
:10B170004FF0A04003F01F03012101FA03F3C0F8D0
:10B180000835E8E700F002403826002000030050B0
:10B19000AC2600201B4BD3F8182102B970470021C0
:10B1A000194AC3F81811D3F8181192F8673082B011
:10B1B000FF2B019101990ED092F86610A9B11F2BB7
:10B1C0008ABF12484FF0A04003F01F03012101FA8B
:10B1D00003F3C0F80C35002382F8653082F8503054
:10B1E000D2E912310A4802B018471F2B8ABF07481C
:10B1F0004FF0A04003F01F03012101FA03F3C0F850
:10B200000835E8E7003002403826002000030050EF
:10B21000882600202DE9F04F0579954F05EBC509EB
:10B2200007EB890B83B006469BF81C0001939246FE
:10B23000EA000092002840F0EC80D6F800800C462E
:10B240008C49404651F82510FFF76AFE002840F06F
:10B2500001814FEA8909019B47F809A0CBF8043026
:10B26000237B2178009A012B40F2C6801F2986BFDC
:10B27000DFF804C201F01F014FF0A04C01238B4006
:10B28000CCF8083523781F2B86BF03F01F037A49BB
:10B290004FF0A04103F5E0734FF0010C41F823C0DB
:10B2A0006378FF2B00F0CB801F2B8BBF03F01F0EAA
:10B2B0009E46DFF8C4C14FF0A04C0EF5E0790121A5
:10B2C00001FA0EF14FF0030ECCF80C154CF829E002
:10B2D000A178FF2900F0B0801F298E4694BF7146E7
:10B2E00001F01F0101F5E0718CBFDFF88CC14FF058
:10B2F000A04C4FF004094CF82190A17802EB050C0A
:10B3000007EB8C0C8CF82010E1788CF81F10FF29CB
:10B3100028D094F804C0BCF1000F7ED11F298ABF49
:10B32000DFF854C14FF0A04C01F01F014FF00109AC
:10B3300009FA01F1CCF80815E1781F2986BF01F060
:10B340001F01DFF834C14FF0A04C01F5E0714FF060
:10B3500003094CF82190511907EB810194F804C0BE
:10B3600081F81EC02178C8F80815C8F80C35C8F84F
:10B3700010E5A368C8F82435637B217B003B18BF28
:10B380000123022970D003296BD0012966D0C8F8A7
:10B390005435A379C8F8C0350723C8F80035BAF189
:10B3A000000F1FD03168637941F30734002C4FEA56
:10B3B000113147DB04F1604404F561445B01DBB209
:10B3C00084F80033336843F3073100294FEA13331D
:10B3D00008DB2A4E0124490903F01F0304FA03F392
:10B3E00046F82130154407EB8507002201237A77C0
:10B3F0003B7703B0BDE8F08F1F2986BFDFF878C028
:10B4000001F01F014FF0A04C01238B40CCF80C350C
:10B4100038E7082003B0BDE8F08F1F298ABFDFF8A6
:10B4200058904FF0A04901F01F014FF0010C0CFAA9
:10B4300001F1C9F80C157FE74FF0FF3E5EE74FF0D2
:10B44000FF3345E70E4C01F00F015B010C44DBB20A
:10B450002376B7E7112003B0BDE8F08F43F0020375
:10B4600095E743F0060392E743F004038FE700BF3C
:10B4700038260020E8FE02000003005000E100E052
:10B48000FCEC00E0F8B504792E4D04EBC402920008
:10B49000E600AB58002B4ED0036843F30731002978
:10B4A0004FEA133711DB4909DFF8ACC02031012323
:10B4B00007F01F0703FA07F74CF82170BFF34F8F0F
:10B4C000BFF36F8FAA5803683AB132191E49C3F807
:10B4D000081305EB8202527F0ABB321905EB820288
:10B4E00092F82020FF2A0BD01F2A86BF02F01F02ED
:10B4F000164F4FF0A04702F5E072022147F82210E4
:10B50000134A00219342C3F8001516D03444006852
:10B5100005EB8404FFF74CFD00232377F8BD0122DF
:10B520005A61D3F80421002AFBD0321905EB8202BC
:10B5300000215177D1E70368CFE7064B01221A605B
:10B54000E4E700BF38260020520108000003005045
:10B5500000F0024004F0024000E100E02DE9F04775
:10B560000779DFF88CC107EBC7030CEB830686462F
:10B57000707F82B0002840F0A4809B000C465CF8ED
:10B58000033015464FEAC70823B112F0140F04BF69
:10B590000123737708EB07060CEB860694E80F008F
:10B5A00096F81FA006F10C09BAF1FF0F89E80F0009
:10B5B0000FD0B37F002B6CD0BAF11F0F8ABF4B4A5C
:10B5C0004FF0A0420AF01F0A012303FA0AF3C2F85F
:10B5D0000835226822B102F06043B3F1005F66D102
:10B5E000A36823B103F06043B3F1005F5FD1DEF8DD
:10B5F00000306168C3F84425C3F84815D4E9022136
:10B60000C3F834250022C3F83815C3F81821D3F83D
:10B6100018210192019A15F0010218BF0122C3F806
:10B62000502515F0020218BF0122C3F840252A0751
:10B630005CBF01221A6108EB07025CF8222062B1AC
:10B6400015F004004FF040021ABFC3F80823002091
:10B65000C3F8042302B0BDE8F087D3F81821002A0C
:10B66000FBD047440CEB870C9CF81F30FF2B3AD0E3
:10B670009CF81E204AB31F2B8ABF1C494FF0A041E3
:10B6800003F01F03012202FA03F3C1F80C35002076
:10B69000E0E7BAF11F0F8ABF144A4FF0A0420AF048
:10B6A0001F0A012303FA0AF3C2F80C3591E7474455
:10B6B0000CEB870C002310208CF81D3002B0BDE885
:10B6C000F087112002B0BDE8F0871F2B8ABF074921
:10B6D0004FF0A04103F01F03012202FA03F3C1F867
:10B6E00008350020B6E70020B4E700BF0003005093
:10B6F00038260020F0B507793A4E07EB470406EBF1
:10B70000840583B02B7A002B68D1A4004FEA470C44
:10B7100032514A686A6042797AB11A461D469B00E6
:10B72000046803F5A0730132E550E35844790193AE
:10B73000D3B29C42DDF804E0F1D80268CB7842F342
:10B740000734002C4FEA123240DB04F1604404F568
:10B7500061445B01DBB284F80033026842F30733D3
:10B76000002B4FEA123409DB1F4D01225B0904F064
:10B770001F0402FA04F445F823400268D2F8044595
:10B780004B7824F0030403F003032343C2F8043589
:10B7900004688B78D4F8082503F0030322F0030231
:10B7A0001343C4F8083500680B78D0F810256744B7
:10B7B00022F00F0203F00F0306EB8706134301216B
:10B7C000C0F810350020317203B0F0BD074C02F014
:10B7D0000F025B011444DBB22376BEE7082003B0FE
:10B7E000F0BD00BFC826002000E100E0FCEC00E056
:10B7F0000368054A01211960037903EB430302EB57
:10B80000830302221A727047C82600200368054A83
:10B8100001211961037903EB430302EB83031972DE
:10B82000704700BFC826002003680122DA60704715
:10B83000F0B4076840F20115D7F800428D4024EAC1
:10B840000504C7F80042056882B0D5F800429DF8AB
:10B85000186023434FF48034C5F800328C409EB109
:10B860008B00056803F5A0730026EE50ED580368C1
:10B870000195019DC3F80443036801F5A87143F8DD
:10B88000212002B0F0BC70470368C3F80843F3E717
:10B890002DE9F041114CDFF84C80114E82B00025AB
:10B8A0004FF48037236807FA05F101357BB1D8F8EA
:10B8B0000423A4F5004011424FF0000380B206D0EB
:10B8C000236023680193D6E90031019A9847042D3B
:10B8D00004F10404E6D102B0BDE8F08140810040EB
:10B8E000C8260020008000402DE9F041114CDFF80F
:10B8F0004C80114E82B000254FF48037236807FA40
:10B9000005F101357BB1D8F8042304F5E04011427C
:10B910004FF0000380B206D0236023680193D6E97C
:10B920000331019A9847042D04F10404E6D102B0D2
:10B93000BDE8F08140910040C82600200090004002
:10B940002DE9F041114CDFF84C80114E82B00025FA
:10B950004FF48037236807FA05F101357BB1D8F839
:10B96000042304F5C04011424FF0000380B206D01A
:10B97000236023680193D6E90631019A9847042D84
:10B9800004F10404E6D102B0BDE8F08140A100401A
:10B99000C826002000A000402DE9F041114CDFF83E
:10B9A0004C80114E82B000254FF48037236807FA8F
:10B9B00005F101357BB1D8F8042304F5C0401142EC
:10B9C0004FF0000380B206D0236023680193D6E9CC
:10B9D0000931019A9847062D04F10404E6D102B01A
:10B9E000BDE8F08140A10140C826002000A0014030
:10B9F0002DE9F041114CDFF84C80114E82B000254A
:10BA00004FF48037236807FA05F101357BB1D8F888
:10BA1000042304F5A04011424FF0000380B206D089
:10BA2000236023680193D6E90C31019A9847062DCB
:10BA300004F10404E6D102B0BDE8F08140B1014058
:10BA4000C826002000B0014030B56E4AD2F8043359
:10BA500099058BB068D5D2F82431002B64D000232F
:10BA6000C2F82431D2F8243101934FF40171664BAE
:10BA70000198C2F8081393F8291009B901215160FF
:10BA8000604902228DF81820D1F88024C1F8802462
:10BA90009869D968099200240025CDE90710C3E907
:10BAA0000645D3E9001206A89047564AD2F81C3141
:10BAB000C3B1554B5869196A88426AD993F828105E
:10BAC00001F0FF00002964D1C2F81C01D2F81C115A
:10BAD000039103999C68186A196A205C0131196204
:10BAE000C2F81C05474AD2F84431DBB10021464B6D
:10BAF000C2F84411D2F8440193F82910009000983C
:10BB000009B1012111609A6962B1586AD9680022AD
:10BB10009A610122CDE907108DF8182006A8D3E913
:10BB2000001290470BB030BD364AD2F804335B07A1
:10BB3000BBD5D2F80831002BB7D0334B9969002917
:10BB40003ED00021C2F80811D2F8081104910499DE
:10BB5000D868596AD2F8182542545A6A996901324C
:10BB60005A625A6A8A42A0D1DA69002A31D0DD6865
:10BB70005C6A18699A6101210022D860DA615A6210
:10BB80008DF81810CDE90754D3E9001206A89047A4
:10BB90008BE71C4A0021C2F81C11D2F81C2102922A
:10BBA000029A5A69002A9DD058699A688DF818102F
:10BBB00008905961079206A8D3E90012904791E7CF
:10BBC000C2F80811D2F8080105900598D2F8182596
:10BBD000C7E793F8292012B90A4A01215160094A9E
:10BBE0004FF40171C2F80813596ADA680891002409
:10BBF000012007928DF81800D3E900129C6106A875
:10BC0000904752E700200040082700202DE9F0412E
:10BC1000DFF8E48106792C2303FB068382B093F8D6
:10BC20002A30002B40F09E8005460C4600686D4986
:10BC30001746FFF775F9002840F090802368591CDB
:10BC400019D01F2B4FF001028ABF67494FF0A04166
:10BC500003F01F0302FA03F3C1F8083523681F2B12
:10BC600086BF03F01F03604A4FF0A04203F5E07364
:10BC7000032142F8231063685A1C0BD01F2B86BF88
:10BC800003F01F03584A4FF0A04203F5E073002170
:10BC900042F823102B68A269C3F82425217D637D17
:10BCA0002A680B43C2F86C35D4E900122B68C3F83C
:10BCB0001425C3F80C15237D012B5FD02C2303FB27
:10BCC00006F308EB03025760226948F803202A684C
:10BCD00097B30021237FC2F81C11D2F81C210092D7
:10BCE0002A68009FC2F84411D2F844112A680191D1
:10BCF0003E4C0199C2F804432A6842F307310029F7
:10BD00004FEA123232DB01F1604101F561415B0122
:10BD1000DBB281F800332A6842F30733002B4FEA85
:10BD2000123109DB324C01225B0901F01F0102FADA
:10BD300001F144F823102A682C2303FB0686012412
:10BD400000230421C2F80015C6E9063386F82A400C
:10BD500086F82930736102B0BDE8F081112002B08D
:10BD6000BDE8F081082002B0BDE8F081214902F071
:10BD70000F025B011144DBB20B76CCE7A368591CC0
:10BD80000BD01F2B86BF03F01F0317494FF0A041B4
:10BD900003F5E073002241F82320E3685A1C1AD00F
:10BDA0001F2B8ABF10494FF0A04103F01F0301224F
:10BDB00002FA03F3C1F80835E3681F2B88BF03F0CC
:10BDC0001F0303F5E0738CBF07494FF0A041032226
:10BDD00041F82320E3682A68A168C2F80835C2F850
:10BDE00010156BE749BA0200000300508000020002
:10BDF00000E100E0FCEC00E008270020F8B53E4F31
:10BE0000047902682C2303FB047300215B68C2F8E9
:10BE10000015C3B10368394AC3F80823036843F324
:10BE20000732002A4FEA13310EDB5209344D20321B
:10BE3000012301F01F0103FA01F145F82210BFF3BD
:10BE40004F8FBFF36F8F0368D3F80C65D3F8145589
:10BE5000D3F80825D3F810154FF0FF3CC3F814C5EC
:10BE6000C3F80CC503686645C3F808C5C3F810C518
:10BE70000CD01F2E86BF06F01F06224B4FF0A043AA
:10BE800006F5E0764FF0020C43F826C06E1C0BD08E
:10BE90001F2D86BF05F01F051A4B4FF0A04305F577
:10BEA000E075022643F825604D1C0BD01F2986BF84
:10BEB00001F01F01134B4FF0A04301F5E071022583
:10BEC00043F82150531C0BD01F2A86BF02F01F02DB
:10BED0000C4B4FF0A04302F5E072022143F8221010
:10BEE0000068FFF765F82C2303FB0474002384F833
:10BEF0002A306360F8BD00BF0827002084020200DA
:10BF000000E100E0000300502DE9F041314E0579D9
:10BF10002C2303FB05630446586984B000284CD1E8
:10BF20005A619960186283F828002268C2F81C01DF
:10BF3000D2F81C11226802910121029F91602268AF
:10BF4000D3F808C0C2F81C01D2F81C110191019964
:10BF50001F6A196A1CF8077001311962C2F81C7552
:10BF60005A6812B104B0BDE8F0815F691A6A2168AD
:10BF700097421BD9864602E093F828200ABBD1F8E5
:10BF80001C21002AF8D0C1F81CE1D1F81C21039231
:10BF9000039AD3F820801A6A1CF8088001321A62CA
:10BFA000C1F81C851A6A9742E9D82168D1F81C317A
:10BFB000002BFBD00123CB6004E0112004B0BDE8CE
:10BFC000F0810F202C2303FB056500236B6104B077
:10BFD000BDE8F0810827002030B5524BD3F824216A
:10BFE0008BB0002A71D00021C3F82411D3F824218A
:10BFF000049202228DF81820049AD3F880044A4A49
:10C00000C3F880040990D3F83C05136B0890C2E98B
:10C010000F11079306A8D2E909139847414BD3F8AB
:10C02000442152B1404A0021C3F84411D3F844419D
:10C03000D06B0394039C002838D13A4BD3F82021CD
:10C040005AB10021C3F82011D3F820210292012017
:10C05000354A029CD860906BD8B9324BD3F858213E
:10C06000AAB10021C3F85811D3F858012E4A019003
:10C070000198906B58B1D3F84C05D36A08908DF8AD
:10C0800018109163079306A8D2E9091398470BB0DB
:10C0900030BDD3F84C05D36A08908DF81810916321
:10C0A000079306A8D2E909139847D6E7D3F83C3599
:10C0B000106B08930123C2E90F1107908DF8183017
:10C0C00006A8D2E909139847B7E7D3F81011002959
:10C0D000A4D0C3F81021D3F8100113490590059896
:10C0E000CC6BD3F83C05A04298D10C6C5CB90A6BC0
:10C0F000CC63CDE9072001238DF81830D1E909136D
:10C1000006A898478AE7D3F80052CC630C6B0A6400
:10C1100025F020054A6BC3F80052CDE90740012302
:10C120000A63E9E7008002403427002030B5554B10
:10C13000D3F824218BB0002A71D00021C3F8241138
:10C14000D3F82421049202228DF81820049AD3F8FF
:10C1500080044D4AC3F880040990D3F83C05D368A5
:10C160000890C2E9061107931168536806A898471A
:10C17000444BD3F8442152B1434A0021C3F844113F
:10C18000D3F8444190690394039C002838D13D4B77
:10C19000D3F820215AB10021C3F82011D3F820216F
:10C1A00002920120384A029CD8605069D8B9354BB8
:10C1B000D3F85821AAB10021C3F85811D3F8580177
:10C1C000314A01900198506958B1D3F84C059368F1
:10C1D00008908DF818105161079306A8D2E9001352
:10C1E00098470BB030BDD3F84C05936808908DF894
:10C1F00018105161079306A8D2E900139847D6E7B3
:10C20000D3F83C35D06808930123C2E906110790A2
:10C210008DF8183006A8D2E900139847B7E7D3F88D
:10C2200010110029A4D0C3F81021D3F8101116481A
:10C23000059105998469D3F83C15A14298D1C46948
:10C24000A4B1D3F80052846125F02005C3F8005250
:10C25000D0E90343C26101220891C36001684368C9
:10C2600007948DF8182006A8984781E7C268846172
:10C270000123CDE907218DF81830D0E9001306A875
:10C28000984775E700200040342700202DE9F0434F
:10C290000679834F06EBC60307EB830387B093F859
:10C2A0002030002B40F0BB807E4B04460D460068DA
:10C2B00053F826109046FEF733FE002840F0AB807E
:10C2C0002B68591C4FEAC60919D01F2B4FF00102E9
:10C2D0008ABF75494FF0A04103F01F0302FA03F330
:10C2E000C1F808352B681F2B86BF03F01F036E4A69
:10C2F0004FF0A04203F5E073032142F823106B686E
:10C300005A1C0BD01F2B86BF03F01F03664A4FF049
:10C31000A04203F5E073002142F823102368AA69C4
:10C32000C3F82425297D6A7D23680A43C3F86C2558
:10C33000D5E900312268C2F80C35C2F814152B7DFE
:10C34000012B78D009EB060207EB8203C3F80480C7
:10C350002B6947F82230B8F1000F4BD021682B7FB2
:10C36000524D0022C1F81021D1F81011019121681D
:10C37000DDF804C0C1F82021D1F820110291216814
:10C38000DDF808C0C1F82421D1F8241103912168F7
:10C39000DDF80CC0C1F84421D1F8441104912168A2
:10C3A000DDF810C0C1F85821D1F858112268059164
:10C3B0000599C2F80453226842F3073100294FEA75
:10C3C000123230DB01F1604101F561415B01DBB20A
:10C3D00081F80033226842F30733002B4FEA123111
:10C3E00009DB334D01225B0901F01F0102FA01F163
:10C3F00045F8231022684E4407EB860700230124EA
:10C400000821C2F80015C7E9063387F820407B6190
:10C4100007B0BDE8F083112007B0BDE8F083082025
:10C4200007B0BDE8F083234902F00F025B0111441D
:10C43000DBB20B76CEE7AB68591C0BD01F2B86BF47
:10C4400003F01F0318494FF0A04103F5E0730022E9
:10C4500041F82320EB685A1C1AD01F2B8ABF1249BF
:10C460004FF0A04103F01F03012202FA03F3C1F8C9
:10C470000835EB681F2B88BF03F01F0303F5E0733B
:10C480008CBF09494FF0A041032241F82320EB68FB
:10C490002268A968C2F80835C2F8101552E700BF33
:10C4A00034270020F8FE0200000300501003420071
:10C4B00000E100E0FCEC00E02DE9F0410579564C8C
:10C4C00005EBC50304EB830301465B68006882B09B
:10C4D000EE00C3B1514BC0F808330B6843F3073289
:10C4E000002A4FEA13330EDB5209DFF838C120323D
:10C4F000012703F01F0307FA03F34CF82230BFF3C0
:10C500004F8FBFF36F8F721904EB8202D0F80032A5
:10C51000926923F02003C0F8003242B10023C0F832
:10C520004431D0F8443100930123009A4360002342
:10C53000C0F85831D0F8583101937319012204EB37
:10C540008303019FC2609A69D0F85831002BFBD059
:10C550001AB1D0F84431002BF6D00023C0F80035D2
:10C560000B684FF0FF38D3F80CE5D3F814C5D3F8B7
:10C570000825D3F81075C3F80C85C3F814850B682B
:10C58000C645C3F80885C3F810850CD0BEF11F0F4F
:10C5900086BF0EF01F0E22494FF0A0410EF5E07E3F
:10C5A000022341F82E30BCF1FF3F0CD0BCF11F0F2D
:10C5B00086BF0CF01F0C1A494FF0A0410CF5E07C2F
:10C5C000022341F82C30791C0BD01F2F86BF07F0B7
:10C5D0001F0713494FF0A04107F5E077022341F808
:10C5E0002730531C0BD01F2A86BF02F01F020C49B4
:10C5F0004FF0A04102F5E072022341F82230FEF72D
:10C60000D7FC354404EB8504002384F820306360B4
:10C6100002B0BDE8F08100BF3427002010034200C3
:10C620000003005000E100E0F0B401F06044B4F118
:10C63000005F82B02CD10579274E05EBC50406EBCF
:10C64000840403466069EF0000283ED16261A16066
:10C650001A68C2F82001D2F820C11A68CDF804C0C7
:10C66000DDF804C0C2F85801D2F8582100921A68C7
:10C67000DDF800C0D4F814C0C2F84415C2F848C5AB
:10C680001A6801219160626832B102B0F0BC704753
:10C69000102002B0F0BC70471A6800E0C8B9D2F8A8
:10C6A0002011D2F858010029F8D090B90121D160A9
:10C6B0001B68D3F85821002AFBD07B1906EB8303B3
:10C6C00000225A6102B0F0BC7047112002B0F0BCE9
:10C6D00070470F20F1E700BF3427002038B5174B13
:10C6E0001D783DB3164B1968C0B200230C4604E018
:10C6F0000133AB4204F108041CD011F833209042FE
:10C70000F6D1FDF775FF6378A3F10103B3FA83F364
:10C710005B09834200D038BD0A4BD3E900231343A1
:10C72000F9D1094B094819680022BDE83840490889
:10C7300000F008BC00231B78FFDE00BF7C27002030
:10C74000D0270020A827002080270020882700204D
:10C750002DE9F04FDFF8548298F8003083B0002BB9
:10C7600000F01981DFF848928C4F8D4E00254FF074
:10C77000010A3C6814F83500FDF73AFF04EBC503E5
:10C7800014F835405B784FEA540C14F0010E16F89B
:10C790000C10A3F10103B3FA83F314BF0A0901F0EB
:10C7A0000F025B09042A00F2A080DFE802F0725D4C
:10C7B00032200300834240F0AB80BEF1000F0CBF7B
:10C7C000F0230F2303EA01030CBF03213021194397
:10C7D00006F80C1098F8002001359542C9DBD9E91C
:10C7E0000023134340F0CD8003B0BDE8F08F8342B7
:10C7F0007BD0BEF1000F0CBFF0230F2303EA01032F
:10C800000CBF04214021194306F80C1098F80020B1
:10C81000E2E783426CD1BEF1000F0CBFF0230F237F
:10C8200003EA010398F800200CBF032130211943CB
:10C8300006F80C10002AD2D0D7F800C000236146B9
:10C8400003E0934201F10801C6D01CF83300A04276
:10C8500003F10103F5D14B68002BBDD02046012127
:10C86000984798F80020B7E7834219BF0020034695
:10C8700002232020BEF1000F0CBFF0220F2201EA9C
:10C88000020118BF03460B4306F80C3098F800204D
:10C89000A2E7834229D1BEF1000F14BF0F23F0237A
:10C8A00003EA010314BF1021012119430DF1070010
:10C8B0004FF0000306F80C108DF8073000F0AAFBCB
:10C8C000D9E90032A4F12001C4F120000AFA01F1F3
:10C8D0002AFA00F001430AFA04F4114323439DF8B5
:10C8E0000700C9E9003100F0BBFB98F8002073E7AE
:10C8F000BEF1000F0CBFF0230F2303EA01030CBFAE
:10C9000001211021194306F80C1098F8002063E764
:10C91000BEF1000F14BF0F23F02398F80000194058
:10C9200006F80C1098B1D7F800C00023624603E067
:10C93000834202F108020AD01CF83310A14203F12D
:10C940000103F5D1536813B10021204698474FF0F9
:10C9500000030DF107008DF8073000F05BFBD9E90B
:10C960000032A4F12001C4F120000AFA01F12AFAF0
:10C9700000F001430AFA04F422EA010123EA040365
:10C98000ADE7084B084819680022490800F0DAFAB8
:10C9900003B0BDE8F08FDFF8189020E7D027002023
:10C9A000B027002080270020882700207C27002037
:10C9B000A8270020092A43D92DE9F04182B0144666
:10C9C00006460D46FDF7B4FC002832D0214A224924
:10C9D000224B16600D7022481C600021202203F0BB
:10C9E0004DF8204B002000216C1EC3E90001E4B289
:10C9F00045B3DFF87C8006EBC404032702E0A642BF
:10CA000020D01C469DF80630A57820788DF804705B
:10CA100023F00703424601A98DF806308DF8055032
:10CA2000FDF790FCA4F108030028E8D002B0BDE8AF
:10CA3000F081FDF727FC0028C8D002B0BDE8F081E6
:10CA400007207047084A0948002100F06DFA02B03B
:10CA5000BDE8F081D02700207C270020802700201F
:10CA6000B0270020A827002051C702000CFF0200B9
:10CA7000DDC6020070B5084D2B785BB1074E00246F
:10CA80003368012113F83400FDF70CFD2B780134D5
:10CA9000A342F5D8002070BD7C270020D0270020BD
:10CAA00070B5124D2B7882B053B1114E002433680B
:10CAB00013F83400FDF762FD2B780134A342F6D859
:10CAC00000230DF107008DF8073000F0A3FA094BA1
:10CAD0009DF8070000240025C3E9004500F0C0FAD6
