:1000000000000420750E00009D0E00009F0E0000F1
:10001000A10E0000A30E0000A50E000000000000CD
:10002000000000000000000000000000A70E00001B
:10003000A90E000000000000AB0E0000AD0E000095
:10004000AF0E0000AF0E000059150000291500008A
:1000500035150000AF0E00007D120000AF0E00004D
:10006000AF0E0000AF0E0000AF0E0000AF0E00009C
:10007000AF0E0000AF0E0000AF0E0000AF0E00008C
:10008000AF0E00006D2A0000AF0E00004D150000FD
:10009000AF0E0000AF0E0000AF0E0000AF0E00006C
:1000A000AF0E0000AF0E0000AF0E0000AF0E00005C
:1000B000AF0E0000AF0E00000000000000000000C6
:1000C000AF0E0000AF0E0000AF0E000041150000A3
:1000D000AF0E0000AF0E0000AF0E0000AF0E00002C
:1000E000B5220000AF0E0000AF0E000000000000BF
:1000F00000000000AF0E00000000000045170000E7
:1001000000000000000000000000000000000000EF
:1001100000000000000000000000000000000000DF
:1001200000000000000000000000000000000000CF
:1001300000000000000000000000000000000000BF
:1001400000000000000000000000000000000000AF
:10015000000000000000000000000000000000009F
:10016000000000000000000000000000000000008F
:10017000000000000000000000000000000000007F
:10018000000000000000000000000000000000006F
:10019000000000000000000000000000000000005F
:1001A000000000000000000000000000000000004F
:1001B000000000000000000000000000000000003F
:1001C000000000000000000000000000000000002F
:1001D000000000000000000000000000000000001F
:1001E000000000000000000000000000000000000F
:1001F00000000000000000000000000000000000FF
:1002000010B5054C237833B9044B13B10448AFF350
:1002100000800123237010BD90000020000000002A
:100220009055000008B5034B1BB103490348AFF3D9
:10023000008008BD000000009400002090550000E0
:10024000154B002B08BF134B9D46A3F5803A0021A8
:100250008B460F461348144A121A03F0B7FD0F4B92
:10026000002B00D098470E4B002B00D09847002061
:10027000002104000D000D48002802D00C48AFF307
:10028000008003F069FD2000290000F071FA03F0FE
:100290004FFD00BF00000800000004200000000027
:1002A000000000000080010000800100000000004C
:1002B000000000004FF0A0430C22C3F80C27D3F835
:1002C0001005C0F3C00070474FF0A0430C22C3F8E4
:1002D0001027D3F81005C0F300107047044B0C2210
:1002E000C3F80C27D3F81005C0F3C000704700BF57
:1002F00000030050002000F025BD00BF012000F0E9
:1003000021BD00BF022000F01DBD00BF002000F095
:100310002BBD00BF012000F027BD00BF022000F070
:1003200023BD00BF70B51C4D1C4982B022234FF481
:1003300080648DF807300DF107000122C5F80C45E7
:1003400000F000FBF7238DF807301449C5F8084585
:100350000DF10700012200F0F5FA20238DF8073097
:1003600001220E49C5F80C450DF1070000F0EAFA2C
:10037000D5F81035DA060CD5094E46F0010664248E
:100380004FF47A40B047013CFAD1D5F81035DB067E
:10039000F5D402B070BD00BF00030050AC000020D7
:1003A000203F00002DE9F047BA4BBB4C402282B001
:1003B000C3F8082544F00104C8254FF47A40A0474B
:1003C000013DFAD1B34B4022C3F80C250A254FF466
:1003D0007A40A047013DFAD1AE4B4022C3F8082530
:1003E000C8254FF47A40A047013DFAD1A94ED6F86E
:1003F0001035DD0609D564254FF47A40A047013D4C
:10040000FAD1D6F81035DD06F5D4A24EA3494FF443
:10041000806312228DF807200DF10700C6F80C3515
:10042000012200F08FFAD6F81035D80609D56425D8
:100430004FF47A40A047013DFAD1D6F81035DA06DC
:10044000F5D4944D954901264FF480674FF0C709C4
:100450008DF8076032460DF10700C5F80C7500F005
:1004600071FA4FF000088D498DF8079032460DF172
:100470000700C5F8087500F065FA88498DF807800F
:1004800032460DF10700C5F8087500F05BFA8349A4
:100490008DF8076032460DF10700C5F8087500F0C9
:1004A00051FA11238DF807307C49C5F80C75324696
:1004B0000DF1070000F046FA78498DF807603246E2
:1004C0000DF10700C5F8087500F03CFA44238DF8DB
:1004D00007307249C5F80C7532460DF1070000F07F
:1004E00031FA4FF0180A6D498DF8078032460DF148
:1004F0000700C5F8087500F025FA68498DF807A0CF
:1005000032460DF10700C5F8087500F01BFA4523C7
:100510008DF807306149C5F80C7532460DF10700BA
:1005200000F010FA5D498DF8079032460DF1070092
:10053000C5F8087500F006FA58498DF8078032466C
:100540000DF10700C5F8087500F0FCF953498DF866
:10055000078032460DF10700C5F8087500F0F2F982
:100560004E498DF8078032460DF10700C5F8087531
:1005700000F0E8F93C238DF807304849C5F80C75C0
:1005800032460DF1070000F0DDF944498DF80760AF
:1005900032460DF10700C5F8087500F0D3F93F4960
:1005A0008DF807A032460DF10700C5F80C7500F074
:1005B000C9F980238DF807303849C5F808753246E7
:1005C0000DF1070000F0BEF922238DF80730334902
:1005D000C5F80C7532460DF1070000F0B3F9B123F0
:1005E0008DF807302D49C5F8087532460DF1070022
:1005F00000F0A8F920238DF807302849C5F80C75BC
:1006000032460DF1070000F09DF94E238DF80730BA
:100610002249C5F80C7532460DF1070000F092F939
:100620001E498DF8078032460DF10700C5F80875A0
:1006300000F088F94F238DF807301849C5F80C757C
:1006400032460DF1070000F07DF914498DF807904E
:1006500032460DF10700C5F8087500F073F90F492F
:100660008DF807803246C5F808750DF1070000F0D7
:1006700069F9D5F81035D90609D564264FF47A40C2
:10068000A047013EFAD1D5F81035DB06F5D402B00B
:10069000BDE8F08700030050203F0000AC000020C0
:1006A0002DE9F043164F174983B024234FF4806699
:1006B00081468DF807300DF10700C7F80C6501225F
:1006C00009F11805884609F59D5900F03BF9A5F197
:1006D000190414F8013F8DF807300122C7F80865A6
:1006E00041460DF1070000F02DF9AC42F1D104F1C3
:1006F00019054D45EBD1FFF715FE03B0BDE8F083BA
:1007000000030050AC0000202DE9F043164F1749BC
:1007100083B024234FF480668DF807300DF1070075
:10072000C7F80C650122884600F00CF94FF0C809A3
:1007300019240025013C8DF807500122C7F80865EF
:1007400041460DF10700A4B200F0FCF8002CF1D1F5
:1007500009F1FF391FFA89F9B9F1000FE8D1FFF764
:10076000E1FD03B0BDE8F08300030050AC000020C1
:1007700070B501204C4C4D4DA0B000F04DFB032353
:100780000022C4F81837C4F82837C4F82C37C4F846
:10079000102700F0A7F800F01FF900F0F3F84FF46D
:1007A00080614FF400624023C4F80C15C4F80C2596
:1007B000C4F8083500F000FBFFF7F4FDFFF7A4FFD5
:1007C0004FF4FA7445F001054FF47A40A847013C14
:1007D000FAD141F2883003F0E3FA044600285ED0F3
:1007E000C822FF2611464FF48773009600F0FAF8EE
:1007F000204600F019F9304600F01CF92C4800F0B2
:1008000069F92046FFF74CFF4FF4FA644FF47A4041
:10081000A847013CFAD1274902A8224600F07EF9F8
:1008200025490CA8224600F079F9244916A8224649
:1008300000F074F9224A02A8214600F089F9214A01
:1008400002A8012100F084F91F4A0CA8214600F0FB
:100850007FF91E4A0CA8012100F07AF91C4A2146B2
:1008600016A800F075F91B4A012116A800F070F9CE
:1008700002A800F071F90CA800F06EF916A800F0BB
:100880006BF900F083FA00F07DF9002000F0AAFA7D
:10089000C8244FF47A40A847013CFAD1F3E74FF05F
:1008A000FF3020B070BD00BF00030050203F0000AB
:1008B000283F0000B5020000C9020000DD02000070
:1008C000F50200000D030000FD020000150300000A
:1008D000050300001D030000014B01221A70704740
:1008E0000000002070B5134B0FCB84B06C4684E839
:1008F0000F00002542F62F52FF2021464FF0806660
:100900000424ADF800208DF802000B4A0B488DF846
:100910000C502B4602968DF8044000F0F7FB28B9E6
:10092000074B0322C3F82C2704B070BD02F044F833
:10093000F6E700BFB0520000D9080000C052000026
:100940000003005070B584B000250C4C0090134695
:100950000E460B4801932A4669460393029625707A
:1009600001F014F908B105E020BF2378002BFBD07B
:1009700004B070BD02F020F8F7E700BF00000020CF
:10098000C452000070B5114B0FCB84B06C4684E8A4
:100990000F00002542F62F52FF2021464FF000465F
:1009A0000424ADF800208DF80200094A09488DF8AA
:1009B0000C502B4602968DF8044000F0A7FB08B9B6
:1009C00004B070BD01F0F8FF04B070BDB05200007B
:1009D000D9080000C0520000014801F06BB800BF08
:1009E000C452000030B40F4CBDF80850A581022558
:1009F000E58220604D074FEAD1001CBF013080B274
:100A00000025218162816082A282E381258223B157
:100A1000B42B02D00B4611461A46E280A18030BCAE
:100A2000704700BFC8070020014B1860704700BF27
:100A3000C807002070B4264CE38A022B05D0042B93
:100A400003D0072B21D070BC7047A28A002AFAD0AD
:100A5000638AC0B200269BB1B5B20022216805FBB3
:100A600003F311FA82F10132C854638A91B28B42C6
:100A7000F4D8A28A0136B1B29142ECD370BC70476F
:100A80000136B1B29142F5D3DDE7A18A0029DAD06F
:100A900040EA0010628AC3B200269AB1B5B20021C2
:100AA000206805FB02F210FA81F001318354628A5A
:100AB00088B28242F4D8A18A0136B0B28842ECD31F
:100AC00070BC70470136B0B28842F5D3BBE700BFB7
:100AD000C807002010498A8AEAB1F0B44B8A00277F
:100AE000A3B1BEB2002206FB03F313FA82F30C6833
:100AF000C55CE55401324B8A94B2A342F3D88A8A8A
:100B00000137BCB29442EBD3F0BC70470137BCB2A2
:100B10009442F5D3F8E77047C807002070B5054642
:100B20000E4614460021282203F050F9AB786E607F
:100B3000082262F30713AB70B047A401EB7804F00E
:100B4000400444EAC01403F03F031C43EC7070BD42
:100B5000023140F82120704709490A6842B18242B7
:100B60000AD0134601E0984206D05B6A002BFAD106
:100B700042620860002070474FF0FF30704700BFAE
:100B8000B4000020F8B56B4B1F68002F3FD06A4CB3
:100B90006A4E6B4D7B689847FB785A0702D03A88BB
:100BA00001323A80B0EBD31F4FEAD31174D0C3F3B4
:100BB000C202013202F0070262F3C503022AFB708F
:100BC00007D9DBB200F0010161F3C7136FF3C5036E
:100BD000FB70FB7803F00702052A15D8DFE802F066
:100BE000294933181403C3F380138B42BB787CD09C
:100BF0000121FA6861F30713BB700AB138469047C8
:100C0000FB786FF30203FB707F6A002FC2D1F8BD3F
:100C1000C3F380138B42F7D0BB78FA68012161F3EC
:100C20000713BB700AB1384690473B883B2BE7D887
:100C30002CE0C3F380138B42BB784AD0082262F3C6
:100C40000713BB70E0E7C3F380138B4228D03B88C7
:100C50003C2BD9D9BB7803F00F02012A61D0022ABC
:100C6000CED10421BA6961F30713BB70002AC5D144
:100C7000C6E7C3F380138B4241D0BB78FA680121E9
:100C800061F30713BB700AB1384690473B682340B5
:100C900043F000733B60B7E76FF3C503FB7098E761
:100CA000BB78BA686FF30713BB700AB13846904738
:100CB000BB783A69013303F00F0343F02003BB70A4
:100CC0000AB1384690473B68234043F040733B608D
:100CD0009AE7BA686FF30713BB700AB138469047BA
:100CE0003B6833402B433B608EE706213A6A61F351
:100CF0000713BB70002A87D03846904784E73B88AB
:100D0000C82B81D9BB78FA69052161F30713BB7041
:100D10000AB138469047FB78052262F30203FB7064
:100D200072E703217A6961F30713BB70002A7FF42D
:100D300065AF65E7B40000200000FFF80000F0F8A0
:100D400000000101064B1A5C1F2A86BF054902F00C
:100D50001F024FF0A04101239340C1F80C357047AA
:100D6000D052000000030050064B1A5C1F2A86BFB9
:100D7000054902F01F024FF0A04101239340C1F842
:100D800008357047D0520000000300504FF0A043D8
:100D900010B44FF000504FF080544FF080414FF0AE
:100DA0000042C3F80845C3F80805C3F80815C3F89E
:100DB00008255DF8044B70474FF0A04310B44FF086
:100DC00000504FF080544FF080414FF00042C3F884
:100DD0000C45C3F80C05C3F80C15C3F80C255DF8D9
:100DE000044B70470A4B185C1F288ABF09494FF013
:100DF000A04100F01F00D1F804350122824022EA10
:100E000003001340C1F80805C1F80C35704700BF56
:100E1000D052000000030050C20730B40ED4830744
:100E20000AD54FF0A0430C22C3F82C27C3F8302773
:100E3000C3F86027C3F8642730BC70474FF0A04365
:100E40000322C3F870274FF08055C3F874274FF082
:100E50000054C3F878274FF08041C3F87C274FF047
:100E60000042C3F80855C3F80845C3F80815C3F88D
:100E70000825D4E70649074A074B9B1A03DD043BC4
:100E8000C858D050FBDC00F013F8FFF7D9F9000088
:100E9000E05500000000002000800100FEE7FEE7B2
:100EA000FEE7FEE7FEE7FEE7FEE7FEE7FEE7FEE71A
:100EB00010B4754B1B68082B1CD0744AD2F88830CC
:100EC00043F47003C2F88830BFF34F8FBFF36F8FC6
:100ED0004FF01023D3F80022002AC0F2A380D3F8E9
:100EE0000432002BC0F29E80694B6A4A1A605DF89A
:100EF000044B70474FF080414FF080520020C1F802
:100F00000C01654BC1F81001C1F83805D2F8041482
:100F1000C3F82015D2F80814C3F82415D2F80C141D
:100F2000C3F82815D2F81014C3F82C15D2F81414ED
:100F3000C3F83015D2F81814C3F83415D2F81C14BD
:100F4000C3F84015D2F82014C3F84415D2F824147D
:100F5000C3F84815D2F82814C3F84C15D2F82C144D
:100F6000C3F85015D2F83014C3F85415D2F834141D
:100F7000C3F86015D2F83814C3F86415D2F83C04ED
:100F8000C3F868054549D2F84004C3F86C05096800
:100F9000D2F84424C3F87025032937D8404B5B5C52
:100FA00013B1404B404A1A60404B5B5C63B1364B17
:100FB0003F491B68394AFB20C1F81805082B116806
:100FC0007FF47BAF032921D83A4B5B5C93B13A485D
:100FD0003A4B2D4C02681B682468304922F00F02FE
:100FE00003F00F031343082C096803607FF465AF17
:100FF00003290BD8324B5B5C43B1234B314A1B684E
:101000004FF40071082B11607FF457AF4FF080430D
:10101000D3F80024D2077FF550AF6FF00102C3F878
:1010200000244AE7284A0123C2F80435D2F80034E4
:10103000002BFBD04FF010231221234AC3F80012DB
:10104000D2F80034002BFBD04FF0102312211E4A9F
:10105000C3F80412D2F80034002BFBD000231A4945
:10106000C2F80435D1F80034002BFBD0BFF34F8F0A
:101070000649164BCA6802F4E0621343CB60BFF323
:101080004F8F00BFFDE700BF3001001000ED00E012
:10109000040000200090D00300C000403401001084
:1010A000D45200008C56004048810300D452000006
:1010B00000F00040D4520000E40E0040580200103E
:1010C000D45200004096024000E001400400FA05BE
:1010D00030B587B0057844688DF80450029485686F
:1010E000084A094B8DF80C50D0E9034053F82130E1
:1010F0008DF8140052F82110049401A8984707B005
:1011000030BD00BFB8000020C80000202DE9F04F1E
:101110001A4EDFF86CE0DFF86C90DFF86CA00C463C
:10112000154607469B4696E80F0087B002AE86E854
:101130000F0017F804CB23680193002D4EF82C50B4
:1011400094F8058094F804E04AF82CB0314608BFC2
:101150002A46019EA568A4890296384618BF4A46C9
:1011600063468DF80DE08DF80E800495ADF81440BF
:1011700000F068FB07B0BDE8F08F00BFD852000058
:10118000C8000020D1100000B800002030B585B0A4
:10119000047845688DF80040D0E90240064A074BC4
:1011A000039053F82130019552F821108DF8084032
:1011B0006846984705B030BDD8000020E000002008
:1011C00030B585B0047845688DF80040D0E902401C
:1011D000064A074B039053F82130019552F821102D
:1011E0008DF808406846984705B030BDD80000200B
:1011F000E00000202DE9F047DFF8748090F800E06F
:101200004B7F08F80E300D46074616460FCD88B0C6
:101210006C460FC495E80F003D78DFF85890DFF872
:1012200058C018F8055049F82E6084E80F004CF8B3
:101230002E00CDF810E05DB1002E0B4A694607F193
:10124000040008BF324601F08FF908B0BDE8F0870E
:10125000002E064A694607F10C0008BF324600F02E
:1012600043FE08B0BDE8F0878D110000C1110000F9
:10127000E0070020E0000020D80000202DE9F04722
:10128000002384B0CDE902339B4A1168012900F0A4
:1012900027811E46994B1A68012A00F01381984B4A
:1012A0001A68012A00F00081964B1A68012A00F0A2
:1012B000ED80954B1A68012A00F0DA80934B1A688A
:1012C000012A00F0C780924B1A68012A00F0B4800E
:1012D000904B1A68012A00F0A1808F4B1A68012AEE
:1012E00003D0C6B904B0BDE8F08700221A601B68BD
:1012F00001934FF0A042019BD2F82015874B029139
:10130000C2F82015D3F82025039246F00041C3F817
:101310002025EEB10E46824F01250024A30003F1E3
:101320008043354203F5C0434FEA45050BD0D3F85F
:10133000100557F82420D3F81015C0F30520C1F389
:10134000014102B190470134082CE7D1002EC9DADF
:10135000734E724C01274FF0A04596F95400431C80
:1013600045D0C0F3C20204AB1A4400F0070312F8E0
:10137000082C07FA03F31A42C1B200F03F0036D03E
:101380001F2887BF01F01F02A14602464FF0A04967
:1013900009EB820306EB000ED3F800C7D3F80087F1
:1013A00028F44038C3F80087CCF3014C9EF9248020
:1013B000D3F800E756F82880BCF1020F0CBF4FF4B9
:1013C000403A4FF4003A07FA02F24EEA0A0EC3F826
:1013D00000E7C9F82025B8F1000F08D089090329D2
:1013E00016D0BCF1020F15D0BCF1030F0ED0D5F80A
:1013F00020250292C5F82025D4F820350393C4F89F
:1014000020351343A9D104B0BDE8F0870229EED1FD
:10141000C047ECE70129EAD1C047E8E7414AD2F8E2
:10142000042312067FF559AF00221A601B6800934F
:10143000009B46F0800650E73A4AD2F80423510652
:101440007FF546AF00221A601B680093009B46F0B0
:1014500040063DE7334AD2F8042390067FF533AFC8
:1014600000221A601B680093009B46F020062AE7C2
:101470002C4AD2F80423D4067FF520AF00221A604C
:101480001B680093009B46F0100617E7254AD2F828
:10149000042315077FF50DAF00221A601B68009327
:1014A000009B46F0080604E71E4AD2F804235707BB
:1014B0007FF5FAAE00221A601B680093009B46F08D
:1014C0000406F1E6174AD2F8042392077FF5E7AE47
:1014D00000221A601B680093009B46F00206DEE6BD
:1014E0001049D1F8046316F001063FF4D3AE13603F
:1014F00013680093009BCDE600610040046100404A
:10150000086100400C61004010610040146100401F
:10151000186100401C6100407C61004000030050E5
:10152000E800002000600040014B1B68184700BF26
:1015300044010020014B1B68184700BF4C010020EC
:10154000014B1B68184700BF54010020014B1B686A
:10155000184700BF5C010020014B1B68184700BF03
:1015600064010020184B984270B50D4625D0B0F1AB
:10157000402F24D003F50033984222D0A3F58033C6
:10158000984218D0A3F58833984201D0002070BD4E
:101590000E4E002001F058FA347924B1002001F0F9
:1015A0005BFA112070BD012320463560337101F0D4
:1015B00053FA204670BD064EEBE7064EE9E7064EAD
:1015C000E7E7064EE5E700BF003000406401002079
:1015D0005C010020440100204C0100205401002047
:1015E000144B984216D0B0F1402F18D003F50033B9
:1015F000984219D0A3F58033984209D0A3F58833D7
:10160000984200D070470C4B00221A601A71704744
:101610000A4BF9E70A4B00221A601A717047094B0E
:1016200000221A601A717047074B00221A601A7163
:10163000704700BF00300040640100205C010020C2
:10164000440100204C01002054010020194BD3F824
:10165000182102B970470021174AC3F81811D3F8AE
:101660001811D37F82B0FF2B019101990DD0917F8A
:1016700099B11F2B8ABF11484FF0A04003F01F0300
:10168000012101FA03F3C0F80C35002353771372DC
:10169000D2E900310A4802B018471F2B8ABF074819
:1016A0004FF0A04003F01F03012101FA03F3C0F83B
:1016B0000835EAE7003000406C01002000030050CC
:1016C000740100204FF04023D3F8182102B970476D
:1016D0000021194AC3F81811D3F8181192F84330B1
:1016E00082B0FF2B019101990ED092F84210A9B15E
:1016F0001F2B8ABF11484FF0A04003F01F030121A8
:1017000001FA03F3C0F80C35002382F8413082F867
:101710002C30D2E909310A4802B018471F2B8ABF82
:1017200006484FF0A04003F01F03012101FA03F324
:10173000C0F80835E8E700BF6C0100200003005046
:10174000980100201B4BD3F8182102B970470021E3
:10175000194AC3F81811D3F8181192F88B3082B0D7
:10176000FF2B019101990ED092F88A10A9B11F2B7D
:101770008ABF12484FF0A04003F01F03012101FA75
:1017800003F3C0F80C35002382F8893082F87430F6
:10179000D2E91B310A4802B018471F2B8ABF0748FD
:1017A0004FF0A04003F01F03012101FA03F3C0F83A
:1017B0000835E8E700F002406C010020000300500B
:1017C000E00100201B4BD3F8182102B9704700211B
:1017D000194AC3F81811D3F8181192F8673082B07B
:1017E000FF2B019101990ED092F86610A9B11F2B21
:1017F0008ABF12484FF0A04003F01F03012101FAF5
:1018000003F3C0F80C35002382F8653082F85030BD
:10181000D2E912310A4802B018471F2B8ABF074885
:101820004FF0A04003F01F03012101FA03F3C0F8B9
:101830000835E8E7003002406C010020000300504A
:10184000BC0100202DE9F04F0579954F05EBC50946
:1018500007EB890B83B006469BF81C000193924668
:10186000EA000092002840F0EC80D6F800800C4698
:101870008C49404651F82510FFF774FE002840F0CF
:1018800001814FEA8909019B47F809A0CBF8043090
:10189000237B2178009A012B40F2C6801F2986BF46
:1018A000DFF804C201F01F014FF0A04C01238B4070
:1018B000CCF8083523781F2B86BF03F01F037A4925
:1018C0004FF0A04103F5E0734FF0010C41F823C045
:1018D0006378FF2B00F0CB801F2B8BBF03F01F0E14
:1018E0009E46DFF8C4C14FF0A04C0EF5E07901210F
:1018F00001FA0EF14FF0030ECCF80C154CF829E06C
:10190000A178FF2900F0B0801F298E4694BF714650
:1019100001F01F0101F5E0718CBFDFF88CC14FF0C1
:10192000A04C4FF004094CF82190A17802EB050C73
:1019300007EB8C0C8CF82010E1788CF81F10FF2935
:1019400028D094F804C0BCF1000F7ED11F298ABFB3
:10195000DFF854C14FF0A04C01F01F014FF0010916
:1019600009FA01F1CCF80815E1781F2986BF01F0CA
:101970001F01DFF834C14FF0A04C01F5E0714FF0CA
:1019800003094CF82190511907EB810194F804C028
:1019900081F81EC02178C8F80815C8F80C35C8F8B9
:1019A00010E5A368C8F82435637B217B003B18BF92
:1019B0000123022970D003296BD0012966D0C8F811
:1019C0005435A379C8F8C0350723C8F80035BAF1F3
:1019D000000F1FD03168637941F30734002C4FEAC0
:1019E000113147DB04F1604404F561445B01DBB273
:1019F00084F80033336843F3073100294FEA133387
:101A000008DB2A4E0124490903F01F0304FA03F3FB
:101A100046F82130154407EB8507002201237A7729
:101A20003B7703B0BDE8F08F1F2986BFDFF878C091
:101A300001F01F014FF0A04C01238B40CCF80C3576
:101A400038E7082003B0BDE8F08F1F298ABFDFF810
:101A500058904FF0A04901F01F014FF0010C0CFA13
:101A600001F1C9F80C157FE74FF0FF3E5EE74FF03C
:101A7000FF3345E70E4C01F00F015B010C44DBB274
:101A80002376B7E7112003B0BDE8F08F43F00203DF
:101A900095E743F0060392E743F004038FE700BFA6
:101AA0006C010020E85200000003005000E100E05B
:101AB000FCEC00E0F8B504792E4D04EBC402920072
:101AC000E600AB58002B4ED0036843F307310029E2
:101AD0004FEA133711DB4909DFF8ACC0203101238D
:101AE00007F01F0703FA07F74CF82170BFF34F8F79
:101AF000BFF36F8FAA5803683AB132191E49C3F871
:101B0000081305EB8202527F0ABB321905EB8202F1
:101B100092F82020FF2A0BD01F2A86BF02F01F0256
:101B2000164F4FF0A04702F5E072022147F822104D
:101B3000134A00219342C3F8001516D034440068BC
:101B400005EB8404FFF74CFD00232377F8BD012249
:101B50005A61D3F80421002AFBD0321905EB820226
:101B600000215177D1E70368CFE7064B01221A60C5
:101B7000E4E700BF6C0100205201080000030050A0
:101B800000F0024004F0024000E100E02DE9F047DF
:101B90000779DFF88CC107EBC7030CEB8306864699
:101BA000707F82B0002840F0A4809B000C465CF857
:101BB000033015464FEAC70823B112F0140F04BFD3
:101BC0000123737708EB07060CEB860694E80F00F9
:101BD00096F81FA006F10C09BAF1FF0F89E80F0073
:101BE0000FD0B37F002B6CD0BAF11F0F8ABF4B4AC6
:101BF0004FF0A0420AF01F0A012303FA0AF3C2F8C9
:101C00000835226822B102F06043B3F1005F66D16B
:101C1000A36823B103F06043B3F1005F5FD1DEF846
:101C200000306168C3F84425C3F84815D4E902219F
:101C3000C3F834250022C3F83815C3F81821D3F8A7
:101C400018210192019A15F0010218BF0122C3F870
:101C5000502515F0020218BF0122C3F840252A07BB
:101C60005CBF01221A6108EB07025CF8222062B116
:101C700015F004004FF040021ABFC3F808230020FB
:101C8000C3F8042302B0BDE8F087D3F81821002A76
:101C9000FBD047440CEB870C9CF81F30FF2B3AD04D
:101CA0009CF81E204AB31F2B8ABF1C494FF0A0414D
:101CB00003F01F03012202FA03F3C1F80C350020E0
:101CC000E0E7BAF11F0F8ABF144A4FF0A0420AF0B2
:101CD0001F0A012303FA0AF3C2F80C3591E74744BF
:101CE0000CEB870C002310208CF81D3002B0BDE8EF
:101CF000F087112002B0BDE8F0871F2B8ABF07498B
:101D00004FF0A04103F01F03012202FA03F3C1F8D0
:101D100008350020B6E70020B4E700BF00030050FC
:101D20006C01002030B56E4AD2F8043399058BB0AF
:101D300068D5D2F82431002B64D00023C2F82431B6
:101D4000D2F8243101934FF40171664B0198C2F827
:101D5000081393F8291009B9012151606049022242
:101D60008DF81820D1F88024C1F880249869D968AA
:101D7000099200240025CDE90710C3E90645D3E9FF
:101D8000001206A89047564AD2F81C31C3B1554BF1
:101D90005869196A88426AD993F8281001F0FF003F
:101DA000002964D1C2F81C01D2F81C1103910399D7
:101DB0009C68186A196A205C01311962C2F81C0516
:101DC000474AD2F84431DBB10021464BC2F84411F6
:101DD000D2F8440193F829100090009809B101212C
:101DE00011609A6962B1586AD96800229A61012229
:101DF000CDE907108DF8182006A8D3E90012904706
:101E00000BB030BD364AD2F804335B07BBD5D2F8ED
:101E10000831002BB7D0334B996900293ED00021FF
:101E2000C2F80811D2F8081104910499D868596AC7
:101E3000D2F8182542545A6A996901325A625A6A8C
:101E40008A42A0D1DA69002A31D0DD685C6A18695B
:101E50009A6101210022D860DA615A628DF8181067
:101E6000CDE90754D3E9001206A890478BE71C4A36
:101E70000021C2F81C11D2F81C210292029A5A6960
:101E8000002A9DD058699A688DF8181008905961F9
:101E9000079206A8D3E90012904791E7C2F808110B
:101EA000D2F8080105900598D2F81825C7E793F8ED
:101EB000292012B90A4A01215160094A4FF40171DF
:101EC000C2F80813596ADA680891002401200792C1
:101ED0008DF81800D3E900129C6106A8904752E7DC
:101EE00000200040000200202DE9F041DFF8E481ED
:101EF00006792C2303FB068382B093F82A30002B4B
:101F000040F09E8005460C4600686D491746FFF775
:101F100029FB002840F090802368591C19D01F2B02
:101F20004FF001028ABF67494FF0A04103F01F0341
:101F300002FA03F3C1F8083523681F2B86BF03F0AC
:101F40001F03604A4FF0A04203F5E073032142F8FB
:101F5000231063685A1C0BD01F2B86BF03F01F038E
:101F6000584A4FF0A04203F5E073002142F82310D5
:101F70002B68A269C3F82425217D637D2A680B4361
:101F8000C2F86C35D4E900122B68C3F81425C3F8E5
:101F90000C15237D012B5FD02C2303FB06F308EBEC
:101FA00003025760226948F803202A6897B300218A
:101FB000237FC2F81C11D2F81C2100922A68009FCE
:101FC000C2F84411D2F844112A6801913E4C01999B
:101FD000C2F804432A6842F3073100294FEA12325B
:101FE00032DB01F1604101F561415B01DBB281F857
:101FF00000332A6842F30733002B4FEA123109DB22
:10200000324C01225B0901F01F0102FA01F144F890
:1020100023102A682C2303FB0686012400230421B5
:10202000C2F80015C6E9063386F82A4086F829303A
:10203000736102B0BDE8F081112002B0BDE8F0810B
:10204000082002B0BDE8F081214902F00F025B01D7
:102050001144DBB20B76CCE7A368591C0BD01F2BC5
:1020600086BF03F01F0317494FF0A04103F5E0734B
:10207000002241F82320E3685A1C1AD01F2B8ABF84
:1020800010494FF0A04103F01F03012202FA03F3AD
:10209000C1F80835E3681F2B88BF03F01F0303F561
:1020A000E0738CBF07494FF0A041032241F8232081
:1020B000E3682A68A168C2F80835C2F810156BE712
:1020C000251D0000000300508000020000E100E038
:1020D000FCEC00E000020020F8B53E4F04790268F5
:1020E0002C2303FB047300215B68C2F80015C3B105
:1020F0000368394AC3F80823036843F30732002A08
:102100004FEA13310EDB5209344D2032012301F026
:102110001F0103FA01F145F82210BFF34F8FBFF3FF
:102120006F8F0368D3F80C65D3F81455D3F80825DE
:10213000D3F810154FF0FF3CC3F814C5C3F80CC515
:1021400003686645C3F808C5C3F810C50CD01F2E38
:1021500086BF06F01F06224B4FF0A04306F5E0763F
:102160004FF0020C43F826C06E1C0BD01F2D86BF0B
:1021700005F01F051A4B4FF0A04305F5E075022648
:1021800043F825604D1C0BD01F2986BF01F01F01AD
:10219000134B4FF0A04301F5E071022543F82150A5
:1021A000531C0BD01F2A86BF02F01F020C4B4FF0AE
:1021B000A04302F5E072022143F822100068FFF705
:1021C0000FFA2C2303FB0474002384F82A30636085
:1021D000F8BD00BF000200208402020000E100E020
:1021E000000300502DE9F041314E05792C2303FB0B
:1021F00005630446586984B000284CD15A6199603F
:10220000186283F828002268C2F81C01D2F81C1159
:10221000226802910121029F91602268D3F808C0D0
:10222000C2F81C01D2F81C11019101991F6A196AA8
:102230001CF8077001311962C2F81C755A6812B196
:1022400004B0BDE8F0815F691A6A216897421BD922
:10225000864602E093F828200ABBD1F81C21002A08
:10226000F8D0C1F81CE1D1F81C210392039AD3F8ED
:1022700020801A6A1CF8088001321A62C1F81C8595
:102280001A6A9742E9D82168D1F81C31002BFBD09B
:102290000123CB6004E0112004B0BDE8F0810F20E1
:1022A0002C2303FB056500236B6104B0BDE8F081BE
:1022B0000002002030B5524BD3F824218BB0002A05
:1022C00071D00021C3F82411D3F8242104920222F2
:1022D0008DF81820049AD3F880044A4AC3F8800481
:1022E0000990D3F83C05136B0890C2E90F110793CE
:1022F00006A8D2E909139847414BD3F8442152B1BB
:10230000404A0021C3F84411D3F84441D06B0394F0
:10231000039C002838D13A4BD3F820215AB1002130
:10232000C3F82011D3F8202102920120354A029CE3
:10233000D860906BD8B9324BD3F85821AAB100219C
:10234000C3F85811D3F858012E4A01900198906BA8
:1023500058B1D3F84C05D36A08908DF818109163E2
:10236000079306A8D2E9091398470BB030BDD3F8FC
:102370004C05D36A08908DF818109163079306A84E
:10238000D2E909139847D6E7D3F83C35106B089388
:102390000123C2E90F1107908DF8183006A8D2E981
:1023A00009139847B7E7D3F810110029A4D0C3F850
:1023B0001021D3F81001134905900598CC6BD3F880
:1023C0003C05A04298D10C6C5CB90A6BCC63CDE99A
:1023D000072001238DF81830D1E9091306A8984782
:1023E0008AE7D3F80052CC630C6B0A6425F0200511
:1023F0004A6BC3F80052CDE9074001230A63E9E7BD
:10240000008002402C02002030B5554BD3F8242127
:102410008BB0002A71D00021C3F82411D3F82421F5
:10242000049202228DF81820049AD3F880044D4AB1
:10243000C3F880040990D3F83C05D3680890C2E93A
:10244000061107931168536806A89847444BD3F8C0
:10245000442152B1434A0021C3F84411D3F8444106
:1024600090690394039C002838D13D4BD3F8202178
:102470005AB10021C3F82011D3F820210292012083
:10248000384A029CD8605069D8B9354BD3F85821E6
:10249000AAB10021C3F85811D3F85801314A01906C
:1024A0000198506958B1D3F84C05936808908DF89D
:1024B00018105161079306A8D2E9001398470BB092
:1024C00030BDD3F84C05936808908DF81810516111
:1024D000079306A8D2E900139847D6E7D3F83C350E
:1024E000D06808930123C2E9061107908DF81830CF
:1024F00006A8D2E900139847B7E7D3F810110029CE
:10250000A4D0C3F81021D3F81011164805910599ED
:102510008469D3F83C15A14298D1C469A4B1D3F819
:102520000052846125F02005C3F80052D0E903432E
:10253000C26101220891C3600168436807948DF865
:10254000182006A8984781E7C26884610123CDE975
:1025500007218DF81830D0E9001306A8984775E7D1
:10256000002000402C0200202DE9F0430679834F23
:1025700006EBC60307EB830387B093F82030002BEC
:1025800040F0BB807E4B04460D46006853F8261091
:102590009046FEF7E7FF002840F0AB802B68591CFF
:1025A0004FEAC60919D01F2B4FF001028ABF7549A7
:1025B0004FF0A04103F01F0302FA03F3C1F80835FE
:1025C0002B681F2B86BF03F01F036E4A4FF0A042FB
:1025D00003F5E073032142F823106B685A1C0BD0FB
:1025E0001F2B86BF03F01F03664A4FF0A04203F57E
:1025F000E073002142F823102368AA69C3F8242558
:10260000297D6A7D23680A43C3F86C25D5E900312A
:102610002268C2F80C35C2F814152B7D012B78D036
:1026200009EB060207EB8203C3F804802B6947F825
:102630002230B8F1000F4BD021682B7F524D002281
:10264000C1F81021D1F8101101912168DDF804C002
:10265000C1F82021D1F8201102912168DDF808C0CD
:10266000C1F82421D1F8241103912168DDF80CC0B0
:10267000C1F84421D1F8441104912168DDF810C05B
:10268000C1F85821D1F85811226805910599C2F86E
:102690000453226842F3073100294FEA123230DB3B
:1026A00001F1604101F561415B01DBB281F800336A
:1026B000226842F30733002B4FEA123109DB334D16
:1026C00001225B0901F01F0102FA01F145F8231014
:1026D00022684E4407EB8607002301240821C2F834
:1026E0000015C7E9063387F820407B6107B0BDE8D5
:1026F000F083112007B0BDE8F083082007B0BDE8E3
:10270000F083234902F00F025B011144DBB20B7628
:10271000CEE7AB68591C0BD01F2B86BF03F01F03FD
:1027200018494FF0A04103F5E073002241F823203F
:10273000EB685A1C1AD01F2B8ABF12494FF0A041D8
:1027400003F01F03012202FA03F3C1F80835EB6816
:102750001F2B88BF03F01F0303F5E0738CBF0949EB
:102760004FF0A041032241F82320EB682268A968BA
:10277000C2F80835C2F8101552E700BF2C0200203D
:10278000F8520000000300501003420000E100E096
:10279000FCEC00E02DE9F0410579564C05EBC50352
:1027A00004EB830301465B68006882B0EE00C3B1AE
:1027B000514BC0F808330B6843F30732002A4FEA45
:1027C00013330EDB5209DFF838C12032012703F042
:1027D0001F0307FA03F34CF82230BFF34F8FBFF308
:1027E0006F8F721904EB8202D0F80032926923F0E5
:1027F0002003C0F8003242B10023C0F84431D0F8C1
:10280000443100930123009A43600023C0F85831FB
:10281000D0F8583101937319012204EB8303019F0F
:10282000C2609A69D0F85831002BFBD01AB1D0F8A9
:102830004431002BF6D00023C0F800350B684FF070
:10284000FF38D3F80CE5D3F814C5D3F80825D3F82E
:102850001075C3F80C85C3F814850B68C645C3F81A
:102860000885C3F810850CD0BEF11F0F86BF0EF08F
:102870001F0E22494FF0A0410EF5E07E022341F8E1
:102880002E30BCF1FF3F0CD0BCF11F0F86BF0CF007
:102890001F0C1A494FF0A0410CF5E07C022341F8CF
:1028A0002C30791C0BD01F2F86BF07F01F07134950
:1028B0004FF0A04107F5E077022341F82730531C81
:1028C0000BD01F2A86BF02F01F020C494FF0A04117
:1028D00002F5E072022341F82230FEF781FE354412
:1028E00004EB8504002384F82030636002B0BDE867
:1028F000F08100BF2C0200201003420000030050B2
:1029000000E100E0F0B401F06044B4F1005F82B097
:102910002CD10579274E05EBC50406EB840403464C
:102920006069EF0000283ED16261A1601A68C2F8B8
:102930002001D2F820C11A68CDF804C0DDF804C027
:10294000C2F85801D2F8582100921A68DDF800C088
:10295000D4F814C0C2F84415C2F848C51A68012159
:102960009160626832B102B0F0BC7047102002B0D2
:10297000F0BC70471A6800E0C8B9D2F82011D2F84C
:1029800058010029F8D090B90121D1601B68D3F813
:102990005821002AFBD07B1906EB830300225A61E1
:1029A00002B0F0BC7047112002B0F0BC70470F209D
:1029B000F1E700BF2C02002000B585B003460021DE
:1029C00001AA44F20100CDE90111039300F004F8DB
:1029D00005B05DF804FB00BF10B572B601F05EF8FB
:1029E00000F07AFE0028FBD1104B114C1149E41A7B
:1029F000E408240444F0010000F090FF0E4B1B6833
:102A0000DB0700D500BE0D4944F0020000F086FF50
:102A1000BFF34F8F0A490B4BCA6802F4E0621343BD
:102A2000CB60BFF34F8F00BFFDE700BF94550000A0
:102A3000945500000C530000F0ED00E01853000026
:102A400000ED00E00400FA0572B6024A1368013393
:102A50001360704774020020034A1368013B13603F
:102A600003B962B6704700BF74020020024A034BEC
:102A700010681B68184700BF780200208002002001
:102A800010B4034653E8000F0A4643E8002494F0CC
:102A9000000FF7D15DF8044B704700BF10B4034638
:102AA00053E8002F02EB010043E8000494F0000F0C
:102AB000F6D15DF8044B704710B4034653E8002F7D
:102AC000A2EB010043E8000494F0000FF6D15DF89A
:102AD000044B704710B40346012253E8001F41EA3B
:102AE000020043E8000494F0000FF6D15DF8044BB7
:102AF000704700BF10B40346002253E8000F00EAFD
:102B0000020143E8001494F0000FF6D15DF8044B85
:102B1000704700BF38B504460020FFF795FFD4E9A1
:102B200000311A688A4215D9511E19602168A368BC
:102B30000868258A12F8012CE4681B1A0879DBB2B0
:102B4000984205FB024400D20B710020FFF784FF7E
:102B5000204638BD00240020FFF77EFF204638BD08
:102B600038B5054600200C46FFF76EFF2A6813684B
:102B7000591C1160E9682A8A641AB4FBF2F41C70CB
:102B8000BDE838400020FFF767BF00BF826842B150
:102B900010B5044643690168006998470023A360A3
:102BA00010BD70470EB400B582B0039921B104ABDB
:102BB00001AA019300F0ACF802B05DF804EB03B099
:102BC000704700BF2DE9F04F164683B0B142DDE9F2
:102BD0000C920F4605469A46C0F095800B464FF082
:102BE0000108B3FBF6F39E4208F10108F9D9D0457C
:102BF00038BFD04612F00103019302D1B9F1000FA2
:102C00005ED1AA68012403E00AF1FF3A06FB04F44E
:102C1000BAF1010FF8D8B7FBF4F39E42F6D9DFF80A
:102C2000ECA007E0B442B4FBF6F31AD3AA681C4642
:102C3000B7FBF3F31AF803B0BBF10A0F04FB1377E9
:102C400028D02B68511CA96003F802B0D5E90132E5
:102C50009A42E7D32846FFF799FFB4FBF6F3B44254
:102C6000E4D2019B9BB1B9F1000F10D02024C845DC
:102C700009F1FF390BD2AB682A68591CA960D454FA
:102C8000D5E901329A4214D2B9F1000FEFD103B065
:102C9000BDE8F08F511C2B68A9604FF00D019954CD
:102CA000D5E901329A42CCD32846FFF76FFFAA68D4
:102CB000C7E72846FFF76AFFB9F1000FD7D1E6E76B
:102CC00093071AD42024AA68C84502F1010199D2B9
:102CD0002B68A9609C54D5E901329A4209F1FF3969
:102CE00003D2B9F1000FEFD18CE72846FFF74EFF72
:102CF000AA68B9F1000FE7D184E7BAF1000F0CBF61
:102D000030242024DFE74FF0010870E7345300003F
:102D1000002900F054822DE9F04FDFF8B8950C78C7
:102D200085B0064690460D464FF00D0A10E00A2C7D
:102D3000B36800F0AD803268591CB160D454D6E954
:102D400001329A4280F0A0802C78002C00F087801D
:102D50000135002C00F08380252CE8D1294600277E
:102D60000D4611F8012B2D2A00F08880302A00F042
:102D700088802B2A7AD02A2A00F09980A2F1300389
:102D8000092B4FF000040BD804EB840402EB44043D
:102D900015F8012FA2F13003092BA4F13004F3D967
:102DA0002E2A00F09080002301E015F8012F02F098
:102DB000FB016829F9D0252A00F07781583AD1B271
:102DC000202947D8202A45D8DFE812F035014400F1
:102DD00044004400440044004400440044004400D3
:102DE0004400430113014400440044004400130123
:102DF000440044004400440044004400D200440025
:102E00004400A20044009400440044003501012025
:102E10009842024638BF1A460292002C40F0508178
:102E2000B80740F16E81002B40F04E821C46BBF18A
:102E3000000FC0F20A827A0700F11A8207F003023B
:102E4000022A00F0EA81CDE9004759460A223046BD
:102E5000FFF7B8FE01352C78002C7FF479AF337B77
:102E6000002B40F01C8105B0BDE8F08F0D4611F835
:102E7000012B2D2A47F004077FF478AF47F00107B4
:102E80006EE747F002076BE73046FFF77FFE5BE730
:102E90003268591CB16002F803A0D6E901239342BD
:102EA000FFF449AF3046FFF771FEB36843E7D8F847
:102EB00000301A1DC8F800206A781C682E2A05F117
:102EC00001057FF470AF6A78A2F13003092B05F198
:102ED00001054FF000033FF66AAF03EB830302EBFB
:102EE000430315F8012FA2F130010929A3F13003A2
:102EF000F3D95CE7D8F80020111DC8F8001011685C
:102F00003046CDE900470A22FFF75CFE0135A2E713
:102F1000D8F800301A1DC8F8002017F00107D3F8C0
:102F200000B040F0F080BBF1000F03D0584600F035
:102F3000BFFF0746BC4240F24381002C00F04081B5
:102F4000202205E0BC4200F03B81002C00F03881DB
:102F5000B1683368481CB0605A54D6E901309842D1
:102F600004F1FF34EED33046FFF710FE2022E9E7EC
:102F7000D8F80020131DC8F80030B368316817680E
:102F8000581C3022B060CA54D6E90123934280F025
:102F9000EF803268581C7821B060D154D6E90132F4
:102FA0009A4280F0E0800F2F03D93B461B090F2B7C
:102FB000FCD84FF0805406E00F2C4FEA14137FF634
:102FC00049AFB2681C46B7FBF4F319F803B0BBF184
:102FD0000A0F04FB137754D03368511CB16003F817
:102FE00002B0D6E901329A42E6D33046FFF7CEFD71
:102FF000E2E7D8F80020111DC8F80010D2F800B0A0
:103000008BEAEB72A2EBEB72092A7FF700AFDFF8D5
:10301000C8C2012011466329ACFB02E200F10100A5
:103020004FEAD202F6DC9842024638BF1A460292B4
:10303000002C45D1F4E6D8F80020111DC8F8001086
:1030400011683046CDE900471022FFF7BBFD01357E
:1030500001E7D8F800301A1DC8F800201C78B368C2
:103060000A2C00F011813268591CB160D454D6E9A1
:1030700001329A42FFF4EEAE3046FFF787FD01358C
:10308000E9E63368511CB16003F802A0D6E90132C9
:103090009A42A1D33046FFF779FDB2689CE73046EB
:1030A00005B0BDE8F04FFFF771BDB3683168581C3B
:1030B000B060CA54D6E901329A42DDD20135CAE67F
:1030C000BBF1000F59DB7A0757D4B80702D5002BA4
:1030D0003FF4ADAEF9073FF5AAAE94B120220299B4
:1030E000A142BFF4A4AEB168481CB060306842543D
:1030F000D6E90101814204F1FF3480F0D480002C34
:10310000EDD1002493E69BF80030002B00F0E08026
:10311000B0685F46CBF101020A2B02EB070B3CD0F3
:10312000411CB16031680B54D6E90130984226D277
:1031300017F8013F002BEFD15C457FF68BAE2027BF
:1031400002E05C453FF486AEB2683368511CB16062
:103150009F54D6E901329A4204F1FF34F1D330464C
:10316000FFF714FDEDE73046FFF710FDB2681AE7F0
:103170003046FFF70BFDB3680BE7013CA5E730468F
:103180000292FFF703FD17F8013F002BD4D0029AFB
:10319000B0680A2B02EB070BC2D1411CB160316849
:1031A00001F800A0D6E901108842B9D33046CDE934
:1031B0000232FFF7EBFCDDE90232B068B0E770479E
:1031C0009BF80040002C3FF445AE0A2CB0680ED0AE
:1031D0003368421CB2601C54D6E90130984214D2C4
:1031E0001BF8014F002C3FF435AE0A2CF0D13368A8
:1031F000421CB26003F800A0D6E901309842E7D340
:103200003046FFF7C3FCB068E2E73046FFF7BEFC8C
:103210001BF8014F002CD8D11CE6002B7FF413AE15
:103220008CB130220299A142BFF40DAEB168481CA6
:10323000B06030684254D6E90101814204F1FF34A4
:103240003BD2002CEED10024FDE5B1684A1CB260EF
:1032500032682D205054D6E901219142CBF1000B68
:10326000FFF4ECAD30460393FFF790FC039BE5E5DC
:10327000B1684A1CB26032682B205054D6E9012153
:103280009142FFF4DBADEDE73268591CB16002F802
:1032900003A0D6E901239342FFF4E5AE3046FFF7E1
:1032A00075FCB368DFE630460393FFF76FFC039BC2
:1032B0002022002C7FF413AF23E730460393FFF75F
:1032C00065FC039B3022BCE7F9073FF5B0AD18E77A
:1032D0009B4631E734530000CDCCCCCC2DE9F041F6
:1032E000058A0331043D4E198046B6FBF5F6FFF71B
:1032F00011FCA0B3F6B24FF48073013E0446C580C2
:10330000C0F8008083802BD00346002508E0627956
:10331000AE4202F1010262713860C0F800801FD035
:1033200040461F46FFF7F6FB013503460028EED165
:103330006779791E17D02246013399421268FBD172
:10334000D2F800805FB12668002501E03446366877
:10335000214601354046FFF703FCAF42F6D8002472
:103360002046BDE8F08120682146FFF7F9FBF6E72B
:1033700004300121FFF792BB2DE9F0410121044601
:103380000430FFF799FB10F0FF0301D0BDE8F08196
:103390006779791E16D02246013399421268FBD113
:1033A000D2F80080002FF1D02668002501E03446D5
:1033B0003668214601354046FFF7D2FBAF42F6D8CA
:1033C000BDE8F08120682146BDE8F041FFF7C8BBA9
:1033D0002DE9F8430546C6884079144606FB00F2FD
:1033E000043A04EB030C1F1D624538BFD41ABE42D9
:1033F0008846B7FBF6F106FB117002D801392D683B
:10340000FCD1371AA74228BF27469CB14FF00009CC
:103410000430E41B28443A4608EB090100F0C8FCDC
:10342000A642B9442D6837464FF0000028BF274612
:10343000002CEDD1BDE8F8832DE9F8430546C68898
:103440004079144606FB00F2043A04EB030C1F1DFE
:10345000624538BFD41ABE428846B7FBF6F106FB78
:10346000117002D801392D68FCD1371AA74228BF44
:1034700027469CB14FF0000904302918E41B3A4656
:1034800008EB090000F094FCA642B9442D683746C9
:103490004FF0000028BF2746002CEDD1BDE8F8838F
:1034A000F0B595B000241D460E4608461746FFF7B6
:1034B0005FFF304623460822099505A91A9D089703
:1034C0000D950A948DF82C400C94FFF7B5FF9DF8EC
:1034D00014308DF81140DDE9061003F00302012AD3
:1034E000CDE9020128D0022A04D03046FFF744FF7C
:1034F00015B0F0BDBDF81650C3F3C2038DF81030FF
:10350000C5F389150827082D2C4628BF08243B46FB
:1035100022460EA93046FFF78FFF2D1B214608AB30
:1035200002AA0EA8274400F085FB002DEBD13046FF
:10353000FFF722FF15B0F0BDBDF81470059DC7F36D
:103540008312C3F3C2040EA93046920008238DF8FB
:103550001040C7F38317FFF76FFFC5F3952508AB3E
:103560003A4628460EA9009302AB00F0EBFA30462B
:10357000FFF702FF15B0F0BD704700BF00B583B084
:10358000044B0093044A4023FFF78AFF03B05DF821
:1035900004FB00BF9D3500008802002038B50E48AE
:1035A0000E4D03780E4CEB5C00252570D2B253B162
:1035B0000430FFF7A7F958B90A4B1B7813B12378E9
:1035C000002BFCD038BD0C30FEF70CFE0028F3D0E9
:1035D000FFF7F2F9F0E700BF08000020E007002045
:1035E000C8020020840200202DE9704319481A4ABD
:1035F0000378D35C88B02BB30430FFF7CBF8174DBA
:103600000FCD6C460FC495E80F004FF0EB7684E8C1
:103610000F004FF006084FF0FF394FF0FF344FF026
:10362000FF350C48069600226946CDE90089CDE9B0
:103630000245FDF7DFFD48B9094B00221A7008B0BA
:10364000BDE870830C30FEF747FDD8E7FFF7B4F90B
:10365000F2E700BF08000020E00700205053000000
:103660008402002099B10E4B0E495B1ADB0815D07D
:1036700030B400220C4D02E0013293420BD035F8F9
:1036800022408442F8D151F8320030BC70470549DD
:1036900051F830007047002030BC70471846704722
:1036A000B45500009455000090000020094B0139EA
:1036B00003EBC00003290BD8DFE801F00402080681
:1036C00004207047022070474079704700797047A6
:1036D00000207047945500002DE9F043894CD4E94F
:1036E00001239A4285B060D00023C4F81834BFF398
:1036F0004F8FA568EAB2D31C04EB830114F8233082
:10370000580718D566680B7803F00303012B42D0E5
:10371000022B03D14B88023505EB9315EAB2D4F89E
:103720001804D31C04EB830128B9AE4239D914F82C
:1037300023305B07E7D404EB82026B1CD268019252
:10374000DBB204EB830302F00302DB680293022A7C
:1037500005F102062DD0012A00F08880D4F810541B
:103760003DB12B6828469B689847EB681D68002D83
:10377000F7D16548654B6649C01AC008000440F09F
:10378000020000F0CBF8D4E90130C01A18BF0120C4
:1037900005B0BDE8F0830B880235C3F383131D44E5
:1037A000BCE7A66005B0BDE8F083002005B0BDE829
:1037B000F083BDF806305748C3F389184546502DAD
:1037C00028BF502565F38F1305F10801ADF80630C9
:1037D000FFF784FD07460028C0D0FFF7C9FD00238E
:1037E00001A908223846FFF7F3FDF343DBB20133AA
:1037F000B5EB830F4FEA8309F1B272D9A5EB090546
:10380000033104EB810108234A463846EDB2FFF745
:10381000DFFD41492A4609F108033846FFF7D8FD84
:1038200008F1030806EB9806D4F81834002B65D18C
:10383000D4F8105465B1EB685A7928463946002A05
:1038400058D02B681B689847EB681D68002DF2D193
:103850003846FFF791FD0020FFF7F6F8D4F818344A
:1038600003B9A6600020FFF7F7F88CE7BDF8043035
:103870002848C3F38312062A28BF0622911C62F34C
:1038800089138900ADF80430FFF728FD07460028AA
:103890003FF464AFFFF76CFD0023082201A938460E
:1038A000FFF796FDBDF8043013F4707FBCD06FF0C5
:1038B0000108A8EB05080825F1B203312B460422C4
:1038C00004EB81013846FFF783FDBDF80420013683
:1038D00008EB0603C2F383129A4205F10405EBD804
:1038E000A2E703312A4604EB810108233846FFF79B
:1038F0006FFD95E71D68002D9DD1A9E73846FFF7BC
:103900003BFD40E79C0300209455000094550000C7
:1039100090530000C4550000A80300202DE9F04F8B
:103920005C4C87B0064600200F46FFF78DF8D4E9BF
:10393000015303F580735B1B012B7DD804F21C48F7
:1039400004F5836A04F214491AE0BDF80E30C3F39B
:1039500089130333090C0BEB930B48460191FFF7D6
:10396000C9F80199002839D04046C4F808B0FFF7DB
:1039700095F8D4E9013202F58072D21A012A5CD896
:1039800001214046FFF78AF85046FFF7A3F8484662
:10399000FFF7A0F8A368DAB2D11C04EB810014F899
:1039A000211001F0040C490728D404EB8202591CB1
:1039B000D2680392C9B204EB810102F00302012A2A
:1039C000C96803F1020B30D0022ABED0002148465C
:1039D0000191FFF78FF801990028C5D14046C6E74D
:1039E00043880EEB9313DAB2D11C04EB810014F878
:1039F000211001F0040CBCF1000FD6D0017801F0C9
:103A0000030101290BD0022903F1020E02F1030187
:103A1000E6D004EB8100BCF1000FEFD1C5E70288CE
:103A20000233C2F383121344DDE7BDF80C30C3F355
:103A30008313090C9B4490E72B46DAB2033202331E
:103A40000521002044F822106360FFF705F80021EB
:103A50001148FFF715F880F31000F1006B1C01F01E
:103A60003801DBB2EDB204EB830341F00101000445
:103A7000033540EA164641EA8727DE6044F82570A0
:103A800023781BB1FFF728FE0028FBD107B0BDE863
:103A9000F08F00BF9C030020B807002038B5084B0A
:103AA000D3F8104401251D704CB1E3685D712368A3
:103AB00020465B689847E3681C68002CF5D138BD48
:103AC0009C03002030B5C38885B004460D461BBB5F
:103AD000217A05291ED0627A82B9134AA08852F849
:103AE000212003920021FFF7BDFD039A0F490346F1
:103AF000284605B0BDE83040FFF754B8A088FFF76E
:103B0000D5FD0B4B0B4953F820202846FFF74AF808
:103B1000217AE2E705B030BD074A00920749084A1A
:103B20002846FFF73FF8D3E774540000D453000051
:103B300050540000D0530000C8530000B0530000A0
:103B4000A85300002DE9F04385B04FF0000C0C9C09
:103B5000814694F80C8084F80CC00E46174618462F
:103B600021461D46FFF7AEFF062F09D8DFE807F014
:103B7000042E343B444F1F0049462046FFF712F8FD
:103B80002B7A052B05D06B7A5BB927492046FFF7C6
:103B900009F82046FEF7FAFF84F80C8005B0BDE86E
:103BA000F083224A22492046FEF7FCFFEDE7D6E9E2
:103BB0000413F2680393B3680291CDE900324946D9
:103BC000D6E900232046FEF7EDFFD9E732684946E3
:103BD0002046FEF7E7FFD3E7D6E900234946204613
:103BE000FEF7E0FFCCE7B3680093D6E9002349462F
:103BF0002046FEF7D7FFC3E7D6E9023201920093D1
:103C0000D6E9002349462046FEF7CCFFB8E7D6E9BF
:103C10000321B3680291CDE900324946D6E9002379
:103C20002046FEF7BFFFABE7E0530000C85300009B
:103C3000D0530000082900D970472DE9F04F9B466A
:103C400083B000241B7B8BF80C400D46064659467A
:103C5000104690460193DFF8D0902C4FFFF732FFCB
:103C600005E0325D0134FEF79DFF082C09D0A54226
:103C700039465846F5D849460134FEF793FF082CDB
:103C8000F5D12349DFF8A490224C234F5846FEF784
:103C900089FF4FF0000A0DE0D15D11F0970F08BFCA
:103CA0002E22214658460AF1010AFEF77BFFBAF19F
:103CB000080F10D0554505D916F80A207E2AEBD9F1
:103CC0002E22EEE7494658460AF1010AFEF76AFF3E
:103CD000BAF1080FEED198F80830052B02D098F809
:103CE000093063B90D495846FEF75CFF5846FEF7A8
:103CF0004DFF019B8BF80C3003B0BDE8F08F084AF4
:103D000008495846FEF74EFFECE700BFE4530000B9
:103D1000F0530000F453000089540000E053000009
:103D2000C8530000D0530000EC530000DC530000E7
:103D300008B5074B044613B10021AFF30080054BD3
:103D40001868836A03B19847204600F0D5F800BF91
:103D5000000000008C55000070B50D4D0D4C641B2B
:103D6000A4100026A64209D10B4D0C4C00F0C6F859
:103D7000641BA4100026A64205D170BD55F8043B73
:103D800098470136EEE755F8043B98470136F2E7CD
:103D90008800002088000020880000208C0000207F
:103DA000024B0146186800F019B800BF240000203B
:103DB0000A44914200F1FF3300D1704710B511F869
:103DC000014B03F8014F9142F9D110BD0244034663
:103DD000934200D1704703F8011BF9E7F8B5CD1CF9
:103DE00025F0030508350C2D38BF0C25002D06469F
:103DF00001DBA94203D90C2333600020F8BD00F099
:103E00005FF821490A6814469CB9204F3B6823B9E2
:103E10002146304600F03CF838602946304600F034
:103E200037F8431C23D10C233360304600F04EF8A2
:103E3000E3E723685B1B17D40B2B03D923601C44D7
:103E4000256004E06368A2420CBF0B6053603046FB
:103E500000F03CF804F10B00231D20F00700C21A0B
:103E6000CCD01B1AA350C9E722466468CCE7C41C17
:103E700024F00304A042E3D0211A304600F008F8F1
:103E80000130DDD1CFE700BFBC070020C007002014
:103E900038B5064D0023044608462B6000F01EF896
:103EA000431C02D12B6803B1236038BDE407002016
:103EB000034613F8012B002AFBD1181A013870476A
:103EC000014800F009B800BFEC070020014800F0ED
:103ED00004B800BFEC07002070477047044A05494A
:103EE0001368002B08BF0B46184410601846704733
:103EF000C4070020F8070020FEE700BFF8B500BFA8
:103F0000F8BC08BC9E467047F8B500BFF8BC08BCBA
:103F10009E46704700000000000000000000000006
:103F20000338FDD870470000FFFFFFFFFFFFFFFFD2
:103F30008FFFFFFFFFFFFFFFF1FFFFFFFFFFFFFF0F
:103F4000FFFFFFFFFFFFFFFFFF8FFFFFFFFFFFFFF1
:103F5000FFF1FFFFFFFFFFFFFFFFFFFFFFFFFFFF7F
:103F6000FFFF8FFFFFFFFFFFFFFFF1FFFFFFFFFFDF
:103F7000FFFFFFFFFFFFFFFFFFFFFF8FFFFFFFFFC1
:103F8000FFFFFFF1FE01FFFFFFFFFFFFFFFFFFFF4E
:103F9000FFFFFFFF8FFFFFFFFFFFFFFFF1F8007F35
:103FA000FFFFFFFFFFFFF7FF3FFFFFFFFF8FFFFF59
:103FB000FFFFFFFFFFF1F0003FFFFFFFFFFFFFE10B
:103FC000FE1FFFFFFFFF8FFFFFFFFFFFFFFFF1F06F
:103FD000001FFFFFFFFFFFFFE3FF1FFFFFFFFF8F3C
:103FE000FFFFFFFFFFFFFFF1E0001FFFFFFFFFFFED
:103FF000FFE3FF9FFFFFFFFF8FFFFFFFFFFFFFFFBD
:10400000F1E1E30000000001FFFFE7FF8FFFFFFF8A
:10401000FF8FFFFFFFFFFFFFFFF1C3F30FFFFFFF66
:10402000FCFFFFE3FF8FFFFFFFFF8FFFFFFFFFFF9F
:10403000FFFFF1C33B0FFFFFFFFEFFFFE3FF1FFF8B
:10404000FFFFFF8FFFFFFFFFFFFFFFF1C30F0FFF1A
:10405000FFFFFEFFFFE1FE1FFFFFFFFF8FFFFFFFE0
:10406000FFFFFFFFF1C30F0FFFFFFFFEFFFFF0FC9D
:104070001FFFFFFFFF8FFFE3FFFFFFFFFFF1C3877E
:104080000FFFFFFFFEFFFFF0003FFFFFFFFF8FFF6F
:10409000E07FFFFFFFFFF1C1030FFFFFFFFEFFFF08
:1040A000F8007FFFFFFFFF8FFFE00FFFFFFFFFF133
:1040B000E0001FFFFFFFFEFFFFFE01FFFFFFFFFF0E
:1040C0008FFFFC03FFFFFFFFF1E0001FFFFFFFFE7C
:1040D000FFFFFFFFFFFFFFFFFF8FFFFF807FFFFF5F
:1040E000FFF1F0003FFFFFFF7EFFFFFBFFFFFFFF41
:1040F000FFFF8FFFFFF01FFFFFFFF1F8007FFFFFC3
:10410000FC3EFFFFE0FFFFFFFFFFFF8FFFFF001FF1
:10411000FFFFFFF1FE00FFFFFFF03EFFFFC67FFF46
:10412000FFFFFFFF8FFFF8078FFFFFFFF1FE87FF05
:10413000FFFFE0CEFFFFCE7FFFFFFFFFFF8FFFE01F
:104140001F8FC007FFF1FEFFFFFFFF8186FFFFCE3D
:104150007FFFFFFFFFFF8FFFE0FFCF8007FFF1FE34
:10416000FFFFFFFF0206FFFFC67FFFFFFFFFFF8F7E
:10417000FFE3FFEF0007FFF1FEFFFFFFFE0C02FF72
:10418000FFE0FFFFFFFFFFFF8FFFFFFFFF1FFFFFAE
:10419000F1FEFFFFFFFE1802FFFFFBFFFFFFFFFF27
:1041A000FF8FFFFFFFFF1FFFFFF1FEFFFFFFFE205E
:1041B00000FFFFFFFFFFFFFFFFFF8FFFFE01FF1F5D
:1041C000FFFFF1FEFFFFFFFEC002FFFFFF03FFFF47
:1041D000FFFFFF8FFFF001FF9FFFFFF1FEFFFFFFDB
:1041E000FF0002FFFFF8007FFFFFFFFF8FFFE001EE
:1041F000E0800FFFF1FEFFFFFFFF0002FFFFF00076
:104200003FFFE7FFFF8FFFE003E00007FFF1FEFF46
:10421000FFFFFF8006FFFFE0CC1FFFE0FFFF8FFFE7
:10422000E271E00007FFF1FEFFFFFFFFC00EFFFF9E
:10423000E3C71FFFE03FFF8FFFE739E0000FFFF10B
:10424000FEFFFFFFFFC00EFFFFE7E78FFFF007FF56
:104250008FFFE738FFFFFFFFF1FEFFFFFFFF001EAC
:10426000FFFFE7E78FFFFE01FF8FFFE310FFFFFF78
:10427000FFF1FEFFFFFFFC003EFFFFE3C78FFFFFE4
:10428000C07F8FFFE301FF1FC7FFF1FEFF83FFF039
:10429000007EFFFFE0071FFFFFF83F8FFFF381FF66
:1042A0001FC7FFF1FEFC01FFE000FEFFFFF00F1F44
:1042B000FFFFC01F8FFFFFC7FF1FC7FFF1FEF00703
:1042C000FF8001FEFFFFF81FBFFFFE000F8FFFFF03
:1042D000FFF80007FFF1FEC018FE0003FEFFFFFF1E
:1042E000FFFFFFF007878FFFFFFFF8000FFFF1FED2
:1042F000C0E0F8000FFEFFFFFFFFFFFFE01FC78FCA
:10430000FFFFFFF8000FFFF1FEC700E0001FFEFFF8
:10431000FFFFFF9FFFE0FFC78FFE0001FF1EFFFFB3
:10432000F1FEDC00C0003FFEFFFFF83F1FFFE3FF90
:10433000C78FFE0001FF1FFFFFF1FEE0000000FF3E
:10434000FEFFFFF00F1FFFFFFFC78FFE0001FFFF03
:10435000FFFFF1FEC0000003FFFEFFFFE0031FFFB1
:10436000FFFFFF8FFE03FFF87FFFFFF1FEE000007D
:1043700007FFFEFFFFE3C19FFFFFFFFF8FFFC07F2F
:10438000F81FFFFFF1FEE000001FFFFEFFFFE7E068
:104390009FFFF800FF8FFFF81FF807FFFFF1FEF007
:1043A0000000FFFFFEFFFFE7F81FFFF000FF8FFF99
:1043B000FE03F801FFFFF1FEF80003FFFFFEFFFF21
:1043C000E7FC1FFFE000FF8FFFFF83F8C07FFFF1D6
:1043D000FEFC003FFFFFFEFFFFE3FE1FFFE000FFCC
:1043E0008FFFFC07F8F01FFFF1FEFFB7FFFFFFFE96
:1043F000FFFFF1FF1FFFE331FF8FFFE03FF8FC07F6
:10440000FFF1FEFFFFFFFFFFFEFFFFF3FF9FFFE354
:1044100038FF8FFF00FFF8FF03FFF1FEFFFFFFFFF4
:10442000FFFEFFFFFFFFFFFFE338FF8FFE07FFF8F0
:10443000FFC3FFF1FEFFFFFFFFFFFEFFFFFFFFFFD8
:10444000FFE318FF8FFE0001F8FFF3FFF1FEFFFF0F
:10445000FFFFFFFEFFFFFFDFFFFFE300FF8FFE0018
:1044600001F8FFFFFFF1FEFFFFFFFFFFFEFFFFFF71
:104470008FFFFFE380FF8FFE0001F8FFFFFFF1FEDB
:10448000FFFFFFFFFFFEFFFFFF87FFFFF181FF8FB1
:10449000FFFFFFFFFFFFFFF1FEFFFFFFFFFFFEFF3C
:1044A000FFFFC3FFFFFFC3FF8FFFFFFFFFFFFFFF04
:1044B000F1FEFFFFFFFFFFFEFFFFFFE3FFFFFFFF38
:1044C000FF8FFFFFFFFFFFFFFFF1FE7FFFFFFFFFFB
:1044D000FCFFFFFFF3FFFFFFFFFF8FFFFFFFFFFF6B
:1044E000FFFFF1FF000000000001FFFFFFE3FFFC02
:1044F0000000FF8FFFFFFFFFFFFFFFF1FFFFFFFF48
:10450000FFFFFFFFFFFFE3FFFC0000FF8FFFFFFF48
:10451000FFFFFFFFF1FFFFFFFFFFFFFFFFFFFFC3F5
:10452000FFFC0000FF8FFFFFFFFFFFFFFFF1FFFF1A
:10453000FFFFFFFFFFFFFFFF87FFFC0000FF8FFF74
:10454000FFFFFFFFFFFFF1FFFFFFFFFFFFFFFFFF89
:10455000FF8FFFFFE3F1FF8FFFFFFFFFFFFFFFF183
:10456000FFFFFFFFFFFFFFFFFFFF1FFFFFE3F9FF5D
:104570008FFFFFFFFFFFFFFFF1FFFFFFFFFFFFFFC9
:10458000FFFFFF1FFFFFE3F8FF8FFFFFFFFFFFFFAE
:10459000FFF1FFFFFFFFFFFFFFFFFFFF3FFFFFE315
:1045A000F8FF800000000000000001FFFFFFFFFF98
:1045B000FFFFFFFFFE3FFFFFE1F0FF800000000074
:1045C00000000001FFFFFFFFFFFFFFFFFFFF1FFFD6
:1045D000FFF000FF8FFFFFFFFFFFFFFFF1FFFFFF77
:1045E000FFFFFFFFFFFFFF1FFFFFF001FF8FFFFF38
:1045F000FFFFFFFFFFF1FFFFFFFFFFFFFFFFFFFFD9
:104600000FFFFFF801FF8FFFFFFFFFFFFFFFF1FF2D
:10461000FFFFFFFFFFFFFFFFFF87FFFFFE07FF8F8B
:10462000FFFFFFFFFFFFFFF1FFFFFFFFFFFFFFFFA8
:10463000FFFFCFFFFFFFFFFF8FFFFFFFFFFFFFFF2A
:10464000F1FFFFFFFFFFFFFFFFFFFFFFFFFFFFFF88
:10465000FF8FFFFFFFFFFFFFFFF1FFFFFFFFFFFFE8
:10466000FFFFFFFFFFFFFFF800FF8FFFFFFFFFFFD0
:10467000FFFFF1FFFFFFFFFFFFFFFFFFFFF8FFFF5F
:10468000F000FF8FFFFFFFFFFFFFFFF1FFFFFFFFC6
:10469000FFFFFFFFFFF8703FFFE000FF8FFFFFFF0E
:1046A000FFFFFFFFF1FFFFFFFFFAFFFFFFFFF0201B
:1046B0001FFFE000FF8FFFFFFFFFFFFFFFF1FFFF86
:1046C000FFFFC01FFFFFFFE0021FFFE3FFFF8FFFA1
:1046D000FFFFFF0FFFFFF1FFFFFFFF000FFFFFFFD7
:1046E000E3871FFFE3FFFF8FFFFFFFFF0FFFFFF1D8
:1046F000FFFFFFFE0007FFFFFFE78F8FFFE3FFFFD6
:104700008FFFFFFFFF0FFFFFF1FFFFFFFE00027FA4
:10471000FFFFE7CF8FFFF0FFFF8FFFFFFFFF0FFFD0
:10472000FFF1FFFFFFFC00007FFFFFE7CF9FFFE0EF
:1047300000FF8FFFFE0000003FFFF1FFFFFFF800CA
:1047400000FFFFFFE3FF1FFFE000FF8FFFFE000001
:10475000003FFFF1FFFFFFF83000FFFFFFF3FE1FF8
:10476000FFE000FF8FFFFE0000003FFFF1FFFFFFB3
:10477000F83000FFFFFFF7FF3FFFE000FF8FFFFE75
:104780000000003FFFF1FFFFFFF00000FFFFFFFF11
:10479000FFFFFFFFFFFF8FFFFE0000003FFFF1FF65
:1047A000FFFFF00000FFFFFFFFFFFFFFFFFFFF8F96
:1047B000FFFF01FF0FFFFFF1FFFFFF900000FFFF72
:1047C000FFFFFF1FFFFFFFFF8FFFFFC07F0FFFFFF8
:1047D000F1FFFFFF100000FFFFFFF81F1FFFE000C9
:1047E000FF8FFFFFE03F0FFFFFF1FFFFFC10000016
:1047F000FFFFFFF00F1FFFE000FF8FFFFFF81F0F0D
:10480000FFFFF1FFFFF8183000FFFFFFE0031FFF7D
:10481000E000FF8FFFFFFC070FFFFFF1FFFFF8082D
:104820003800FFFFFFE3C19FFFE000FF8FFFFFFFA6
:10483000030FFFFFF1FFFFF0083001FFFFFFE7F07C
:104840009FFFFFE1FF8FFFFFFF810FFFFFF1FFFFE2
:10485000E0080001FFFFFFE7F81FFFFFF9FF8FFFF0
:10486000FFFFE00FFFFFF1FFFFE0E40001FFFFFFAC
:10487000E7FC1FFFFFF8FF8FFFFFFFF00FFFFFF1C7
:10488000FFFFE0E20003FFFFFFE3FE1FFFFFF8FF73
:104890008FFFFFFFF80FFFFFF1FFFFC0E20007FFF0
:1048A000FFFFF1FF1FFFE000FF8FFFFFFFFC0FFF87
:1048B000FFF1FFFFC041000FFFFFFFF3FF9FFFE08D
:1048C00000FF8FFFFFFFFE0FFFFFF1FFFFC000C0E3
:1048D0001FFFFFFFFFFFFFFFE001FF8FFFFFFFFF55
:1048E000FFFFFFF1FFFFC00030FFFFFFFFFFFFFFF3
:1048F000FFE003FF8FFFFFFFFFFFFFFFF1FFFFC0A0
:1049000000077FFFFFFFFFFFFFFFFFFFFF8FFFFF9E
:10491000FFFFFFFFFFF1FFFFC000003FFFFFFFFFB2
:10492000FFFFFFFFFFFF8FFFFFFFFF07FFFFF1FF0D
:10493000FFC000007FFFFFFFFFFFFFFFFFFFFF8FB4
:10494000FFFFE0FC01FFFFF1FFFFC040007FFFFF22
:10495000FFFFBFFFFFFFFFFF8FFFFFC07800FFFFDC
:10496000F1FFFFC0E0007FFFFFFFFF3FFFFFFF877A
:10497000FF8FFFFF803800FFFFF1FFFFE0E0007FC7
:10498000FFFFFFFF3FFFFF1E03FF8FFFFF00100031
:104990007FFFF1FFFFE0E0007FFFFFFEFFBFCFFEE4
:1049A0003E01FF8FFFFF0010007FFFF1FFFFE000DF
:1049B000003FFFFFFE3FFF8FFE3C01FF8FFFFE0029
:1049C00000F07FFFF1FFFFF000003FFFFFFF3C0F13
:1049D0009FFE3C30FF8FFFFE0F01F83FFFF1FFFF0E
:1049E000F800011FFFFFFFF003FFFE3C78FF8FFF81
:1049F000FE0F81FC3FFFF1FFFFF80003FFFFFFFF09
:104A0000E000FFFE3878FF8FFFFE1FC3FC3FFFF181
:104A1000FFFFFC0007FFFFFFFFC000FFFE1878FF4D
:104A20008FFFFE1FC3FC3FFFF1FFFFFF000FFFFFE3
:104A3000FFFFC0007FFE00F8FF8FFFFE1FC3FC3F9B
:104A4000FFF1FFFFFF803FFFFFFFFF80003FFF0000
:104A5000F8FF8FFFFE1FC3FC3FFFF1FFFFFFFFFFCB
:104A6000FFFFFFFF80003FFF01F0FF8FFFFE1FC32E
:104A7000FC3FFFF1FFFFFFFFFFFFFFFFFF80003F55
:104A8000FFC3F1FF8FFFFF0FC3FC3FFFF1FFFFFFED
:104A9000FFFFFFFFFFF1000031FFFFFFFF8FFFFF70
:104AA0000FFFF83FFFF1FFFFFFFFFFFFFFFFF100E8
:104AB0000031FFFFFFFF8FFFFF07FFF87FFFF1FFD0
:104AC000FFFFFFFFFFFFFFFF80003FFFFFFFFF8FA4
:104AD000FFFFFFFFF07FFFF1FFFFFFFFFFFFFFFF83
:104AE000FF80003FFFFFFFFF8FFFFFFFFFFFFFFF84
:104AF000F1FFFFFFFFFFFFFFFFFF80007FFFFFFFD2
:104B0000FF8FFFFFFFFFFFFFFFF1FFFFFFFFFFFF33
:104B1000FFFFFFC0007FFFFFFFFF8FFFFFFFFFFFD3
:104B2000FFFFF1FFFFFFFFFFFFFFFFFFE000FFFFC1
:104B3000FFFFFF8FFFFFFFFFFFFFFFF1FFFFFFFF03
:104B4000FFFFFFFFFFF001FFFFFFFFFF8FFFFFFFF2
:104B5000FFFFFFFFF1FFFFFFFFFFFFFFFFFF7803F6
:104B6000DFFFFFFFFF8FFFFFFFFFFFFFFFF1FFFFF3
:104B7000FFFFFFFFFFFFFE3F1F8FFFFFFFFF8FFFC6
:104B8000FFFFFFFFFFFFF1FFFFFFFFFFFFFFFFFE44
:104B90007FFFCFFFFFFFFF8FFFFFFFFFFFFFFFF153
:104BA000FFFFFFFFFFFFFFFFFEFF3FFFFFFFFFFFD6
:104BB0008FFFFFFFFFFFFFFFF1FFFFFFFFFFFFFF83
:104BC000FFFFFF3FFFFFFFFFFF8FFFFFFFFFFFFF25
:104BD000FFF1FFFFFFFFFFFFFFFFFFFF3FFFFFFFB3
:104BE000FFFF8FFFFFFFFFFFFFFFF1FFFFFFFFFF53
:104BF000FFFFFFFFFFFFFFFFFFFFFF8FFFFFFFFF35
:104C0000FFFFFFF1FFFF000000017FFF0000000039
:104C1000000000000FFFFFFFFFFFFFFFF1FFFD801F
:104C20000000031FFF00000000000000000FFFFF56
:104C3000FF0FF87FFFF1FFF8800000020FFFFFFF7A
:104C4000FFFFFFFFFFFF8FFFFFFE07F83FFFF1FFB2
:104C5000F0400000040FFFFFFFFFFFFFFFFFFF8F8B
:104C6000FFFFFE07F03FFFF1FFF06000000C07FFC1
:104C7000FFFFFFFFFFFFFFFF8FFFFFFE07F03FFF7C
:104C8000F1FFF02000000807FFFFFFFFFFFFFFFF1D
:104C9000FF8FFFFFFE07F03FFFF1FFF03000001035
:104CA00007FFFFFFFFFFFFFFFFFF8FFFFFFF07F87B
:104CB0007FFFF1FFF01000003007FFFFFFFFFFFF55
:104CC000FFFFFF8FFFFFFF0FF87FFFF1FFF01800DE
:104CD000002007FFFFFFFFFFFFFFFFFF8FFFFFFF2A
:104CE000FFFFFFFFF1FFF00800006007FFFFFFFF7D
:104CF000FFFFFFFFFF8FFFFFFFFFFFFFFFF1FFF051
:104D00000400004007FFFFFFFFFFFFFFFFFF8FFFD3
:104D1000FFFFFFFFFFFFF1FFF00600008007FFFF2E
:104D2000FFFFFFFFFFFFFF8FFFFFFFFFFFFFFFF111
:104D3000FFF00200018007FFFFFFFFFFFFFFFFFF03
:104D40008FFFFFFFFFFFFFFFF1FFF00300010007F0
:104D5000FFFFFFFFE0000000FF8FFFFFFFFFFFFFEF
:104D6000FFF1FFF00100020007FFFFFFFF0000005E
:104D700000FF8FFFFFFFFFFFFFFFF1FFF001800645
:104D80000007FFFFFFFC00000000FF8FFFFFFFFF99
:104D9000FFFFFFF1FFF00080040007FFFFFFF000BE
:104DA000380000FF8FFFFFFFFFFFFFFFF1FFF00064
:104DB00040080007FFFFFFE000FE0000FF8FFFFF3D
:104DC000FFFFFFFFFFF1FFF00040080007FFFFFFBC
:104DD000C003FF8000FF8FFFFFFFFFFFFFFFF1FF1A
:104DE000F00020100007FFFFFF800FFFF800FF8F8B
:104DF000FFFFFFFFFFFFFFF1FFF00030300007FF74
:104E0000FFFF003FFFFC00FF8FFFFFFFFFFFFFFFE3
:104E1000F1FFF00010200007FFFFFE00FFE7FE009B
:104E2000FF8FFFFFFFFFFFFFFFF1FFF000184000C3
:104E300007FFFFFC01FF81FF00FF8FFFFFF03FFC3A
:104E40003FFFF1FFF00008C00007FFFFFC01FF007B
:104E50007F00FF8FFFFFC00FFC3FFFF1FFF000045A
:104E6000800007FFFFF801FFC07F80FF8FFFFF80FA
:104E700007FC3FFFF1FFF00005000007FFFFF8000F
:104E8000FFF80000FF8FFFFF0003FC3FFFF1FFF082
:104E90000003000007FFFFF0001FFE0000FF8FFF70
:104EA000FF0001FC3FFFF1FFF00003000007FFFFE0
:104EB000F00007FF8000FF8FFFFE0000FC3FFFF1C6
:104EC000FFF00001000007FFFFF1FF81FF8000FFFE
:104ED0008FFFFE0780FC3FFFF1FFF000018000071D
:104EE000FFFFE0FF007F8000FF8FFFFE0FE07C3FB1
:104EF000FFF1FFF04780800007FFFFE07FC13F80A8
:104F000000FF8FFFFE1FF03C3FFFF1FFF04FC0405E
:104F10000007FFFFE03FF94F0000FF8FFFFE1FF883
:104F20001C3FFFF1FFF04C40400007FFFFE01FFE79
:104F3000780000FF8FFFFE1FF80C3FFFF1FFF064C9
:104F4000C0400007FFFFE00FFF800000FF8FFFFE63
:104F50001FFC043FFFF1FFF07FC0400007FFFFE0B0
:104F600005FFF00000FF8FFFFE1FFE003FFFF1FF77
:104F7000F01F00C00007FFFFE0003FFC0000FF8FB4
:104F8000FFFF0FFF003FFFF1FFF00000800007FF71
:104F9000FFE0000FFF0000FF8FFFFF0FFF003FFF4C
:104FA000F1FFF00001000007FFFFE00003FF8000B9
:104FB000FF8FFFFF07FFC03FFFF1FFF00001000080
:104FC00007FFFFE00007FF8001FF8FFFFF87FFE083
:104FD0003FFFF1FFF00002000007FFFFE0003FFF8E
:104FE0000001FF8FFFFFFFFFF83FFFF1FFF000061A
:104FF000000007FFFFE000FFFC0001FF8FFFFFFF45
:10500000FFFFFFFFF1FFF00005000007FFFFE001D9
:10501000FFE00001FF8FFFFFFFFFFFFFFFF1FFF049
:10502000000D800007FFFFE001FF000003FF8FFF7E
:10503000FFFFFFFFFFFFF1FFF00008800007FFFF09
:10504000E001FF800003FF8FFFFFFFFFFFFFFFF185
:10505000FFF00010400007FFFFE000FFF00003FF3B
:105060008FFFFFFFFFFFFFFFF1FFF0001040000781
:10507000FFFFE0001FFE0007FF8FFFFFFFFFFFFFA6
:10508000FFF1FFF00020200007FFFFE00003FF809A
:1050900007FF8FFFFFFFFFFFFFFFF1FFF000603012
:1050A0000007FFFFE00007FF800FFF8FFFFFFFFFFC
:1050B000FFFFFFF1FFF00040100007FFFFE0003F9F
:1050C000FF801FFF8FFFFFFFFFFFFFFFF1FFF000DB
:1050D000C0080007FFFFE001FFFF001FFF8FFFFE7A
:1050E0000000003FFFF1FFF000800C0007FFFFE031
:1050F00001FFF8003FFF8FFFFE0000003FFFF1FFC0
:10510000F00180040007FFFFE001FFE0007FFF8F58
:10511000FFFE0000003FFFF1FFF00100020007FF6B
:10512000FFE001FE0000FFFF8FFFFE0000003FFFD9
:10513000F1FFF00200030007FFFFE001F00003FFB2
:10514000FF8FFFFE0000003FFFF1FFF006000100AF
:1051500007FFFFE001800007FFFF8FFFFF00000057
:105160003FFFF1FFF00400018007FFFFE0000000B7
:105170001FFFFF8FFFFF83FFFFFFFFF1FFF00C001A
:10518000008007FFFFE0000000FFFFFF8FFFFF81AF
:10519000FFFFFFFFF1FFF00800004007FFFFE00006
:1051A000000FFFFFFF8FFFFFC1FFFFFFFFF1FFF0C9
:1051B0001800006007FFFFFFFFFFFFFFFFFF8FFFEB
:1051C000FFC1FFFFFFFFF1FFF01000002007FFFF0E
:1051D000FFFFFFFFFFFFFF8FFFFFE0FFFFFFFFF17C
:1051E000FFF02000001007FFFFFFFFFFFFFFFFFFA2
:1051F0008FFFFFE0FFFFFFFFF1FFF06000001807E7
:10520000FFFFFFFFFFFFFFFFFF8FFFFFFFFFFFFF1E
:10521000FFF1FFF04000000807FFFFFFFFFFFFFF67
:10522000FFFF8FFFFFFFFFFFFFFFF1FFF8C0000050
:10523000040FFFFFFFFFFFFFFFFFFF8FFFFFFFFFD9
:10524000FFFFFFF1FFF8800000041FFFFFFFFFFFDB
:10525000FFFFFFFF8FFFFFFFFFFFFFFFF1FFFF00DB
:105260000000023FFFFFFFFFFFFFFFFFFF8FFFFF79
:10527000FFFFFFFFFFF1FFFFFFFFFFFFFFFFFFFF4C
:10528000FFFFFFFFFFFF8FFFFFFFFFFFFFFFF1FFAC
:10529000FFFFFFFFFFFFFFFFFFFFFFFFFFFFFF8F8E
:1052A000FFFFFFFFFFFFFFF1FFFFFFFFFFFFFFFF1C
:1052B000FFFFFFFF06FF00000000004000000000AD
:1052C000000000000030004000000000010000006D
:1052D0001C1D1E1F01000000FFFFFFFF0007FF0055
:1052E00000000040000000004D160000C516000040
:1052F000C51700004517000009240000B522000072
:105300006170705F627574746F6E000046617461E5
:105310006C206572726F720053797374656D2072C0
:1053200065736574000000006170705F74696D657D
:10533000720000003031323334353637383941426B
:1053400043444546736F72746C69737400000000C7
:10535000FFFFFFFFFFFFFFFFFFFFFFFFFFFFFFFF5D
:1053600000000000000000000000D601060100005F
:105370007D350000E93500007935000075617274F3
:105380005F6C6F675F6261636B656E640000000055
:105390004261636B656E647320666C7573686564E7
:1053A00000000000617070001B5B313B33316D0009
:1053B00025734C6F67732064726F7070656420286A
:1053C00025642925730D0A001B5B306D0000000069
:1053D000257300003C25733E2025733A2000000011
:1053E0000D0A000020253032780000002020200027
:1053F0007C000000256300001B5B313B33306D00F7
:105400001B5B313B33326D001B5B313B33336D0033
:105410001B5B313B33346D001B5B313B33356D001F
:105420001B5B313B33366D001B5B313B33376D000B
:105430006572726F720000007761726E696E67004C
:10544000696E666F000000006465627567000000A9
:10545000C8530000F8530000A85300000054000097
:10546000085400001054000018540000205400009C
:1054700028540000000000003054000038540000A0
:10548000405400004854000000202020202020200C
:1054900020202828282828202020202020202020E4
:1054A00020202020202020202088101010101010F4
:1054B0001010101010101010100404040404040440
:1054C00004040410101010101010414141414141DA
:1054D00001010101010101010101010101010101BC
:1054E00001010101101010101010424242424242CC
:1054F000020202020202020202020202020202028C
:105500000202020210101010200000000000000033
:10551000000000000000000000000000000000008B
:10552000000000000000000000000000000000007B
:10553000000000000000000000000000000000006B
:10554000000000000000000000000000000000005B
:10555000000000000000000000000000000000004B
:10556000000000000000000000000000000000003B
:10557000000000000000000000000000000000002B
:1055800000000000000000000000000028000020D3
:045590000000000017
:10559400A4530000000003030053000000000000B7
:1055A40028530000000000004453000000000000E5
:1055B40070530000000000007C5300001C00002019
:1055C400CC020020940300209C030020D40200207D
:0455D40018000000BB
:0855D80068ACFF7F0100000038
:020000042000DA
:10000000010000000090D00300000000002000402C
:100010000000000000200040000000000000000080
:10002000FF00000028000020000000000000000089
:1000300000000000000000000000000000000000C0
:1000400000000000000000000000000000000000B0
:1000500000000000000000000000000000000000A0
:100060000000000000000000000000000000000090
:100070000000000000000000000000000000000080
:100080000000000000000000250200000102000046
:0400000300000241B6
:00000001FF
