:020000022000DC
:1070000000000420DD8202000583020007830200E5
:10701000098302000B8302000D83020000000000C0
:107020000000000000000000000000000F830200CC
:107030001183020000000000138302001583020088
:1070400017830200178302001D9E0200ED9D0200BF
:10705000F99D020017830200419B02001783020082
:1070600017830200178302001783020017830200B0
:1070700017830200178302001783020017830200A0
:1070800017830200F1BE020017830200119E020066
:10709000178302001783020045D9020017830200FC
:1070A0001783020017830200178302001783020070
:1070B0001783020017830200000000000000000098
:1070C000178302001783020017830200059E020047
:1070D0001783020017830200178302001783020040
:1070E0008DAB02001783020017830200000000002E
:1070F0000000000017830200000000001DA0020035
:10710000000000000000000000000000000000007F
:10711000000000000000000000000000000000006F
:10712000000000000000000000000000000000005F
:10713000000000000000000000000000000000004F
:10714000000000000000000000000000000000003F
:10715000000000000000000000000000000000002F
:10716000000000000000000000000000000000001F
:10717000000000000000000000000000000000000F
:1071800000000000000000000000000000000000FF
:1071900000000000000000000000000000000000EF
:1071A00000000000000000000000000000000000DF
:1071B00000000000000000000000000000000000CF
:1071C00000000000000000000000000000000000BF
:1071D00000000000000000000000000000000000AF
:1071E000000000000000000000000000000000009F
:1071F000000000000000000000000000000000008F
:1072000010B5054C237833B9044B13B10448AFF3E0
:1072100000800123237010BDB8230020000000006F
:1072200034FB020008B5034B1BB103490348AFF31D
:10723000008008BD00000000BC23002034FB0200D9
:10724000154B002B08BF134B9D46A3F5803A002138
:107250008B460F461348144A121A06F097FC0F4B40
:10726000002B00D098470E4B002B00D098470020F1
:10727000002104000D000D48002802D00C48AFF397
:10728000008006F049FC2000290000F081FB06F098
:107290002FFC00BF000008000000042000000000D8
:1072A00000000000B8230020682D0020000000002E
:1072B0000000000072DF704773DF704776DF7047B1
:1072C0007ADF70477CDF70477FDF70478FDF704762
:1072D000B1DF70474FF0A0430C22C3F80C27D3F85E
:1072E0001005C0F3C00070474FF0A0430C22C3F854
:1072F0001027D3F81005C0F300107047044B0C2280
:10730000C3F80C27D3F81005C0F3C000704700BFC6
:107310000003005004F0CCB9002000F05DBF00BFB6
:10732000012000F059BF00BF022000F055BF00BF90
:10733000002000F063BF00BF012000F05FBF00BF6E
:10734000022000F05BBF00BF08B5037803B108BDA1
:10735000054B3B211888FFF7B1FF0028F7D0BDE8A7
:10736000084004F0A5B900BF1A23002008B5292061
:107370006AB100F031FF0948094B0A49C01AC00838
:107380000004BDE8084040F0030005F093BE00F0A3
:1073900035FF0248024B0449F0E700BF8CFB0200B6
:1073A0008CFB0200D4DC0200E8DC02000B2801D0D8
:1073B00004F07EB9104B1148C01AC008000410B583
:1073C00040F003000C460E4905F074FE0D4B0E49CB
:1073D0001888224602F0F8F830F0080207D043F28D
:1073E0000202904203D043F20142904200D110BD0C
:1073F000BDE8104004F05CB98CFB02008CFB02007D
:10740000FCDC02001A2300202824002004F050B9DC
:1074100070B51C4D1C4982B022234FF480648DF856
:1074200007300DF107000122C5F80C4500F0D4FC2F
:10743000F7238DF807301449C5F808450DF107000A
:10744000012200F0C9FC20238DF8073001220E49EB
:10745000C5F80C450DF1070000F0BEFCD5F810355D
:10746000DA060CD5094E46F0010664244FF47A4042
:10747000B047013CFAD1D5F81035DB06F5D402B09F
:1074800070BD00BF000300504C24002060DD0200EE
:1074900010B50388212B82B0044630D80F2B2CD98D
:1074A000103B112B29D8DFE803F046092862282871
:1074B00028282828282828282828283C3A4B3B48D0
:1074C0003B49C01AC008000440F0030005F0F2FD7B
:1074D0000E2000F093FE374B4FF6FF721A8004F037
:1074E000B9F800285DD1344B01211878FFF7E4FE8C
:1074F000002853D10D2000F06FFE02B010BD522BBA
:107500003FD0562B09D1A0881321FFF7D7FE0028C2
:10751000F3D004F0CDF802B010BD3B2BF3D002B095
:1075200010BD00238088ADF8043001A9FFF7CEFE1E
:107530000028E2D0EDE71C4B1C482049C01AC008C7
:10754000000440F0030005F0B5FD0E2000F044FEFD
:107550000D2000F053FE174BA1881948198001F047
:1075600027FFC0B904F060F80028C6D0D1E7114A5F
:107570000023108885211A46FFF7A6FE0028BCD0FC
:10758000C7E70C4A0023108819461A46FFF7A0FEE9
:107590000028B2D0BDE704F08BF8E3E704F088F8E8
:1075A000A8E704F085F89EE78CFB02008CFB020044
:1075B00024DD02001A2300201823002018DD020019
:1075C000402400202DE9F047BA4BBB4C402282B04A
:1075D000C3F8082544F00104C8254FF47A40A047B9
:1075E000013DFAD1B34B4022C3F80C250A254FF4D4
:1075F0007A40A047013DFAD1AE4B4022C3F808259E
:10760000C8254FF47A40A047013DFAD1A94ED6F8DB
:107610001035DD0609D564254FF47A40A047013DB9
:10762000FAD1D6F81035DD06F5D4A24EA3494FF4B1
:10763000806312228DF807200DF10700C6F80C3583
:10764000012200F0C9FBD6F81035D80609D564250B
:107650004FF47A40A047013DFAD1D6F81035DA064A
:10766000F5D4944D954901264FF480674FF0C70932
:107670008DF8076032460DF10700C5F80C7500F073
:10768000ABFB4FF000088D498DF8079032460DF1A5
:107690000700C5F8087500F09FFB88498DF8078042
:1076A00032460DF10700C5F8087500F095FB8349D7
:1076B0008DF8076032460DF10700C5F8087500F037
:1076C0008BFB11238DF807307C49C5F80C753246C9
:1076D0000DF1070000F080FB78498DF80760324615
:1076E0000DF10700C5F8087500F076FB44238DF80E
:1076F00007307249C5F80C7532460DF1070000F0ED
:107700006BFB4FF0180A6D498DF8078032460DF17A
:107710000700C5F8087500F05FFB68498DF807A001
:1077200032460DF10700C5F8087500F055FB4523FA
:107730008DF807306149C5F80C7532460DF1070028
:1077400000F04AFB5D498DF8079032460DF10700C5
:10775000C5F8087500F040FB58498DF8078032469F
:107760000DF10700C5F8087500F036FB53498DF898
:10777000078032460DF10700C5F8087500F02CFBB4
:107780004E498DF8078032460DF10700C5F808759F
:1077900000F022FB3C238DF807304849C5F80C75F2
:1077A00032460DF1070000F017FB44498DF80760E1
:1077B00032460DF10700C5F8087500F00DFB3F4992
:1077C0008DF807A032460DF10700C5F80C7500F0E2
:1077D00003FB80238DF807303849C5F80875324619
:1077E0000DF1070000F0F8FA22238DF80730334935
:1077F000C5F80C7532460DF1070000F0EDFAB12323
:107800008DF807302D49C5F8087532460DF107008F
:1078100000F0E2FA20238DF807302849C5F80C75EE
:1078200032460DF1070000F0D7FA4E238DF80730ED
:107830002249C5F80C7532460DF1070000F0CCFA6C
:107840001E498DF8078032460DF10700C5F808750E
:1078500000F0C2FA4F238DF807301849C5F80C75AF
:1078600032460DF1070000F0B7FA14498DF8079081
:1078700032460DF10700C5F8087500F0ADFA0F4962
:107880008DF807803246C5F808750DF1070000F045
:10789000A3FAD5F81035D90609D564264FF47A40F5
:1078A000A047013EFAD1D5F81035DB06F5D402B079
:1078B000BDE8F0870003005060DD02004C2400208A
:1078C0002DE9F043164F174983B024234FF4806607
:1078D00081468DF807300DF10700C7F80C650122CD
:1078E00009F11805884609F59D5900F075FAA5F1CA
:1078F000190414F8013F8DF807300122C7F8086514
:1079000041460DF1070000F067FAAC42F1D104F1F5
:1079100019054D45EBD1FFF77BFD03B0BDE8F083C2
:10792000000300504C2400202DE9F043164F174966
:1079300083B024234FF480668DF807300DF10700E3
:10794000C7F80C650122884600F046FA4FF0C809D6
:1079500019240025013C8DF807500122C7F808655D
:1079600041460DF10700A4B200F036FA002CF1D127
:1079700009F1FF391FFA89F9B9F1000FE8D1FFF7D2
:1079800047FD03B0BDE8F083000300504C24002005
:1079900070B50120ACB000F073FCC54B0322002190
:1079A000C3F81827C3F82827C3F82C27C3F81017E3
:1079B00000F036FC04F05CF8002840F06981BD4816
:1079C00040F23332012103F0CFFD002840F0C681A0
:1079D00005F082F8002840F0BE8105F021FF002864
:1079E00040F0B68100231DA901201D9305F0F4FF8E
:1079F000002840F0AA811DA806F048F8002840F0B1
:107A0000A1811123AC488DF8383006F031F9AA492C
:107A100082B20EA8FFF756FC002840F090810822A1
:107A200000211DA806F0B2F8A44B1D931DA84FF02D
:107A3000C8731E93FFF744FC002840F07D81A048E6
:107A4000002101F0A7FB002840F073819D4B9E4868
:107A50001D9300221DA90E9201F098FC002840F011
:107A600065819A4B9A480E930EA901F045FD0028B6
:107A700040F05981964B974C9B7C8DF80E303C2200
:107A800041F2235300210EA8ADF80C3006F07EF829
:107A9000022040F201633C2200218DF838001DA82D
:107AA000ADF83A3006F072F822460123ADF8843082
:107AB00052F8041B03AB0EA8229300F0BDFD002872
:107AC00040F02E81A168844A1DA800F0B5FD002871
:107AD00040F0EA801822002104A806F057F800239D
:107AE00001214FF48070ADF81C3005938DF8101013
:107AF0004023ADF8240077497848069304AAFFF79D
:107B0000D9FB002840F0CD801C2200211DA806F0E2
:107B10003DF800234FF4A030714A1D93ADF8823038
:107B20008DF884306F4B1F904FF4A02403211DA8C3
:107B3000CDE922231E948DF8801001F0B1F80028C1
:107B400040F0AC80684B69486949C01AC00800041D
:107B500040F0030005F0AEFA604B01211878FFF702
:107B6000ABFB002840F097800D2000F035FB00F0C3
:107B700003F900F07BF900F04FF94D4B5D4D4FF4E8
:107B80008062C3F80C254FF400614022C3F80C1545
:107B9000C3F80825FFF716FDFFF7C6FE4FF4FA7489
:107BA00045F001054FF47A40A847013CFAD141F273
:107BB000883005F0D5FF0446002800F0D280C822A6
:107BC000FF2611464FF48773009600F055F92046C2
:107BD00000F074F9304600F077F9474800F0C4F936
:107BE0002046FFF76DFE4FF4FA644FF47A40A84741
:107BF000013CFAD14149224604A800F0D9F9404994
:107C000022460EA800F0D4F93E4922461DA800F0F5
:107C1000CFF93D4A214604A800F0E4F93B4A01218E
:107C200004A800F0DFF93A4A21460EA800F0DAF97C
:107C3000384A01210EA800F0D5F9374A21461DA87F
:107C400000F0D0F9354A01211DA800F0CBF904A8B5
:107C500000F0CCF90EA800F0C9F91DA800F0C6F993
:107C600000F0DAF905F0FEF878B1002000F0EEFA45
:107C700040F6B8344FF47A40A847013CFAD100F0FE
:107C8000CBF905F0EFF80028EFD104F03BFFECE76B
:107C900003F00EFD93E603F00BFD65E703F008FD2E
:107CA00050E703F005FD2FE703F002FD12E700BFE8
:107CB000000300500023002034DD02005000A0002B
:107CC0001424002015730200402400206D7302006C
:107CD000282400200823002014230020182300203B
:107CE000497302000D7402008CFB02008CFB020041
:107CF00044DD020060DD020068DD0200D572020092
:107D0000E9720200FD720200197302003173020071
:107D100021730200397302002973020041730200CB
:107D200003F0C6FCCEE603F0C3FCA3E603F0C0FC00
:107D300097E603F0BDFC89E603F0BAFC7FE603F0AA
:107D4000B7FC6CE603F0B4FC5BE603F0B1FC52E672
:107D500003F0AEFC46E603F0ABFC3EE603F0A8FC05
:107D600036E64FF0FF302CB070BD00BF014B012252
:107D70001A7070471C23002070B5134B0FCB84B0D2
:107D80006C4684E80F00002542F62F52FF20214662
:107D90004FF080660424ADF800208DF802000B4AF5
:107DA0000B488DF80C502B4602968DF8044001F0DC
:107DB00049FC28B9074B0322C3F82C2704B070BD37
:107DC00003F076FCF6E700BFF0F002006D7D0200E4
:107DD00000F102000003005070B584B000250C4C87
:107DE000009013460E460B4801932A4669460393BA
:107DF0000296257002F036FB08B105E020BF23781B
:107E0000002BFBD004B070BD03F052FCF7E700BFBD
:107E10001C23002004F1020070B5114B0FCB84B07D
:107E20006C4684E80F00002542F62F52FF202146C1
:107E30004FF000460424ADF800208DF80200094AF6
:107E400009488DF80C502B4602968DF8044001F03D
:107E5000F9FB08B904B070BD03F02AFC04B070BD92
:107E6000F0F002006D7D020000F10200014802F016
:107E70008DBA00BF04F1020030B40F4CBDF80850B9
:107E8000A5810225E58220604D074FEAD1001CBF85
:107E9000013080B20025218162816082A282E3816B
:107EA000258223B1B42B02D00B4611461A46E2803C
:107EB000A18030BC704700BF302D0020014B1860FE
:107EC000704700BF302D002070B4264CE38A022B8F
:107ED00005D0042B03D0072B21D070BC7047A28A99
:107EE000002AFAD0638AC0B200269BB1B5B2002244
:107EF000216805FB03F311FA82F10132C854638A49
:107F000091B28B42F4D8A28A0136B1B29142ECD33D
:107F100070BC70470136B1B29142F5D3DDE7A18A5A
:107F20000029DAD040EA0010628AC3B200269AB172
:107F3000B5B20021206805FB02F210FA81F0013190
:107F40008354628A88B28242F4D8A18A0136B0B2E0
:107F50008842ECD370BC70470136B0B28842F5D38A
:107F6000BBE700BF302D002010498A8AEAB1F0B487
:107F70004B8A0027A3B1BEB2002206FB03F313FA1B
:107F800082F30C68C55CE55401324B8A94B2A3427B
:107F9000F3D88A8A0137BCB29442EBD3F0BC704765
:107FA0000137BCB29442F5D3F8E77047302D00207A
:107FB00070B505460E4614460021282205F0E6FD60
:107FC000AB786E60082262F30713AB70B047A40170
:107FD000EB7804F0400444EAC01403F03F031C4370
:107FE000EC7070BD023140F82120704709490A68E1
:107FF00042B182420AD0134601E0984206D05B6A41
:10800000002BFAD142620860002070474FF0FF3029
:10801000704700BF54240020F8B56B4B1F68002F39
:108020003FD06A4C6A4E6B4D7B689847FB785A0785
:1080300002D03A8801323A80B0EBD31F4FEAD31115
:1080400074D0C3F3C202013202F0070262F3C50327
:10805000022AFB7007D9DBB200F0010161F3C713FC
:108060006FF3C503FB70FB7803F00702052A15D8F0
:10807000DFE802F0294933181403C3F380138B425D
:10808000BB787CD00121FA6861F30713BB700AB199
:1080900038469047FB786FF30203FB707F6A002F2E
:1080A000C2D1F8BDC3F380138B42F7D0BB78FA6816
:1080B000012161F30713BB700AB1384690473B8832
:1080C0003B2BE7D82CE0C3F380138B42BB784AD01C
:1080D000082262F30713BB70E0E7C3F380138B42FF
:1080E00028D03B883C2BD9D9BB7803F00F02012A5A
:1080F00061D0022ACED10421BA6961F30713BB70A3
:10810000002AC5D1C6E7C3F380138B4241D0BB78A8
:10811000FA68012161F30713BB700AB13846904732
:108120003B68234043F000733B60B7E76FF3C50340
:10813000FB7098E7BB78BA686FF30713BB700AB19E
:1081400038469047BB783A69013303F00F0343F098
:108150002003BB700AB1384690473B68234043F088
:1081600040733B609AE7BA686FF30713BB700AB1BC
:10817000384690473B6833402B433B608EE70621EF
:108180003A6A61F30713BB70002A87D038469047DC
:1081900084E73B88C82B81D9BB78FA69052161F354
:1081A0000713BB700AB138469047FB78052262F38B
:1081B0000203FB7072E703217A6961F30713BB7056
:1081C000002A7FF465AF65E7542400200000FFF823
:1081D0000000F0F800000101064B1A5C1F2A86BF60
:1081E000054902F01F024FF0A04101239340C1F85E
:1081F0000C35704710F1020000030050064B1A5C6A
:108200001F2A86BF054902F01F024FF0A04101233B
:108210009340C1F80835704710F102000003005088
:108220004FF0A04310B44FF000504FF080544FF087
:1082300080414FF00042C3F80C45C3F80C05C3F869
:108240000C15C3F80C255DF8044B70470A4B185CFD
:108250001F288ABF09494FF0A04100F01F00D1F844
:1082600004350122824022EA03001340C1F80805C8
:10827000C1F80C35704700BF10F102000003005038
:10828000C20730B40ED483070AD54FF0A0430C22A6
:10829000C3F82C27C3F83027C3F86027C3F8642736
:1082A00030BC70474FF0A0430322C3F870274FF053
:1082B0008055C3F874274FF00054C3F878274FF067
:1082C0008041C3F87C274FF00042C3F80855C3F83B
:1082D0000845C3F80815C3F80825D4E70649074A36
:1082E000074B9B1A03DD043BC858D050FBDC00F061
:1082F00013F8FEF7A5FF0000ECFB020000230020AE
:10830000B8230020FEE7FEE7FEE7FEE7FEE7FEE714
:10831000FEE7FEE7FEE7FEE710B4754B1B68082B8F
:108320001CD0744AD2F8883043F47003C2F8883005
:10833000BFF34F8FBFF36F8F4FF01023D3F800229E
:10834000002AC0F2A380D3F80432002BC0F29E8032
:10835000694B6A4A1A605DF8044B70474FF08041E0
:108360004FF080520020C1F80C01654BC1F810019C
:10837000C1F83805D2F80414C3F82015D2F808144F
:10838000C3F82415D2F80C14C3F82815D2F8101429
:10839000C3F82C15D2F81414C3F83015D2F81814F9
:1083A000C3F83415D2F81C14C3F84015D2F82014C1
:1083B000C3F84415D2F82414C3F84815D2F8281489
:1083C000C3F84C15D2F82C14C3F85015D2F8301459
:1083D000C3F85415D2F83414C3F86015D2F8381421
:1083E000C3F86415D2F83C04C3F868054549D2F8CF
:1083F0004004C3F86C050968D2F84424C3F870251A
:10840000032937D8404B5B5C13B1404B404A1A609C
:10841000404B5B5C63B1364B3F491B68394AFB20DC
:10842000C1F81805082B11687FF47BAF032921D808
:108430003A4B5B5C93B13A483A4B2D4C02681B684F
:108440002468304922F00F0203F00F031343082C75
:10845000096803607FF465AF03290BD8324B5B5C7E
:1084600043B1234B314A1B684FF40071082B116054
:108470007FF457AF4FF08043D3F80024D2077FF545
:1084800050AF6FF00102C3F800244AE7284A0123E5
:10849000C2F80435D2F80034002BFBD04FF0102383
:1084A0001221234AC3F80012D2F80034002BFBD06B
:1084B0004FF0102312211E4AC3F80412D2F80034E0
:1084C000002BFBD000231A49C2F80435D1F8003440
:1084D000002BFBD0BFF34F8F0649164BCA6802F43E
:1084E000E0621343CB60BFF34F8F00BFFDE700BFD7
:1084F0003001001000ED00E0202300200090D003A8
:1085000000C000403401001014F102008C560040FD
:108510004881030014F1020000F0004014F1020051
:10852000E40E00405802001014F102004096024090
:1085300000E001400400FA056DDF704779DF704705
:108540007DDF704764DF70472DE9F04F87B0074645
:10855000119D00882C880394BDF84840DDF840A0A8
:10856000CDE90142002858D04FF0000988461E4648
:10857000CB4604E03A880BF1010B93452CDAD8F88E
:10858000002052F82B00059000220DF1130105A8E0
:10859000FFF7D8FF044658BB9DF81320B242E9D13B
:1085A000B9F1000F28D02A88019B9119994239DC32
:1085B00052440DF1130105A84FF00109FFF7C2FF66
:1085C000002834D129889DF813200A442A803A884B
:1085D0000BF1010B9345D2DBB9F1000F1DD02B88B5
:1085E000039A013B9B1A9BB2FF2B1BD80AF802305F
:1085F000204607B0BDE8F08F2A88019B511C324409
:1086000002329A4289B20DDC029B29800AF80130BD
:108610002A88013292B22A80CAE70024204607B095
:10862000BDE8F08F0C24204607B0BDE8F08F04466B
:10863000204607B0BDE8F08F2DE9F04700231788EA
:10864000138090F82D3088B0144605460E46002B56
:1086500040F00081AA78002A40F0F580E978A1B1C5
:10866000DA1CBA4200F2F2800222F254238801336B
:108670009BB201222380F254238813449BB22380AF
:10868000F154238813449BB223806A68AAB1D91C91
:10869000B94200F2DB80022192F90020F1542388D4
:1086A00001339BB20A212380F154238801339BB20A
:1086B0002380F2542388013323802B89002B40F040
:1086C000F3802B8A002B40F02B812B8B002B40F06A
:1086D00046812B6A002B44D02088821DBA4200F2CA
:1086E000B5801A88052A40F299816FF4486802EB38
:1086F000080189B24FF27D3C614540F28F81598873
:10870000052940F28B816FF4486E8E441FFA8EFE6D
:10871000E64540F283814FF6FF7C624504D0614517
:1087200002D08A4200F27A81052232542288013234
:1087300092B212212280B1542288013292B2228058
:108740001988B1543244090A51702288023292B217
:1087500022805B88B35432441B0A5370238802334F
:1087600023806B6A002B2FD09988B4F800C0881C36
:108770000CF102020244BA4268D8FE2866D80331DE
:1087800006F80C102288013292B2FF212280B154E7
:108790002288013292B222801988B1543244090AE7
:1087A00051702088023080B220809A8862B1996826
:1087B0000593002900F03281304405F0D9F9059B7A
:1087C0009A8823881344238095F82C30002B40F09E
:1087D000E380287800283AD02B88012B00F01E81F6
:1087E00023889A1CBA4231D8012804D16978023111
:1087F00019448F422AD3023FFF1ABFB2B01806A90C
:10880000ADF81870FFF79CFE08BB2B78022B00F028
:108810000D816978BDF818209142C0F0038197421C
:10882000C0F0008117460922FE2F0FD82388791C3B
:10883000F154238801339BB22380F25423880133FF
:108840001F44278003E00433BB424CD90C2008B0FE
:10885000BDE8F087082FF9D906A8FFF76DFE0028BC
:10886000F5D123880822F254238801339BB21B22BE
:108870002380F2542088013080B2208006223044C8
:108880000DF1190105F074F923889DF818200633BD
:108890009BB212F0FE0218BF01222380F2542388FB
:1088A00001339BB22380D5E605F10808022305F1C8
:1088B0000C01CDE90147009640461A460591FFF7A5
:1088C00043FE0028C3D1CDE90147059900964046F3
:1088D00010230622FFF738FE0028B8D12B8A002B80
:1088E0003FF4F3AE1CE006A8FFF728FE0028AED147
:1088F0002388BDF818200321F154238801339BB24B
:1089000019212380F154238801339BB2F11823806D
:10891000F254130A4B70238802339BB223809DE6E6
:1089200005F1100805F11401CDE901470096404614
:10893000022303220591FFF707FE002887D1CDE926
:10894000014705990096404610230722FFF7FCFDDA
:1089500000287FF47CAF2B8B002B3FF4BAAE05F1DF
:10896000180805F11C01CDE9014700964046022395
:1089700014220591FFF7E8FD00287FF468AFCDE9E8
:10898000014705990096404610231522FFF7DCFDAC
:1089900000283FF49EAE5AE7A96A00293ED04FF066
:1089A00000094B464FF0160A2BE02388F054238829
:1089B00001339BB2238006F803A0238801339BB2C6
:1089C000238031F82220F2543344120A5A7020884E
:1089D000023080B22080B8F8042030444AB1D8F880
:1089E0000810D9B105F0C4F8B8F80420238813445E
:1089F000238095F82C205FFA89F39A427FF6E9AE3E
:108A0000A96A03EB430201EB820809F10109B8F8F6
:108A10000430D81C0233FE2BC7D917E7072008B053
:108A2000BDE8F087012B08D00822FDE6BDF818301C
:108A30009F42F9D31F460922F6E68F42F4D30F4630
:108A40000822F1E675DF704776DF70477ADF7047FE
:108A50007BDF704770B51B4D2B8884B2A34282B078
:108A600011D1194E297A327B91420ED3337C0022E8
:108A70002A72DBB9736933B10022ADF806408DF874
:108A8000042001A8984702B070BD184605F10A01FC
:108A9000FFF7D8FF28B11128F5D0B369002BF1D129
:108AA000F1E72B7A01332B7202B070BD3B212046D7
:108AB000FFF7CAFF30F00803DCD0B369002BD9D030
:108AC0009847D7E77424002058240020F0B5028886
:108AD000122A83B003463ED015D8102A73D0112A2B
:108AE0000FD16C4C828823889A420AD1606803F0C7
:108AF00049F818B1684B9B6903B198474FF6FF736B
:108B0000238003B0F0BD502AFBD1634DC188EA89B0
:108B10009142F6D1028A022AF3D15E4C82882688DD
:108B20009642EED1123000F0A9F9002800F09C80A6
:108B3000637A002B40F09F80D5E90113277A6068A3
:108B40003246002F18BF194602F0D6FF0028D8D0B1
:108B5000AB693BBBD5E74F4C828821889142D0D18D
:108B60004089658985421FD8A58985421CD3E08943
:108B70009D8940F2F313984294BF031AC31AAB4283
:108B800012D800F2F310A8420ED3434B5B694FF4A6
:108B900080722281002BB4D00122ADF806108DF82E
:108BA000042001A89847ACE73B4D267A6068D5E9D8
:108BB0000113002E18BF19460023637202F09CFFB8
:108BC0000028C5D19DE7C67B012E9AD1314C218862
:108BD0004FF6FF7291423FD1304D8288228003CD03
:108BE000C4F80A00C4F80E10598A6089002588422A
:108BF000257222D8A08988421FD3E189988A40F241
:108C0000F313994294BF4B1ACB1A834215D801F241
:108C1000F311814211D3204D6672EB89002B7FF452
:108C200070AF6B69002B3FF46CAF0121ADF80620EB
:108C30008DF8041001A8984763E7174DEB890021D0
:108C40006172002B7FF45DAF6068696802F054FFC9
:108C500000283FF456AF7BE70F4B9B69002B3FF496
:108C600050AF042098474CE7606802F08BFF002863
:108C70003FF447AF6CE76B6900222272002B3FF490
:108C800040AF0122ADF806608DF8042001A8984796
:108C900037E700BF742400205824002088240020D7
:108CA00070B3F8B5054606460FCD164F3C460FC4C7
:108CB000844695E80700144D3D6084E80700BCF148
:108CC000000F17D06046FFF7C1FE90B933681868EF
:108CD000596803C50D4B0E490E4A18464FF6FF74EE
:108CE00040F8041F1C80002102F0F8FE002818BF85
:108CF0000320F8BD2846FFF7ABFE0028EAD0F8BDF8
:108D00000E2070475824002088240020742400205E
:108D100090240020558A02002DE9F04703888788B7
:108D2000103B98B004460A2B1CD8DFE803F030292A
:108D30001B1B1B1B1B1B1B1E0600037A46483F2BDD
:108D40004FEA1314394667D803F07CF9032C65D039
:108D50004248394603F076F9022C63D04048394640
:108D600003F070F918B0BDE8F087037A002BF9D151
:108D7000437A39481B0739466BD503F059F9F1E7B7
:108D80003848394603F05EF918B0BDE8F087364A36
:108D90009368DB4300935168684603F083F9009BB6
:108DA0000193019B83B300263546294601A803F0B1
:108DB00053F928B118AB03EB4603013623F8285CBE
:108DC0000135142DF1D10D960DF1340CBCE80F00D6
:108DD00002AD0FC5BCE80F000FC59CE8070085E891
:108DE00007008EB10DF10A08DFF888A008EB4606EF
:108DF00038F8029F1D4D28464946043503F022F9F4
:108E0000AA45F8D1B045F3D1132F12D9042002F0AE
:108E10004FFC18B0BDE8F08703F00AF90F48394657
:108E200003F006F90E48394603F002F918B0BDE820
:108E3000F0870C48394603F0FBF80C48394603F03C
:108E4000F7F8E37B022B8DD10948394603F0F0F89F
:108E500088E703F0F7F885E7C8240020C424002041
:108E6000C0240020B8240020B0240020B424002016
:108E7000BC2400202C250020AADF7047007800F0D9
:108E800001007047F0B58B7891B0012B0C46098832
:108E9000ADF80C1038BF012305461646684603227C
:108EA00000218DF80E3004F071FE637C0022013B3E
:108EB0008DF80020042B09D8DFE813F0CF00D30091
:108EC000D700DB00050022238DF80030A37C0022B0
:108ED000013B8DF80120042B09D8DFE813F0CE0008
:108EE000D200D600DA00050022238DF80130E77B9E
:108EF000237B207C217D9DF8022043EAC70343EABF
:108F0000001322F01902002903F0190343EA0203B7
:108F100014BF0222012262F3420309A81C2200218D
:108F20008DF8023004F032FE637B13F0300F73D102
:108F3000627BA37B8DF824200021142204A88DF8E5
:108F4000253004F023FEA368A288CDF814D003A92D
:108F50000491ADF81C201BB1E2880893ADF81820ED
:108F6000A369002B36D001AF03220021384604F05C
:108F70000DFEA2691388ADF82C305388ADF82E3061
:108F800051680D97137B0A91013B00218DF8041065
:108F9000042B2DD8DFE803F095999D892900222321
:108FA0008DF80530977A137AD07A917B9DF8062058
:108FB00043EAC70343EA001322F01902002903F031
:108FC000190343EA020314BF0222012262F342039F
:108FD0008DF80630E36903B10C93334604AA09A95E
:108FE0002846FFF749FF11B0F0BD22238DF8043069
:108FF000537B0021013B8DF80510042BD2D801A131
:1090000051F823F0B3900200BB9002009B90020045
:10901000A39002009F8F020002AF03223846002176
:1090200004F0B4FDE37C0022013B8DF80920042B01
:1090300007D8DFE803F0525E5A56030022238DF86A
:1090400009309DF80A300E97012262F34203112283
:109050008DF80A308DF808206AE711238DF800306A
:1090600034E721238DF8003030E731238DF80030CC
:109070002CE712238DF8003028E711238DF80130FA
:1090800035E721238DF8013031E731238DF80130A8
:109090002DE712238DF8013029E731238DF80530B3
:1090A00080E712238DF805307CE712238DF8043019
:1090B0009EE711238DF8053074E721238DF80530E4
:1090C00070E711238DF8043092E721238DF80430E6
:1090D0008EE731238DF804308AE711238DF80930AB
:1090E000AFE712238DF80930ABE731238DF8093053
:1090F000A7E721238DF80930A3E700BF90DF704771
:10910000A5DF7047B5DF704770B5002384B0002439
:1091100060F30F0360F31F436A46204602A9CDE9BE
:1091200002340094ADF80440FFF7E8FF054610B99B
:10913000284604B070BD124B124EF61AF60803F022
:109140004DFD360446F0010603460F4922463046DF
:1091500004F042F9BDF80020BDF8023052EA0301E4
:1091600003D00A49304604F037F9BDF80420002A3C
:10917000DED03046064904F061F8284604B070BDE0
:109180008CFB0200A4FB020018F1020064F1020053
:10919000A4F1020008B90E20704730B403464FF026
:1091A00017121B25002041F61B3419611A60C3F801
:1091B00006201D7158819C8130BC70478288002A2E
:1091C00059D110B50388242B82B00C4611D80F2B2F
:1091D0004FD9103B142B4CD8DFE803F060744B4B95
:1091E0004B4B4B4B4B4B4B4B4B4B4B4B4B4B4B44D6
:1091F0004E003A2B70D0552B3BD1C388C988A27240
:10920000172B38BF17238B4228BF0B4610462381EC
:10921000FFF778FF00287ED1E37A53BB236943B37D
:109220002289ADF8042040F6772100912046694656
:109230009847A37AA3B1E1880020FFF761FF0028D7
:1092400062D011280CD003F0C9FC4A4B4A490246AF
:109250004A481B1ADB081B0443F0010003F0EEFF31
:1092600002B010BD007A0B7B984228BF1846FFF76A
:109270004BFFA37ADEE770470B69027A4A73002B33
:10928000F7D000204DF67A218DF8050000918DF879
:109290000420694620469847A37ACBE70B790B73E5
:1092A000C27B012A45D0022A33D14988E180228934
:1092B0008A4241D3627B9A42DBD21846FFF724FFF1
:1092C000A37AB7E74FF01711002241F61B33C4F819
:1092D00006106281A381C3E74389C98822698B4252
:1092E00028BF0B46172B38BF172323814AB1E17AD9
:1092F00039B140F677210091ADF804306946204637
:10930000904700236381ABE74FF48073638102B021
:1093100010BDC988CBE703F061FC164B1849024623
:1093200016481B1ADB081B0443F0010003F086FFFC
:1093300072E70988E180BAE70020FFF7E1FE18B97B
:109340000123E372237BB5E7112803D10123A37224
:10935000237BAFE703F042FC064B07490246074870
:109360001B1ADB081B0443F0010003F067FF237B9B
:10937000A0E700BFA4FB0200FCF102008CFB02008E
:1093800030F20200B0DF704766DF704760B159B15C
:109390000378DE2B0AD00B684360DE224FF6FF73A2
:1093A00002704380002070470E20704708207047ED
:1093B00038B10378DE2B02D14180002070470820AD
:1093C00070470E20704700BF19B330B5054685B011
:1093D00018B10B78DE2B0C4601D005B030BD80886B
:1093E0004B889842F9D10B7A002B32D12B88112B64
:1093F0004BD0512B12D0012BEFD12B7A012BECD17A
:10940000012525720021FFF7BFFF002851D12072EE
:10941000E3E77047A88863888342DED1AB79022BEB
:10942000DBD1AA7B02F0FD01042935D0052AD4D175
:1094300000226946C1E902224A600092ADF8042088
:109440008DF80030FFF79EFF0028C6D0636898476C
:10945000C3E70021FFF798FF0346D8B1112818D0C1
:10946000636898472B88112B0BD0512BD2D0012B3E
:10947000B3D12B7AAA88012BAFD160889042ACD1AE
:10948000BEE7AA8863889A42A7D14FF6FF7363802C
:10949000A3E701232372E5E7694600224FF4C07574
:1094A0004A600092C1E902228DF80030ADF8045004
:1094B000C8E71128CAD125728FE700BFA8DF70471F
:1094C000AEDF704762DF70470288502A00D07047D5
:1094D00010B44A88C488944202D05DF8044B7047A7
:1094E000028A012AF9D14B69002BF6D0827C5DF803
:1094F000044B8088184700BFF0B5324B04460D4638
:109500000FCB2D6865618FB002AD85E80F0028464E
:1095100004F11201FFF7D6FF08B10FB0F0BDA37C34
:109520008DF80630224641F2235301A90120ADF8FF
:109530000430FFF7C3FF0028EFD10146202206A820
:1095400004F024FB9DF82530A17C8DF81A102246EA
:1095500023F01203012543F0120341F224574FF088
:10956000011632F80A0B8DF8253006A9ADF81870EF
:1095700007968DF829508DF82B50FFF783FC0028B3
:10958000CBD10146202206A804F000FB9DF825302F
:10959000A77C0796224623F00A0343F00A0332F819
:1095A000020B8DF8295006A941F225548DF82A5056
:1095B0008DF825308DF81A70ADF81840FFF762FC71
:1095C0000FB0F0BD70F2020070B50D4688B01346C2
:1095D0000446012604A8102200218DF80730ADF8BA
:1095E0000E6004F0D3FA6B89ADF810300DF107026C
:1095F0000DF10E03204604A9CDE906328DF8126064
:10960000FFF75EFF08B070BD30B587B005784468DD
:109610008DF8045002948568084A094B8DF80C5067
:10962000D0E9034053F821308DF8140052F821108E
:10963000049401A8984707B030BD00BF2C25002036
:109640003C2500202DE9F04F1A4EDFF86CE0DFF8E2
:109650006C90DFF86CA00C46154607469B4696E8D2
:109660000F0087B002AE86E80F0017F804CB23681E
:109670000193002D4EF82C5094F8058094F804E0E6
:109680004AF82CB0314608BF2A46019EA568A48935
:109690000296384618BF4A4663468DF80DE08DF8AD
:1096A0000E800495ADF8144000F038FD07B0BDE819
:1096B000F08F00BF80F202003C25002009960200D6
:1096C0002C25002030B585B0047845688DF8004021
:1096D000D0E90240064A074B039053F82130019528
:1096E00052F821108DF808406846984705B030BD03
:1096F0004C2500205425002030B585B004784568FD
:109700008DF80040D0E90240064A074B039053F819
:109710002130019552F821108DF80840684698478D
:1097200005B030BD4C250020542500202DE9F04720
:10973000DFF8748090F800E04B7F08F80E300D469B
:10974000074616460FCD88B06C460FC495E80F004B
:109750003D78DFF85890DFF858C018F8055049F800
:109760002E6084E80F004CF82E00CDF810E05DB1BB
:10977000002E0B4A694607F1040008BF324601F08B
:109780005FFB08B0BDE8F087002E064A694607F186
:109790000C0008BF324601F013F808B0BDE8F087AE
:1097A000C5960200F9960200482D0020542500209D
:1097B0004C250020F0B5254C94F85B3083B0002B8D
:1097C00041D14FF6FF70FF255A09012A0CBF02460E
:1097D0004FF0FF3203F01F01CA40D20748BFE21822
:1097E00003F1010348BF82F82450302BECD14FF035
:1097F000FF334FF0FF364FF0FF37062200211448A9
:109800002362C4E9003384F85430C4E90267C4E930
:109810000467C4E9066704F0B9F90E4BE02283F847
:10982000062340221A600C4B0C4A002018601B686B
:109830000193019D01214FF0004384F85B10C2F8B1
:10984000043303B0F0BD082003B0F0BD6025002054
:10985000B525002000E100E07C6100400060004090
:10986000034B93F85B00003818BF0120704700BF1E
:1098700060250020F0B4544B1C1894F92450002D9E
:1098800068DA8D78AF071DD51D68013500F0968028
:109890005C6801347ED09C68013400F08380DC6811
:1098A000013400F081801C6901347FD05C6901348F
:1098B0007ED09C6901347DD0DC6901347CD00420E9
:1098C000F0BC70471D6A0135F9D1082584F8245091
:1098D0001A6283F854002C468A7855071AD4D607A2
:1098E00047D41F284D7887BF384E00F01F0202462C
:1098F0004FF0A04602F5E072AD0046F82250344E1B
:10990000C50800F0070C775D012202FA0CF23A4319
:1099100072558A7812F002021FD0A30003F180432F
:1099200003F5C0430978D3F8104524F44F3424F4E8
:109930004074C3F8104502020904D3F8100501F47D
:10994000403102F47C520A430243C3F81025002040
:10995000F0BC70470820F0BC7047083C23440878EE
:1099600093F8541041EA801183F854101046F0BC6B
:1099700070471F2887BF154A00F01F0505464FF0A6
:10998000A04202EB8502D2F8005725F00205C2F88A
:109990000057B4E701241D1843F8242064B285F869
:1099A000244099E70224F6E70324F4E70424F2E7CD
:1099B0000524F0E70624EEE70724ECE7002584F809
:1099C00024501A602C4687E76025002000030050D1
:1099D000B525002070B4324C251883B095F9243099
:1099E000072B22DD234493F84C309B09032B46D0F0
:1099F000012B0CBF4FF400324FF440321F288ABFB6
:109A0000284B4FF0A04300F01F0003EB8000D0F87C
:109A1000003723F44033C0F80037D0F800371A433A
:109A2000C0F8002703B070BC7047DAB2072AF9D833
:109A3000980000F1804000F5C04003F14002920020
:109A4000D0F8106592B202F1804202F5C04246F0B1
:109A50000106C0F810650020106012680192019A9A
:109A60000029DFD095F9242054F82220002AD9D0EB
:109A70000D49012202FA03F3C1F80433D2E71F288B
:109A80008ABF084A4FF0A04200F01F03D2F8102509
:109A900098BF0346DA4002F0010202321204ADE739
:109AA000602500200003005000600040194B034473
:109AB00093F92430072B13DD1F288ABF164B4FF074
:109AC000A04300F01F0003EB8000D0F8003723F420
:109AD0004033C0F80037D0F80037C0F8003770477F
:109AE000DAB2072A14D810B49A0002F1804202F5C3
:109AF000C0420A4CD2F81005012120F0010001FA01
:109B000003F3C2F81005C4F808335DF8044B70473E
:109B1000704700BF60250020000300500060004037
:109B20001F288ABF054B4FF0A04300F01F00D3F859
:109B3000103523FA00F000F00100704700030050D8
:109B40002DE9F047002384B0CDE902339B4A116828
:109B5000012900F027811E46994B1A68012A00F05E
:109B60001381984B1A68012A00F00081964B1A68FD
:109B7000012A00F0ED80954B1A68012A00F0DA8086
:109B8000934B1A68012A00F0C780924B1A68012A89
:109B900000F0B480904B1A68012A00F0A1808F4B2E
:109BA0001A68012A03D0C6B904B0BDE8F0870022C4
:109BB0001A601B6801934FF0A042019BD2F8201558
:109BC000874B0291C2F82015D3F82025039246F066
:109BD0000041C3F82025EEB10E46824F0125002436
:109BE000A30003F18043354203F5C0434FEA450526
:109BF0000BD0D3F8100557F82420D3F81015C0F374
:109C00000520C1F3014102B190470134082CE7D18E
:109C1000002EC9DA734E724C01274FF0A04596F919
:109C20005400431C45D0C0F3C20204AB1A4400F0F8
:109C3000070312F8082C07FA03F31A42C1B200F026
:109C40003F0036D01F2887BF01F01F02A146024601
:109C50004FF0A04909EB820306EB000ED3F800C7D2
:109C6000D3F8008728F44038C3F80087CCF3014CC0
:109C70009EF92480D3F800E756F82880BCF1020F43
:109C80000CBF4FF4403A4FF4003A07FA02F24EEAA2
:109C90000A0EC3F800E7C9F82025B8F1000F08D074
:109CA0008909032916D0BCF1020F15D0BCF1030FAE
:109CB0000ED0D5F820250292C5F82025D4F82035FD
:109CC0000393C4F820351343A9D104B0BDE8F0874D
:109CD0000229EED1C047ECE70129EAD1C047E8E705
:109CE000414AD2F8042312067FF559AF00221A60C8
:109CF0001B680093009B46F0800650E73A4AD2F872
:109D0000042351067FF546AF00221A601B680093BA
:109D1000009B46F040063DE7334AD2F80423900604
:109D20007FF533AF00221A601B680093009B46F05A
:109D300020062AE72C4AD2F80423D4067FF520AF68
:109D400000221A601B680093009B46F0100617E77C
:109D5000254AD2F8042315077FF50DAF00221A60BB
:109D60001B680093009B46F0080604E71E4AD2F8E1
:109D7000042357077FF5FAAE00221A601B68009390
:109D8000009B46F00406F1E6174AD2F80423920736
:109D90007FF5E7AE00221A601B680093009B46F037
:109DA0000206DEE61049D1F8046316F001063FF41E
:109DB000D3AE136013680093009BCDE600610040B2
:109DC00004610040086100400C61004010610040E7
:109DD00014610040186100401C6100407C6100403B
:109DE000000300506025002000600040014B1B680C
:109DF000184700BFBC250020014B1B68184700BF57
:109E0000C4250020014B1B68184700BFCC2500204B
:109E1000014B1B68184700BFD4250020014B1B686D
:109E2000184700BFDC25002070B51D4B984282B05A
:109E30000C462ED0B0F1402F2DD003F500339842C0
:109E40002BD0A3F58033984221D0A3F588339842D4
:109E500002D0002002B070BD124E00230DF10700A9
:109E60008DF8073001F0B0FE357935B19DF8070067
:109E700001F0D0FE112002B070BD01239DF8070053
:109E80003460337101F0C6FE284602B070BD064E44
:109E9000E3E7064EE1E7064EDFE7064EDDE700BFEB
:109EA00000300040DC250020D4250020BC25002007
:109EB000C4250020CC250020144B984216D0B0F1C8
:109EC000402F18D003F50033984219D0A3F5803302
:109ED000984209D0A3F58833984200D070470C4BC4
:109EE00000221A601A7170470A4BF9E70A4B0022E8
:109EF0001A601A717047094B00221A601A71704774
:109F0000074B00221A601A71704700BF00300040F2
:109F1000DC250020D4250020BC250020C4250020FD
:109F2000CC250020194BD3F8182102B97047002125
:109F3000174AC3F81811D3F81811D37F82B0FF2B3A
:109F4000019101990DD0917F99B11F2B8ABF1148C2
:109F50004FF0A04003F01F03012101FA03F3C0F802
:109F60000C35002353771372D2E900310A4802B04E
:109F700018471F2B8ABF07484FF0A04003F01F036C
:109F8000012101FA03F3C0F80835EAE70030004088
:109F9000E425002000030050EC2500204FF0402372
:109FA000D3F8182102B970470021194AC3F81811D3
:109FB000D3F8181192F8433082B0FF2B0191019928
:109FC0000ED092F84210A9B11F2B8ABF11484FF052
:109FD000A04003F01F03012101FA03F3C0F80C3580
:109FE000002382F8413082F82C30D2E909310A4846
:109FF00002B018471F2B8ABF06484FF0A04003F05D
:10A000001F03012101FA03F3C0F80835E8E700BF98
:10A01000E425002000030050102600201B4BD3F83D
:10A02000182102B970470021194AC3F81811D3F852
:10A03000181192F88B3082B0FF2B019101990ED04C
:10A0400092F88A10A9B11F2B8ABF12484FF0A04086
:10A0500003F01F03012101FA03F3C0F80C350023BC
:10A0600082F8893082F87430D2E91B310A4802B094
:10A0700018471F2B8ABF07484FF0A04003F01F036B
:10A08000012101FA03F3C0F80835E8E700F00240C7
:10A09000E425002000030050582600201B4BD3F875
:10A0A000182102B970470021194AC3F81811D3F8D2
:10A0B000181192F8673082B0FF2B019101990ED0F0
:10A0C00092F86610A9B11F2B8ABF12484FF0A0402A
:10A0D00003F01F03012101FA03F3C0F80C3500233C
:10A0E00082F8653082F85030D2E912310A4802B065
:10A0F00018471F2B8ABF07484FF0A04003F01F03EB
:10A10000012101FA03F3C0F80835E8E70030024006
:10A11000E425002000030050342600202DE9F04FF4
:10A120000579954F05EBC50907EB890B83B006460A
:10A130009BF81C0001939246EA000092002840F030
:10A14000EC80D6F800800C468C49404651F825102A
:10A15000FFF76AFE002840F001814FEA8909019B60
:10A1600047F809A0CBF80430237B2178009A012B13
:10A1700040F2C6801F2986BFDFF804C201F01F012C
:10A180004FF0A04C01238B40CCF8083523781F2BCF
:10A1900086BF03F01F037A494FF0A04103F5E07337
:10A1A0004FF0010C41F823C06378FF2B00F0CB8007
:10A1B0001F2B8BBF03F01F0E9E46DFF8C4C14FF06C
:10A1C000A04C0EF5E079012101FA0EF14FF0030EDB
:10A1D000CCF80C154CF829E0A178FF2900F0B080EC
:10A1E0001F298E4694BF714601F01F0101F5E071F1
:10A1F0008CBFDFF88CC14FF0A04C4FF004094CF835
:10A200002190A17802EB050C07EB8C0C8CF8201048
:10A21000E1788CF81F10FF2928D094F804C0BCF115
:10A22000000F7ED11F298ABFDFF854C14FF0A04C28
:10A2300001F01F014FF0010909FA01F1CCF80815EE
:10A24000E1781F2986BF01F01F01DFF834C14FF00C
:10A25000A04C01F5E0714FF003094CF82190511921
:10A2600007EB810194F804C081F81EC02178C8F87A
:10A270000815C8F80C35C8F810E5A368C8F82435E7
:10A28000637B217B003B18BF0123022970D0032987
:10A290006BD0012966D0C8F85435A379C8F8C03509
:10A2A0000723C8F80035BAF1000F1FD03168637971
:10A2B00041F30734002C4FEA113147DB04F16044CD
:10A2C00004F561445B01DBB284F80033336843F387
:10A2D000073100294FEA133308DB2A4E01244909CC
:10A2E00003F01F0304FA03F346F82130154407EB8B
:10A2F0008507002201237A773B7703B0BDE8F08F12
:10A300001F2986BFDFF878C001F01F014FF0A04C75
:10A3100001238B40CCF80C3538E7082003B0BDE8AA
:10A32000F08F1F298ABFDFF858904FF0A04901F045
:10A330001F014FF0010C0CFA01F1C9F80C157FE771
:10A340004FF0FF3E5EE74FF0FF3345E70E4C01F064
:10A350000F015B010C44DBB22376B7E7112003B099
:10A36000BDE8F08F43F0020395E743F0060392E760
:10A3700043F004038FE700BFE425002090F20200C1
:10A380000003005000E100E0FCEC00E0F8B50479C7
:10A390002E4D04EBC4029200E600AB58002B4ED0C9
:10A3A000036843F3073100294FEA133711DB4909EA
:10A3B000DFF8ACC02031012307F01F0703FA07F7CD
:10A3C0004CF82170BFF34F8FBFF36F8FAA5803680B
:10A3D0003AB132191E49C3F8081305EB8202527FC5
:10A3E0000ABB321905EB820292F82020FF2A0BD01B
:10A3F0001F2A86BF02F01F02164F4FF0A04702F53A
:10A40000E072022147F82210134A00219342C3F858
:10A41000001516D03444006805EB8404FFF74CFDAA
:10A4200000232377F8BD01225A61D3F80421002AC2
:10A43000FBD0321905EB820200215177D1E7036886
:10A44000CFE7064B01221A60E4E700BFE4250020B5
:10A45000520108000003005000F0024004F00240E6
:10A4600000E100E02DE9F0470779DFF88CC107EB48
:10A47000C7030CEB83068646707F82B0002840F04D
:10A48000A4809B000C465CF8033015464FEAC708D1
:10A4900023B112F0140F04BF0123737708EB0706F2
:10A4A0000CEB860694E80F0096F81FA006F10C0945
:10A4B000BAF1FF0F89E80F000FD0B37F002B6CD0EB
:10A4C000BAF11F0F8ABF4B4A4FF0A0420AF01F0A91
:10A4D000012303FA0AF3C2F80835226822B102F018
:10A4E0006043B3F1005F66D1A36823B103F060431A
:10A4F000B3F1005F5FD1DEF800306168C3F8442536
:10A50000C3F84815D4E90221C3F834250022C3F862
:10A510003815C3F81821D3F818210192019A15F0C3
:10A52000010218BF0122C3F8502515F0020218BF1E
:10A530000122C3F840252A075CBF01221A6108EBFB
:10A5400007025CF8222062B115F004004FF04002CF
:10A550001ABFC3F808230020C3F8042302B0BDE8E3
:10A56000F087D3F81821002AFBD047440CEB870C66
:10A570009CF81F30FF2B3AD09CF81E204AB31F2BAB
:10A580008ABF1C494FF0A04103F01F03012202FAC9
:10A5900003F3C1F80C350020E0E7BAF11F0F8ABFC2
:10A5A000144A4FF0A0420AF01F0A012303FA0AF3EB
:10A5B000C2F80C3591E747440CEB870C00231020C0
:10A5C0008CF81D3002B0BDE8F087112002B0BDE864
:10A5D000F0871F2B8ABF07494FF0A04103F01F03EC
:10A5E000012202FA03F3C1F808350020B6E7002083
:10A5F000B4E700BF00030050E425002030B56E4AE8
:10A60000D2F8043399058BB068D5D2F82431002BE9
:10A6100064D00023C2F82431D2F8243101934FF4DE
:10A620000171664B0198C2F8081393F8291009B913
:10A6300001215160604902228DF81820D1F8802450
:10A64000C1F880249869D968099200240025CDE9D1
:10A650000710C3E90645D3E9001206A89047564AF9
:10A66000D2F81C31C3B1554B5869196A88426AD96E
:10A6700093F8281001F0FF00002964D1C2F81C01F2
:10A68000D2F81C11039103999C68186A196A205C1E
:10A6900001311962C2F81C05474AD2F84431DBB1D6
:10A6A0000021464BC2F84411D2F8440193F8291016
:10A6B0000090009809B1012111609A6962B1586A4D
:10A6C000D96800229A610122CDE907108DF818207F
:10A6D00006A8D3E9001290470BB030BD364AD2F835
:10A6E00004335B07BBD5D2F80831002BB7D0334B0E
:10A6F000996900293ED00021C2F80811D2F808114A
:10A7000004910499D868596AD2F8182542545A6AB3
:10A71000996901325A625A6A8A42A0D1DA69002ADA
:10A7200031D0DD685C6A18699A6101210022D86025
:10A73000DA615A628DF81810CDE90754D3E9001296
:10A7400006A890478BE71C4A0021C2F81C11D2F8DA
:10A750001C210292029A5A69002A9DD058699A686F
:10A760008DF8181008905961079206A8D3E90012D5
:10A77000904791E7C2F80811D2F8080105900598B2
:10A78000D2F81825C7E793F8292012B90A4A0121FF
:10A790005160094A4FF40171C2F80813596ADA6826
:10A7A00008910024012007928DF81800D3E90012C7
:10A7B0009C6106A8904752E70020004078260020C0
:10A7C0002DE9F041DFF8E48106792C2303FB0683B1
:10A7D00082B093F82A30002B40F09E8005460C464C
:10A7E00000686D491746FFF71FFB002840F0908076
:10A7F0002368591C19D01F2B4FF001028ABF6749EB
:10A800004FF0A04103F01F0302FA03F3C1F808352B
:10A8100023681F2B86BF03F01F03604A4FF0A0423E
:10A8200003F5E073032142F8231063685A1C0BD030
:10A830001F2B86BF03F01F03584A4FF0A04203F5B9
:10A84000E073002142F823102B68A269C3F8242585
:10A85000217D637D2A680B43C2F86C35D4E9001270
:10A860002B68C3F81425C3F80C15237D012B5FD08A
:10A870002C2303FB06F308EB03025760226948F818
:10A8800003202A6897B30021237FC2F81C11D2F855
:10A890001C2100922A68009FC2F84411D2F844118A
:10A8A0002A6801913E4C0199C2F804432A6842F398
:10A8B000073100294FEA123232DB01F1604101F524
:10A8C00061415B01DBB281F800332A6842F3073350
:10A8D000002B4FEA123109DB324C01225B0901F0F7
:10A8E0001F0102FA01F144F823102A682C2303FB0C
:10A8F0000686012400230421C2F80015C6E90633A8
:10A9000086F82A4086F82930736102B0BDE8F081EC
:10A91000112002B0BDE8F081082002B0BDE8F0814E
:10A92000214902F00F025B011144DBB20B76CCE748
:10A93000A368591C0BD01F2B86BF03F01F031749B8
:10A940004FF0A04103F5E073002241F82320E368B3
:10A950005A1C1AD01F2B8ABF10494FF0A04103F098
:10A960001F03012202FA03F3C1F80835E3681F2B25
:10A9700088BF03F01F0303F5E0738CBF07494FF056
:10A98000A041032241F82320E3682A68A168C2F8A5
:10A990000835C2F810156BE7FDA502000003005052
:10A9A0008000020000E100E0FCEC00E078260020DE
:10A9B000F8B53E4F047902682C2303FB0473002191
:10A9C0005B68C2F80015C3B10368394AC3F80823AD
:10A9D000036843F30732002A4FEA13310EDB5209B2
:10A9E000344D2032012301F01F0103FA01F145F833
:10A9F0002210BFF34F8FBFF36F8F0368D3F80C653E
:10AA0000D3F81455D3F80825D3F810154FF0FF3CB0
:10AA1000C3F814C5C3F80CC503686645C3F808C578
:10AA2000C3F810C50CD01F2E86BF06F01F06224BA0
:10AA30004FF0A04306F5E0764FF0020C43F826C035
:10AA40006E1C0BD01F2D86BF05F01F051A4B4FF053
:10AA5000A04305F5E075022643F825604D1C0BD098
:10AA60001F2986BF01F01F01134B4FF0A04301F5D2
:10AA7000E071022543F82150531C0BD01F2A86BFDA
:10AA800002F01F020C4B4FF0A04302F5E0720221CE
:10AA900043F822100068FFF70FFA2C2303FB04741D
:10AAA000002384F82A306360F8BD00BF78260020B8
:10AAB0008402020000E100E0000300502DE9F041B3
:10AAC000314E05792C2303FB05630446586984B095
:10AAD00000284CD15A619960186283F828002268D6
:10AAE000C2F81C01D2F81C11226802910121029FB8
:10AAF00091602268D3F808C0C2F81C01D2F81C117A
:10AB0000019101991F6A196A1CF8077001311962D5
:10AB1000C2F81C755A6812B104B0BDE8F0815F69D3
:10AB20001A6A216897421BD9864602E093F82820CA
:10AB30000ABBD1F81C21002AF8D0C1F81CE1D1F8D9
:10AB40001C210392039AD3F820801A6A1CF808800B
:10AB500001321A62C1F81C851A6A9742E9D8216845
:10AB6000D1F81C31002BFBD00123CB6004E0112075
:10AB700004B0BDE8F0810F202C2303FB0565002302
:10AB80006B6104B0BDE8F0817826002030B5524BEF
:10AB9000D3F824218BB0002A71D00021C3F82411EE
:10ABA000D3F82421049202228DF81820049AD3F8B5
:10ABB00080044A4AC3F880040990D3F83C05136B1B
:10ABC0000890C2E90F11079306A8D2E90913984724
:10ABD000414BD3F8442152B1404A0021C3F84411FB
:10ABE000D3F84441D06B0394039C002838D13A4BEE
:10ABF000D3F820215AB10021C3F82011D3F8202125
:10AC000002920120354A029CD860906BD8B9324B31
:10AC1000D3F85821AAB10021C3F85811D3F858012C
:10AC20002E4A01900198906B58B1D3F84C05D36A25
:10AC300008908DF818109163079306A8D2E90913BC
:10AC400098470BB030BDD3F84C05D36A08908DF807
:10AC500018109163079306A8D2E909139847D6E71D
:10AC6000D3F83C35106B08930123C2E90F1107900C
:10AC70008DF8183006A8D2E909139847B7E7D3F83A
:10AC800010110029A4D0C3F81021D3F810011349E2
:10AC900005900598CC6BD3F83C05A04298D10C6C7C
:10ACA0005CB90A6BCC63CDE9072001238DF818301D
:10ACB000D1E9091306A898478AE7D3F80052CC6374
:10ACC0000C6B0A6425F020054A6BC3F80052CDE9ED
:10ACD000074001230A63E9E700800240A426002020
:10ACE00030B5554BD3F824218BB0002A71D0002108
:10ACF000C3F82411D3F82421049202228DF81820DD
:10AD0000049AD3F880044D4AC3F880040990D3F81C
:10AD10003C05D3680890C2E906110793116853688F
:10AD200006A89847444BD3F8442152B1434A002126
:10AD3000C3F84411D3F8444190690394039C00285C
:10AD400038D13D4BD3F820215AB10021C3F820114E
:10AD5000D3F8202102920120384A029CD860506921
:10AD6000D8B9354BD3F85821AAB10021C3F85811EE
:10AD7000D3F85801314A01900198506958B1D3F87D
:10AD80004C05936808908DF818105161079306A838
:10AD9000D2E9001398470BB030BDD3F84C05936847
:10ADA00008908DF818105161079306A8D2E9001396
:10ADB0009847D6E7D3F83C35D06808930123C2E919
:10ADC000061107908DF8183006A8D2E900139847AD
:10ADD000B7E7D3F810110029A4D0C3F81021D3F895
:10ADE00010111648059105998469D3F83C15A142C4
:10ADF00098D1C469A4B1D3F80052846125F020052C
:10AE0000C3F80052D0E90343C26101220891C36034
:10AE10000168436807948DF8182006A8984781E7D1
:10AE2000C26884610123CDE907218DF81830D0E98B
:10AE3000001306A8984775E700200040A4260020CC
:10AE40002DE9F0430679834F06EBC60307EB830336
:10AE500087B093F82030002B40F0BB807E4B044637
:10AE60000D46006853F826109046FEF7DDFF0028D7
:10AE700040F0AB802B68591C4FEAC60919D01F2B34
:10AE80004FF001028ABF75494FF0A04103F01F0344
:10AE900002FA03F3C1F808352B681F2B86BF03F0B5
:10AEA0001F036E4A4FF0A04203F5E073032142F8FE
:10AEB00023106B685A1C0BD01F2B86BF03F01F0397
:10AEC000664A4FF0A04203F5E073002142F82310D8
:10AED0002368AA69C3F82425297D6A7D23680A436B
:10AEE000C3F86C25D5E900312268C2F80C35C2F8E8
:10AEF00014152B7D012B78D009EB060207EB82039A
:10AF0000C3F804802B6947F82230B8F1000F4BD00A
:10AF100021682B7F524D0022C1F81021D1F8101169
:10AF200001912168DDF804C0C1F82021D1F8201179
:10AF300002912168DDF808C0C1F82421D1F824115C
:10AF400003912168DDF80CC0C1F84421D1F8441107
:10AF500004912168DDF810C0C1F85821D1F85811CA
:10AF6000226805910599C2F80453226842F307311B
:10AF700000294FEA123230DB01F1604101F56141F5
:10AF80005B01DBB281F80033226842F30733002B08
:10AF90004FEA123109DB334D01225B0901F01F0139
:10AFA00002FA01F145F8231022684E4407EB8607A8
:10AFB000002301240821C2F80015C7E9063387F8E9
:10AFC00020407B6107B0BDE8F083112007B0BDE8E9
:10AFD000F083082007B0BDE8F083234902F00F0298
:10AFE0005B011144DBB20B76CEE7AB68591C0BD08A
:10AFF0001F2B86BF03F01F0318494FF0A04103F534
:10B00000E073002241F82320EB685A1C1AD01F2B52
:10B010008ABF12494FF0A04103F01F03012202FA38
:10B0200003F3C1F80835EB681F2B88BF03F01F033B
:10B0300003F5E0738CBF09494FF0A041032241F8AA
:10B040002320EB682268A968C2F80835C2F81015F9
:10B0500052E700BFA4260020A0F202000003005027
:10B060001003420000E100E0FCEC00E02DE9F041BB
:10B070000579564C05EBC50304EB830301465B6879
:10B08000006882B0EE00C3B1514BC0F808330B68C2
:10B0900043F30732002A4FEA13330EDB5209DFF87D
:10B0A00038C12032012703F01F0307FA03F34CF8DD
:10B0B0002230BFF34F8FBFF36F8F721904EB820200
:10B0C000D0F80032926923F02003C0F8003242B178
:10B0D0000023C0F84431D0F8443100930123009A92
:10B0E00043600023C0F85831D0F8583101937319E8
:10B0F000012204EB8303019FC2609A69D0F85831A2
:10B10000002BFBD01AB1D0F84431002BF6D000232D
:10B11000C0F800350B684FF0FF38D3F80CE5D3F8D2
:10B1200014C5D3F80825D3F81075C3F80C85C3F8F7
:10B1300014850B68C645C3F80885C3F810850CD084
:10B14000BEF11F0F86BF0EF01F0E22494FF0A04127
:10B150000EF5E07E022341F82E30BCF1FF3F0CD00B
:10B16000BCF11F0F86BF0CF01F0C1A494FF0A04115
:10B170000CF5E07C022341F82C30791C0BD01F2FFA
:10B1800086BF07F01F0713494FF0A04107F5E0778E
:10B19000022341F82730531C0BD01F2A86BF02F030
:10B1A0001F020C494FF0A04102F5E072022341F862
:10B1B0002230FEF781FE354404EB8504002384F839
:10B1C0002030636002B0BDE8F08100BFA4260020FB
:10B1D000100342000003005000E100E0F0B401F071
:10B1E0006044B4F1005F82B02CD10579274E05EBA5
:10B1F000C50406EB840403466069EF0000283ED1D5
:10B200006261A1601A68C2F82001D2F820C11A68F0
:10B21000CDF804C0DDF804C0C2F85801D2F85821B6
:10B2200000921A68DDF800C0D4F814C0C2F84415C2
:10B23000C2F848C51A6801219160626832B102B053
:10B24000F0BC7047102002B0F0BC70471A6800E0F4
:10B25000C8B9D2F82011D2F858010029F8D090B915
:10B260000121D1601B68D3F85821002AFBD07B193B
:10B2700006EB830300225A6102B0F0BC7047112034
:10B2800002B0F0BC70470F20F1E700BFA4260020F9
:10B2900038B5174B1D783DB3164B1968C0B2002363
:10B2A0000C4604E00133AB4204F108041CD011F851
:10B2B00033209042F6D1FEF733FC6378A3F101030B
:10B2C000B3FA83F35B09834200D038BD0A4BD3E95C
:10B2D00000231343F9D1094B094819680022BDE83E
:10B2E0003840490800F008BC00231B78FFDE00BF8F
:10B2F000EC2600204027002018270020F026002000
:10B30000F82600202DE9F04FDFF8548298F800303D
:10B3100083B0002B00F01981DFF848928C4F8D4EDE
:10B3200000254FF0010A3C6814F83500FEF7F8FBE1
:10B3300004EBC50314F835405B784FEA540C14F065
:10B34000010E16F80C10A3F10103B3FA83F314BF36
:10B350000A0901F00F025B09042A00F2A080DFE86D
:10B3600002F0725D32200300834240F0AB80BEF1F8
:10B37000000F0CBFF0230F2303EA01030CBF0321CE
:10B380003021194306F80C1098F800200135954239
:10B39000C9DBD9E90023134340F0CD8003B0BDE8F9
:10B3A000F08F83427BD0BEF1000F0CBFF0230F2340
:10B3B00003EA01030CBF04214021194306F80C10D5
:10B3C00098F80020E2E783426CD1BEF1000F0CBF79
:10B3D000F0230F2303EA010398F800200CBF032198
:10B3E0003021194306F80C10002AD2D0D7F800C03B
:10B3F0000023614603E0934201F10801C6D01CF826
:10B400003300A04203F10103F5D14B68002BBDD0FE
:10B4100020460121984798F80020B7E7834219BFDA
:10B420000020034602232020BEF1000F0CBFF022B3
:10B430000F2201EA020118BF03460B4306F80C3045
:10B4400098F80020A2E7834229D1BEF1000F14BF73
:10B450000F23F02303EA010314BF10210121194334
:10B460000DF107004FF0000306F80C108DF80730BF
:10B4700000F0AAFBD9E90032A4F12001C4F12000B8
:10B480000AFA01F12AFA00F001430AFA04F411431E
:10B4900023439DF80700C9E9003100F0BBFB98F891
:10B4A000002073E7BEF1000F0CBFF0230F2303EA67
:10B4B00001030CBF01211021194306F80C1098F864
:10B4C000002063E7BEF1000F14BF0F23F02398F8AC
:10B4D0000000194006F80C1098B1D7F800C00023FE
:10B4E000624603E0834202F108020AD01CF83310DE
:10B4F000A14203F10103F5D1536813B100212046A5
:10B5000098474FF000030DF107008DF8073000F069
:10B510005BFBD9E90032A4F12001C4F120000AFA52
:10B5200001F12AFA00F001430AFA04F422EA0101C7
:10B5300023EA0403ADE7084B0848196800224908CC
:10B5400000F0DAFA03B0BDE8F08FDFF8189020E7DA
:10B550004027002020270020F0260020F826002089
:10B56000EC26002018270020092A43D92DE9F041B4
:10B5700082B0144606460D46FEF772F9002832D016
:10B58000214A2249224B16600D7022481C6000217E
:10B59000202202F0FBFA204B002000216C1EC3E9A0
:10B5A0000001E4B245B3DFF87C8006EBC404032756
:10B5B00002E0A64220D01C469DF80630A5782078EF
:10B5C0008DF8047023F00703424601A98DF8063078
:10B5D0008DF80550FEF74EF9A4F108030028E8D0D5
:10B5E00002B0BDE8F081FEF7E5F80028C8D002B04F
:10B5F000BDE8F08107207047084A0948002100F0A3
:10B600006DFA02B0BDE8F08140270020EC26002052
:10B61000F0260020202700201827002005B3020074
:10B62000B4F2020091B2020070B5084D2B785BB104
:10B63000074E00243368012113F83400FEF7CAF9DD
:10B640002B780134A342F5D8002070BDEC260020F1
:10B650004027002070B5124D2B7882B053B1114EA7
:10B660000024336813F83400FEF720FA2B780134F5
:10B67000A342F6D800230DF107008DF8073000F043
:10B68000A3FA094B9DF8070000240025C3E90045F3
:10B6900000F0C0FA054800F075FA02B070BD00BFB6
:10B6A000EC2600204027002018270020F826002044
:10B6B00000B585B00346002101AA44F20100CDE99E
:10B6C0000111039300F004F805B05DF804FB00BF1E
:10B6D00010B572B601F058FF01F0C4FB0028FBD191
:10B6E000104B114C1149E41AE408240444F0010001
:10B6F00001F0E0FC0E4B1B68DB0700D500BE0D49D6
:10B7000044F0020001F0D6FCBFF34F8F0A490B4B07
:10B71000CA6802F4E0621343CB60BFF34F8F00BFEF
:10B72000FDE700BF8CFB02008CFB0200B8F20200B8
:10B73000F0ED00E0C4F2020000ED00E00400FA05C4
:10B74000D0E90223D1E90201994208BF90422CBFFF
:10B7500001200020704700BF2DE9F04F2DED028B36
:10B7600085B0064600F082FB40B1B54AD2E900310F
:10B7700013F1807341F10001C2E90031002130462C
:10B7800000F090FBAF4C60B1236853B1AE4B25681D
:10B790001B7823B11DB12B7F002B40F01C810023AF
:10B7A00023600121304600F07DFB002840F0F68048
:10B7B000A64803A900F0FCFB78B3A54DDFF888820A
:10B7C000A24F0BE0002B00F0CD8003A9384600F01B
:10B7D0001FFC03A9384600F0EBFBF0B10378012B06
:10B7E00012D0022BEED128464FF0000901F0DEF90D
:10B7F00030B180F81C90284601F0D8F90028F8D123
:10B80000012388F80030E0E741682368994200F09E
:10B81000BA80284601F0D4F9D7E7DFF834828D4F9B
:10B82000DFF81C9208EE106A37E0404601F0BEF9DE
:10B8300005463846AB68EA680193009200F042FB87
:10B84000854E8446D9E90001D6E9002310EB0C00AF
:10B8500041F10001994208BF9042DDE9002303D283
:10B8600010F1807041F10001B3EB000A62EB010BB3
:10B87000BAF1010F7BF1000329DBBAF5350F6BD26A
:10B88000AA684FF496030021384600F069FA0028B0
:10B890005AD00D281FD000232360404601F08CF9B8
:10B8A000002873D02368002BBFD02368D0E90201A1
:10B8B000D3E90223994208BF904248D223681B7FF4
:10B8C000002BB2D02168404601F05CF9ADE70021C1
:10B8D000384600F0DBFA5C4B1B78002BDBD02B7F6B
:10B8E000002BD8D0384600F0EDFA8446D9E90001A3
:10B8F000D6E9002310EB0C0041F10001994208BF8A
:10B90000904203D210F1807041F10001D5E9022389
:10B91000994208BF904259D32B6903B92B77D5E9D7
:10B920000530984729690029B5D02B7F002BB2D06C
:10B93000D5E90223521843F10003C5E90223294641
:10B94000404601F01FF9A6E72368BBB1256005B0AA
:10B95000BDEC028BBDE8F08F384600F0B3FA3F4AE9
:10B9600002448EE743681A7F002A7FF42EAF01223B
:10B970001A774168284601F005F926E718EE100A03
:10B9800000F0C0F9E2E7002323601EE72368002BE4
:10B99000DDD118EE100A00F0B9F9D8E72D482E4D88
:10B9A00000F090FA264BD3E90089D5E9002318EB83
:10B9B000000849F10009994508BF904503D218F1E4
:10B9C000807849F10009C5E90089F1E62946404639
:10B9D00001F0D8F85FE71F4800F074FA184A1E4BD0
:10B9E000D2E90089D3E9002318EB000849F10009E6
:10B9F000994508BF904503D218F1807849F10009B4
:10BA0000D5E90223994508BF904529D32B6903B98D
:10BA10002B77D5E905309847296900293FF4BFAE57
:10BA20002B7F002B3FF4BBAED5E90223521843F124
:10BA30000003C5E902230648294601F0A3F8AEE653
:10BA400048270020C827002050270020AC270020CE
:10BA5000E4F2020024230020C0270020FFFFB400EE
:10BA60000248294601F08EF899E600BFE4F2020090
:10BA700010B5134B13491B68134882B05822019329
:10BA8000082300F03FFA044610B1204602B010BD72
:10BA90000E4A0F4801A900F0D5F804460028F4D159
:10BAA0000B48012100F0D8F901231946094A08483A
:10BAB00000F030F9084B012220461A7002B010BD88
:10BAC000E0F2020054270020AC27002059B7020002
:10BAD00024230020FFFF7F00502700204AB1A1F15E
:10BAE00001010368B1FA81F14909C3E90412002098
:10BAF00070470720704700BF037F0BB100207047DD
:10BB0000F0B5826183B004461A480D4600F0DAF9B8
:10BB1000194B1A49D3E90023D1E90067121843F100
:10BB20000003BB4208BFB24203D212F1807243F15C
:10BB300000035219216943F10003C4E9022301B152
:10BB400025610F4801A900F0F5F948B100254460CE
:10BB5000057001A90A4800F01BFA20B903B0F0BD36
:10BB6000042003B0F0BD034800F0B0F9284603B04C
:10BB7000F0BD00BF2423002048270020C02700205C
:10BB8000AC27002030B5002583B00446057701A915
:10BB90000B4800F0CFF978B101224460027001A98E
:10BBA000074800F0F5F908B903B030BD054800F0CA
:10BBB0008DF9284603B030BD042003B030BD00BF6E
:10BBC000AC2700202423002070B4EFF3108472B659
:10BBD0000D4B9A68AAB90D490D4E01259D60D1F80B
:10BBE000805035401D60C1F88060D1F884505D60A0
:10BBF0004FF0FF33C1F88430027004B962B670BCF4
:10BC0000704701230370F8E74C2D002000E100E0AD
:10BC1000FC06FFBD094B9A687AB170B910B4EFF316
:10BC2000108172B6064A1C6814605C6854609860A3
:10BC300001B962B65DF8044B704770474C2D002087
:10BC400000E100E070B5274C4379274E04EBC305B3
:10BC500046F823202D79002D37D103680A88C3F8D0
:10BC6000082590F904308A78002B26DB03F1604325
:10BC700003F561435201D2B283F8002390F90430F6
:10BC8000002B07DB194903F01F0501225B09AA40BD
:10BC900041F823204279164B164D44F83200581BC8
:10BCA00004EBC204C008012300041349237140F0CF
:10BCB000030001F0FFF9002070BD104903F00F03ED
:10BCC00052011944D2B20A76D8E70A4B08480C4907
:10BCD000C01AC008000440F0020001F0EBF908208F
:10BCE00070BD00BFCC270020D427002000E100E079
:10BCF0009CFB02008CFB020014F30200FCEC00E051
:10BD0000F0F20200036801221A6070470368012202
:10BD10005A607047F0B404684FF480358D40C4F821
:10BD20000853066801F15004C6F84853A400066899
:10BD3000A4B20027375182B036590468019601F544
:10BD4000A87122F07F42019E44F821200268C2F8C7
:10BD5000445313B10368C3F8045302B0F0BC7047F6
:10BD60002DE9F04704464FF4803600688E40C0F855
:10BD700048632068C0F80863206800EB81058A46A4
:10BD8000D0F80415D5F84005C5F840150AF150055E
:10BD9000AD002768ADB24FF0000847F8058082B0CB
:10BDA000401A7F59009720F07F40012822F07F47FA
:10BDB0009946009A41D02268D2F80455C2F84463EB
:10BDC0007A1B22F07F42012A0AF5A87125D0226849
:10BDD00042F821702068D0F804557A1BC9F1FF138E
:10BDE000013A03F57F4322F07F42934211D342B1DF
:10BDF000C0F8446323680020C3F8046302B0BDE8C0
:10BE0000F087013740F821702068D0F804359D4252
:10BE1000EED00D2002B0BDE8F08720680D4B013751
:10BE200040F8217043F001034FF480609847206888
:10BE3000D0F804359D42DBD0EBE7064A4FF4806032
:10BE400042F001029047226842F80580525901925F
:10BE5000019AB0E730F3020002680223C2F84433CB
:10BE600011B10268C2F80433704700BF0368D3F809
:10BE7000040100B97047002282B0C3F80421D3F84E
:10BE800004310193019B012002B0704702684FF416
:10BE9000803303FA01F1C2F848130368C3F80813AA
:10BEA000704700BF50318900036889B2585800B903
:10BEB000704700225A5082B05B580193019B0120C9
:10BEC00002B070470368D3F80405704790F9043056
:10BED000002B09DB5A090548403203F01F030121FA
:10BEE00001FA03F340F82230704700BF00E100E0A0
:10BEF000024A034B10681B68184700BFCC2700207C
:10BF0000D427002099B110B4B2FBF3F403FB14243E
:10BF1000A4B244B9C0E9001484608281C381204680
:10BF20005DF8044B704709205DF8044B70470E2004
:10BF3000704700BF30B482B050E8013F9DB2C48961
:10BF400025448489A54228BF2D1B0489A54202BF30
:10BF5000BFF32F8F002207E0C5EA030540E8015434
:10BF6000002CE9D14FF001028DF803200193019BD1
:10BF70009DF803200B602AB10B880068184402B0BA
:10BF800030BC704702F0FF03184602B030BC704767
:10BF90000A884B889A4201D00020704750E8012F50
:10BFA000C2EA024240E80123002BF7D1012070478A
:10BFB00030B482B050E8023F1FFAA3F5C488A5420E
:10BFC00002BFBFF32F8F00220DE0C489254484896E
:10BFD000A54228BF2D1BC3EA054540E80254002CAA
:10BFE000E8D14FF001028DF803200193019B9DF8E9
:10BFF00003200B602AB14B880068184402B030BCA3
:10C00000704702F0FF03184602B030BC704700BF13
:10C010000A884B889A4201D00020704750E8022FCE
:10C02000C2EA224240E80223002BF7D101207047E8
:10C030004A09012301F01F0100EB820003FA01F11C
:10C0400000F022B801F01F0201234909934000EBE0
:10C050008100D94300F026B84B0901F01F0150F8C8
:10C060002300C84000F00100704700BF10B4034631
:10C0700053E8000F0A4643E8002494F0000FF7D17C
:10C080005DF8044B704700BF10B4034653E8002F1F
:10C0900042EA010043E8000494F0000FF6D15DF895
:10C0A000044B704710B4034653E8002F02EA010026
:10C0B00043E8000494F0000FF6D15DF8044B70479C
:10C0C00010B4034653E8002F02EB010043E80004DC
:10C0D00094F0000FF6D15DF8044B704710B403469E
:10C0E00053E8002FA2EB010043E8000494F0000F96
:10C0F000F6D15DF8044B704710B40346012253E8B3
:10C10000001F41EA020043E8000494F0000FF6D15A
:10C110005DF8044B704700BF10B40346002253E89B
:10C12000000F00EA020143E8001494F0000FF6D17A
:10C130005DF8044B704700BFF0B583B0044600259E
:10C140000DF107008DF80750FFF73EFDD4E90031EF
:10C150001A688A4210D9511E19602168A3680F68B5
:10C1600012F8015C0A79268AE068DB1BDBB29A428E
:10C1700006FB050538BF0B719DF80700FFF74AFD68
:10C18000284603B0F0BD00BF30B5054683B000239C
:10C190000DF107000C468DF80730FFF715FD2A68F2
:10C1A0001368591C1160E9682A8A641AB4FBF2F416
:10C1B0001C709DF80700FFF72DFD03B030BD00BFD8
:10C1C000826842B110B50446436901680069984726
:10C1D0000023A36010BD70470EB400B582B0039970
:10C1E00021B104AB01AA019300F0ACF802B05DF8F4
:10C1F00004EB03B0704700BF2DE9F04F164683B043
:10C20000B142DDE90C920F4605469A46C0F0958092
:10C210000B464FF00108B3FBF6F39E4208F101080C
:10C22000F9D9D04538BFD04612F00103019302D1AD
:10C23000B9F1000F5ED1AA68012403E00AF1FF3AC8
:10C2400006FB04F4BAF1010FF8D8B7FBF4F39E42F1
:10C25000F6D9DFF8ECA007E0B442B4FBF6F31AD34A
:10C26000AA681C46B7FBF3F31AF803B0BBF10A0F38
:10C2700004FB137728D02B68511CA96003F802B087
:10C28000D5E901329A42E7D32846FFF799FFB4FB7C
:10C29000F6F3B442E4D2019B9BB1B9F1000F10D088
:10C2A0002024C84509F1FF390BD2AB682A68591C14
:10C2B000A960D454D5E901329A4214D2B9F1000FE1
:10C2C000EFD103B0BDE8F08F511C2B68A9604FF08F
:10C2D0000D019954D5E901329A42CCD32846FFF793
:10C2E0006FFFAA68C7E72846FFF76AFFB9F1000F9A
:10C2F000D7D1E6E793071AD42024AA68C84502F1EB
:10C30000010199D22B68A9609C54D5E901329A4267
:10C3100009F1FF3903D2B9F1000FEFD18CE72846BC
:10C32000FFF74EFFAA68B9F1000FE7D184E7BAF131
:10C33000000F0CBF30242024DFE74FF0010870E726
:10C3400038F30200002900F054822DE9F04FDFF8A5
:10C35000B8950C7885B0064690460D464FF00D0A0C
:10C3600010E00A2CB36800F0AD803268591CB1604F
:10C37000D454D6E901329A4280F0A0802C78002C67
:10C3800000F087800135002C00F08380252CE8D157
:10C39000294600270D4611F8012B2D2A00F0888030
:10C3A000302A00F088802B2A7AD02A2A00F099803F
:10C3B000A2F13003092B4FF000040BD804EB8404E6
:10C3C00002EB440415F8012FA2F13003092BA4F16C
:10C3D0003004F3D92E2A00F09080002301E015F8F4
:10C3E000012F02F0FB016829F9D0252A00F077819E
:10C3F000583AD1B2202947D8202A45D8DFE812F090
:10C40000350144004400440044004400440044001A
:10C41000440044004400430113014400440044002C
:10C42000440013014400440044004400440044001C
:10C43000D20044004400A2004400940044004400A0
:10C44000350101209842024638BF1A460292002C5C
:10C4500040F05081B80740F16E81002B40F04E82D1
:10C460001C46BBF1000FC0F20A827A0700F11A8263
:10C4700007F00302022A00F0EA81CDE9004759469D
:10C480000A223046FFF7B8FE01352C78002C7FF4E5
:10C4900079AF337B002B40F01C8105B0BDE8F08FF5
:10C4A0000D4611F8012B2D2A47F004077FF478AFD1
:10C4B00047F001076EE747F002076BE73046FFF7EA
:10C4C0007FFE5BE73268591CB16002F803A0D6E931
:10C4D00001239342FFF449AF3046FFF771FEB36882
:10C4E00043E7D8F800301A1DC8F800206A781C68A5
:10C4F0002E2A05F101057FF470AF6A78A2F13003AE
:10C50000092B05F101054FF000033FF66AAF03EB7D
:10C51000830302EB430315F8012FA2F1300109292F
:10C52000A3F13003F3D95CE7D8F80020111DC8F857
:10C53000001011683046CDE900470A22FFF75CFE83
:10C540000135A2E7D8F800301A1DC8F8002017F00E
:10C550000107D3F800B040F0F080BBF1000F03D02A
:10C56000584601F085FB0746BC4240F24381002C4F
:10C5700000F04081202205E0BC4200F03B81002C0D
:10C5800000F03881B1683368481CB0605A54D6E96D
:10C590000130984204F1FF34EED33046FFF710FE2D
:10C5A0002022E9E7D8F80020131DC8F80030B3684E
:10C5B00031681768581C3022B060CA54D6E901238C
:10C5C000934280F0EF803268581C7821B060D154DB
:10C5D000D6E901329A4280F0E0800F2F03D93B4622
:10C5E0001B090F2BFCD84FF0805406E00F2C4FEAAC
:10C5F00014137FF649AFB2681C46B7FBF4F319F881
:10C6000003B0BBF10A0F04FB137754D03368511CFD
:10C61000B16003F802B0D6E901329A42E6D330465F
:10C62000FFF7CEFDE2E7D8F80020111DC8F8001092
:10C63000D2F800B08BEAEB72A2EBEB72092A7FF71B
:10C6400000AFDFF8C8C2012011466329ACFB02E24B
:10C6500000F101004FEAD202F6DC9842024638BFF0
:10C660001A460292002C45D1F4E6D8F80020111D9C
:10C67000C8F8001011683046CDE900471022FFF7D6
:10C68000BBFD013501E7D8F800301A1DC8F80020BD
:10C690001C78B3680A2C00F011813268591CB16013
:10C6A000D454D6E901329A42FFF4EEAE3046FFF799
:10C6B00087FD0135E9E63368511CB16003F802A03B
:10C6C000D6E901329A42A1D33046FFF779FDB2682C
:10C6D0009CE7304605B0BDE8F04FFFF771BDB36889
:10C6E0003168581CB060CA54D6E901329A42DDD292
:10C6F0000135CAE6BBF1000F59DB7A0757D4B807FA
:10C7000002D5002B3FF4ADAEF9073FF5AAAE94B1C8
:10C7100020220299A142BFF4A4AEB168481CB060C7
:10C7200030684254D6E90101814204F1FF3480F0BF
:10C73000D480002CEDD1002493E69BF80030002B30
:10C7400000F0E080B0685F46CBF101020A2B02EBFB
:10C75000070B3CD0411CB16031680B54D6E9013065
:10C76000984226D217F8013F002BEFD15C457FF6A7
:10C770008BAE202702E05C453FF486AEB26833689A
:10C78000511CB1609F54D6E901329A4204F1FF3442
:10C79000F1D33046FFF714FDEDE73046FFF710FD0B
:10C7A000B2681AE73046FFF70BFDB3680BE7013CB0
:10C7B000A5E730460292FFF703FD17F8013F002B73
:10C7C000D4D0029AB0680A2B02EB070BC2D1411CED
:10C7D000B160316801F800A0D6E901108842B9D3F0
:10C7E0003046CDE90232FFF7EBFCDDE90232B068FA
:10C7F000B0E770479BF80040002C3FF445AE0A2C90
:10C80000B0680ED03368421CB2601C54D6E90130C7
:10C81000984214D21BF8014F002C3FF435AE0A2C7D
:10C82000F0D13368421CB26003F800A0D6E90130B1
:10C830009842E7D33046FFF7C3FCB068E2E73046E2
:10C84000FFF7BEFC1BF8014F002CD8D11CE6002BD3
:10C850007FF413AE8CB130220299A142BFF40DAE29
:10C86000B168481CB06030684254D6E90101814289
:10C8700004F1FF343BD2002CEED10024FDE5B16879
:10C880004A1CB26032682D205054D6E901219142F1
:10C89000CBF1000BFFF4ECAD30460393FFF790FCB7
:10C8A000039BE5E5B1684A1CB26032682B20505406
:10C8B000D6E901219142FFF4DBADEDE73268591C66
:10C8C000B16002F803A0D6E901239342FFF4E5AE7C
:10C8D0003046FFF775FCB368DFE630460393FFF799
:10C8E0006FFC039B2022002C7FF413AF23E730461C
:10C8F0000393FFF765FC039B3022BCE7F9073FF584
:10C90000B0AD18E79B4631E738F30200CDCCCCCC74
:10C910002DE9F041058A0331043D4E198046B6FBEE
:10C92000F5F6FFF709FCA0B3F6B24FF48073013EB1
:10C930000446C580C0F8008083802BD003460025C4
:10C9400008E06279AE4202F1010262713860C0F81B
:10C9500000801FD040461F46FFF7EEFB013503461F
:10C960000028EED16779791E17D02246013399420B
:10C970001268FBD1D2F800805FB12668002501E083
:10C9800034463668214601354046FFF7FDFBAF428D
:10C99000F6D800242046BDE8F08120682146FFF744
:10C9A000F3FBF6E704300121FFF78ABB2DE9F041E4
:10C9B000012104460430FFF791FB10F0FF0301D082
:10C9C000BDE8F0816779791E16D02246013399427D
:10C9D0001268FBD1D2F80080002FF1D02668002524
:10C9E00001E034463668214601354046FFF7CCFB6E
:10C9F000AF42F6D8BDE8F08120682146BDE8F0419D
:10CA0000FFF7C2BB2DE9F8430546C68840791446B6
:10CA100006FB00F2043A04EB030C1F1D624538BF0D
:10CA2000D41ABE428846B7FBF6F106FB117002D855
:10CA300001392D68FCD1371AA74228BF27469CB17F
:10CA40004FF000090430E41B28443A4608EB090182
:10CA500001F08EF8A642B9442D6837464FF0000029
:10CA600028BF2746002CEDD1BDE8F8832DE9F84317
:10CA70000546C6884079144606FB00F2043A04EBEA
:10CA8000030C1F1D624538BFD41ABE428846B7FB4F
:10CA9000F6F106FB117002D801392D68FCD1371A66
:10CAA000A74228BF27469CB14FF00009043029183F
:10CAB000E41B3A4608EB090001F05AF8A642B944D3
:10CAC0002D6837464FF0000028BF2746002CEDD1D7
:10CAD000BDE8F88341DF7047064A074B10B50024D4
